:020000040800F2
:10000000E8E70020C53B0008253C0008253C000827
:10001000253C0008253C0008253C000800000000A5
:100020000000000000000000000000009DD3000858
:10003000253C0008000000006DD40008A9D4000889
:10004000253C0008253C0008253C00088586000862
:10005000253C0008253C0008253C0008253C0008FC
:10006000253C0008253C0008253C0008253C0008EC
:10007000253C0008253C0008253C0008FD650008DB
:10008000253C0008253C000895850008253C000813
:10009000253C0008253C0008253C00081586000882
:1000A000253C0008253C0008253C0008253C0008AC
:1000B000E9AE0008B1B100085DB40008253C0008B5
:1000C000253C0008253C0008253C0008253C00088C
:1000D000253C0008750D0108D50E0108253C0008D7
:1000E000253C0008253C0008253C0008253C00086C
:1000F00009BC0008253C0008DDBB0008253C0008C1
:10010000253C0008253C000809B70008253C0008EC
:10011000253C0008253C0008253C0008BDB9000826
:10012000253C0008253C000845660008253C0008E1
:100130005FF808F180B485B000AF02460B46FA7153
:10014000BB71FB79DB08FB73FB7B1A465201D31AA8
:10015000DB00DAB2FB791344BB73BB79002B12D0FE
:10016000FB7BFA7B14498A5CD2B2D1B2BA7BC2F172
:100170000702012000FA02F2D2B20A43D2B2D1B28F
:100180000D4AD15413E0FB7BFA7B0B498A5CD2B257
:10019000D1B2BA7BC2F10702012000FA02F2D2B258
:1001A000D243D2B20A40D2B2D1B2034AD1541437A8
:1001B000BD465DF8047B704724D1002080B582B035
:1001C00000AF0023FB716AE010F08CFF0346BB71A7
:1001D000BB79DBB2652B38D0652B04DC302B0ED01D
:1001E000312B1FD05BE0682B02D0742B32D056E04D
:1001F000304B01221A70304B00221A804FE02D4BF9
:100200001B78DBB2002B0CD02B4B1B889BB25A1CEB
:1002100091B2294A1180DBB218460021FFF78AFF0C
:100220003DE03CE0234B1B78DBB2002B0CD0224B93
:100230001B889BB25A1C91B21F4A1180DBB2184630
:100240000121FFF777FF2AE029E01A4B00221A70FC
:1002500003232AE0174B1B78DBB2002B1BD0164B75
:100260001B889BB2002B16D0134B1B889BB2182BFC
:1002700007D0B3F59C7F04D00E2B05D10123FB7171
:1002800004E00223FB7101E00323FB71094B002210
:100290001A70FB7909E0074B00221A7000BF10F0BA
:1002A0004FFF0346002B8FD1FB7918460837BD4618
:1002B00080BD00BFD0020020D202002080B485B0F3
:1002C00000AF0346FB71FB79DB08FB73FB7B1A462F
:1002D0005201D31ADB00DAB2FB791344BB73FB7B08
:1002E0000A4AD35CDBB21A46BB7BC3F1070342FA6E
:1002F00003F303F00103002B01D0012300E00023EE
:1003000018461437BD465DF8047B704724D10020A1
:10031000B0B58AB000AFFFF751FF0346032B00F2E0
:10032000CB8001A252F823F0B90400083903000879
:1003300073030008B90400080020FFF7BFFF03465D
:10034000002B15D100F0CAF802465D4B114619701A
:10035000C2F307215970C2F307429A70584B1868CC
:1003600007F0B4F810F088FE564B00221A70A3E094
:10037000A2E0554C3B46184600F0E6F83D460FCD4E
:100380000FC40FCD0FC495E8030084E803004E4B63
:100390001B78DBB2803B292B00F2888001A252F847
:1003A00023F000BFAD040008AD040008AD04000850
:1003B0004D040008AD040008AD040008AD040008B9
:1003C000AD040008AD040008AD040008AD04000849
:1003D000AD040008AD040008AD040008AD04000839
:1003E000AD040008AD040008AD040008AD04000829
:1003F000AD040008AD040008AD040008AD04000819
:10040000AD040008AD040008AD040008AD04000808
:10041000AD040008AD040008AD040008AD040008F8
:10042000AD040008AD040008AD040008AD040008E8
:10043000AD040008AD040008AD040008AD040008D8
:10044000AD040008AD040008AD0400081E4B5B7845
:10045000DBB2002B28D0052B00D026E01B4BDB782D
:10046000DAB21A4B9A70194B9B899AB2174BDA8100
:10047000164B00225A8108F0DDFE154B1B6818460A
:100480000021002200230CF0E7FC104B03221A7617
:10049000104B1B6818460021002200230CF0DCFCE6
:1004A0000D4B01221A7000E000BF00BF10F0E4FD08
:1004B000044B00221A7000BF2837BD46B0BD00BFF4
:1004C00018D10020D0020020D402002094DE0020A9
:1004D000D8E0002078DE0020F0E0002080B483B077
:1004E00000AF174B1B78DBB23B70154B5B78FB7191
:1004F000FB799B00FB71FB791B09FB71FB79114AAE
:10050000D35CBB700E4B5B78DBB29B09DBB27B70BC
:100510003B1D3A461268114619800233120C1A70BC
:1005200000233A7962F307037A7962F30F23BA79E9
:1005300062F3174318460C37BD465DF8047B7047DD
:1005400024D10020DC210108B0B48DB000AF786068
:100550000E4B1B78DBB23B720C4B5B78DBB27B72D1
:100560000A4B9B78DBB2BB727B681C4607F108051F
:100570000FCD0FC40FCD0FC495E8030084E803002E
:1005800078683437BD46B0BC704700BF24D1002026
:1005900080B400AF054B054A928892B242F0100237
:1005A00092B29A80BD465DF8047B704700280040F7
:1005B00080B400AF054B054A928892B222F0100237
:1005C00092B29A80BD465DF8047B704700280040D7
:1005D00080B483B000AF0023FB80074B9B8BFB8074
:1005E000054B1B8B9BB21A04FB88134318460C3730
:1005F000BD465DF8047B70470028004080B582B09E
:1006000000AF7860FFF7C4FF064B7A68120C92B215
:100610001A83044B7A6892B29A83FFF7C9FF0837AE
:10062000BD4680BD0028004080B400AF00BF054B30
:100630009B889BB203F02003002BF8D0BD465DF8E9
:10064000047B70470028004080B485B000AF0346AB
:10065000FB800023FB730F4B9B889BB2DAB2FB88B5
:10066000DBB21340FB730B4B1B889AB2FB88134021
:100670009BB2002B05D0FB7B002B02D00123FB7328
:1006800001E00023FB73FB7B18461437BD465DF881
:10069000047B70470028004080B483B000AF03465D
:1006A000FB80074B064A928891B2FA88D24392B2F5
:1006B0000A4092B29A800C37BD465DF8047B7047C1
:1006C0000028004080B582B000AF78607A68784B2F
:1006D0009A420AD14FF40060012108F02FFC4FF438
:1006E0000060002108F02AFCDEE07B68B3F1804F57
:1006F00008D10120012108F03FFC0120002108F071
:100700003BFCD1E07A686B4B9A4208D10220012170
:1007100008F032FC0220002108F02EFCC4E07A68C8
:10072000654B9A4208D10420012108F025FC0420E1
:10073000002108F021FCB7E07A68604B9A4208D1AA
:100740000820012108F018FC0820002108F014FC02
:10075000AAE07A685A4B9A4208D11020012108F089
:100760000BFC1020002108F007FC9DE07A68554B37
:100770009A4208D12020012108F0FEFB2020002110
:1007800008F0FAFB90E07A684F4B9A420AD14FF496
:100790000050012108F0D2FB4FF40050002108F076
:1007A000CDFB81E07A68494B9A420AD14FF4002090
:1007B000012108F0C3FB4FF40020002108F0BEFB2C
:1007C00072E07A68424B9A420AD14FF480100121BC
:1007D00008F0B4FB4FF48010002108F0AFFB63E099
:1007E0007A683C4B9A420AD14FF40010012108F07C
:1007F000A5FB4FF40010002108F0A0FB54E07A683C
:10080000354B9A4208D14020012108F0B5FB402029
:10081000002108F0B1FB47E07A68304B9A4208D1DA
:100820008020012108F0A8FB8020002108F0A4FB13
:100830003AE07A682A4B9A420AD14FF4807001213B
:1008400008F09AFB4FF48070002108F095FB2BE034
:100850007A68244B9A420AD14FF48030012108F083
:100860006DFB4FF48030002108F068FB1CE07A68D3
:100870001D4B9A420AD14FF40030012108F05EFB73
:100880004FF40030002108F059FB0DE07A68174B57
:100890009A4209D14FF48020012108F04FFB4FF418
:1008A0008020002108F04AFB0837BD4680BD00BF0C
:1008B000002C01400004004000080040000C0040F3
:1008C000001000400014004000340140004C014082
:1008D000005001400054014000180040001C00403E
:1008E0000020004000400140004401400048014019
:1008F00080B485B000AF786039600023FB817B68ED
:100900001B88FB817A682E4B9A4213D07A682D4B54
:100910009A420FD07B68B3F1804F0BD07A682A4B94
:100920009A4207D07A68294B9A4203D07A68284BBA
:100930009A4208D1FB8923F07003FB813B685A88F7
:10094000FB891343FB817A68224B9A420CD07A6868
:10095000214B9A4208D0FB8923F44073FB813B680A
:10096000DA88FB891343FB817B68FA891A803B682C
:100970009A887B689A853B681A887B681A857A68AA
:100980000F4B9A420FD07A680E4B9A420BD07A687E
:10099000124B9A4207D07A68114B9A4203D07A6878
:1009A000104B9A4204D13B681B7A1A467B681A8620
:1009B0007B6801229A821437BD465DF8047B70473C
:1009C000002C0140003401400004004000080040B9
:1009D000000C0040001000400014004000400140A6
:1009E000004401400048014080B485B000AF786009
:1009F000396000237B810023FB810023BB817B685E
:100A00001B8C9BB223F001039AB27B681A847B682B
:100A10001B8CFB817B689B88BB817B681B8B7B81EC
:100A20007B8923F070037B817B8923F003037B8127
:100A30003B681A887B8913437B81FB8923F002037F
:100A4000FB813B681A89FB891343FB813B685A8809
:100A5000FB891343FB817A68244B9A420FD07A6852
:100A6000234B9A420BD07A68224B9A4207D07A687D
:100A7000214B9A4203D07A68204B9A4223D1FB89BA
:100A800023F00803FB813B685A89FB891343FB81F0
:100A9000FB8923F00403FB813B689A88FB8913439D
:100AA000FB81BB8923F48073BB81BB8923F4007372
:100AB000BB813B689A89BB891343BB813B68DA8958
:100AC000BB891343BB817B68BA899A807B687A892A
:100AD0001A833B68DA887B689A867B68FA891A846D
:100AE0001437BD465DF8047B704700BF002C014001
:100AF00000340140004001400044014000480140F2
:100B000080B485B000AF7860396000237B8100231A
:100B1000FB810023BB817B681B8C9BB223F4807319
:100B20009AB27B681A847B681B8CFB817B689B88EC
:100B3000BB817B689B8B7B817B8923F070037B81EE
:100B40007B8923F003037B813B681A887B891343ED
:100B50007B81FB8923F40073FB813B681B891B02AB
:100B60009AB2FB891343FB813B685B881B029AB2F4
:100B7000FB891343FB817A68224B9A4203D07A683F
:100B8000214B9A422BD1FB8923F40063FB813B6804
:100B90005B891B029AB2FB891343FB81FB8923F417
:100BA0008063FB813B689B881B029AB2FB891343DD
:100BB000FB81BB8923F48053BB81BB8923F40053A1
:100BC000BB813B689B891B019AB2BB891343BB81E4
:100BD0003B68DB891B019AB2BB891343BB817B68ED
:100BE000BA899A807B687A899A833B68DA887B68BD
:100BF0009A877B68FA891A841437BD465DF8047BAE
:100C0000704700BF002C01400034014080B584B023
:100C100000AF786039600023FB810123BB813B6812
:100C20005B88002B02D10223FB8101E00023FB81C2
:100C30003B689B88012B02D10223BB8101E0012389
:100C4000BB813B681B88002B1CD13B6859883B68E3
:100C50009A883B681B89786800F04AFA3B68DB8811
:100C60007868194600F088F93B681B89F989BA89C8
:100C7000786800F0A7FA3B68DB887868194600F0CE
:100C800097F91BE03B6859883B689A883B681B8949
:100C9000786800F097FA3B68DB887868194600F0BE
:100CA00087F93B681B89F989BA89786800F020FACE
:100CB0003B68DB887868194600F05EF91037BD465E
:100CC00080BD00BF80B483B000AF786039603B68FE
:100CD0001A883B685B8813439AB23B689B8813432E
:100CE0009AB23B68DB8813439AB23B681B89134373
:100CF0009AB23B685B8913439AB23B689B89134362
:100D00009AB27B68A3F844200C37BD465DF8047B9B
:100D1000704700BF80B483B000AF78607B684FF647
:100D2000FF729A807B6800221A807B680022DA803A
:100D30007B6800225A807B6800221A720C37BD46FD
:100D40005DF8047B704700BF80B483B000AF78606B
:100D50007B6800221A807B6800225A807B68002210
:100D60009A807B680022DA807B6800221A817B6887
:100D700000225A817B6800229A817B680022DA81F6
:100D80000C37BD465DF8047B704700BF80B483B06C
:100D900000AF78607B6800221A807B6800225A804E
:100DA0007B6800229A807B680022DA807B680022C0
:100DB0001A817B6800225A817B6800229A810C3755
:100DC000BD465DF8047B704780B483B000AF7860A7
:100DD0000B46FB70FB78002B08D07B681B889BB20E
:100DE00043F001039AB27B681A8007E07B681B8896
:100DF0009BB223F001039AB27B681A800C37BD4680
:100E00005DF8047B704700BF80B483B000AF7860AA
:100E100013460A467A807B707B78002B08D07B686B
:100E20009B899AB27B8813439AB27B689A8109E0C6
:100E30007B689B899AB27B88DB439BB213409AB252
:100E40007B689A810C37BD465DF8047B704700BF14
:100E500080B483B000AF786013460A467A807B7016
:100E60007B78002B08D07B689B899AB27B881343E0
:100E70009AB27B689A8109E07B689B899AB27B88E9
:100E8000DB439BB213409AB27B689A810C37BD4614
:100E90005DF8047B704700BF80B485B000AF786018
:100EA0000B467B800023FB817B681B89FB81FB89D0
:100EB00023F07003FB81FA897B881343FB817B68F5
:100EC000FA891A811437BD465DF8047B704700BF6C
:100ED00080B483B000AF78600B467B807B689B88D2
:100EE0009BB223F070039AB27B689A807B689B88E0
:100EF0009AB27B8813439AB27B689A800C37BD46BE
:100F00005DF8047B704700BF80B483B000AF7860A9
:100F10000B467B807B681B899BB223F007039AB248
:100F20007B681A817B681B899AB27B8813439AB2CB
:100F30007B681A810C37BD465DF8047B704700BFA3
:100F400080B483B000AF78600B467B807B681B89E0
:100F50009BB223F080039AB27B681A817B681B895D
:100F60009AB27B8813439AB27B681A810C37BD46CC
:100F70005DF8047B704700BF80B483B000AF786039
:100F80000B467B807B681B8B9BB223F00C039AB2D1
:100F90007B681A837B681B8B9AB27B8813439AB257
:100FA0007B681A830C37BD465DF8047B704700BF31
:100FB00080B483B000AF78600B467B807B681B8B6E
:100FC0009BB223F440639AB27B681A837B681B8BC5
:100FD0009AB27B881B029BB213439AB27B681A8336
:100FE0000C37BD465DF8047B704700BF80B483B00A
:100FF00000AF78607B689B8E9BB218460C37BD466D
:101000005DF8047B704700BF80B483B000AF7860A8
:101010007B681B8F9BB218460C37BD465DF8047B7E
:10102000704700BF80B485B000AF78600B467B800E
:101030000023FB737B681B8A9AB27B8813409BB2A8
:10104000002B02D00123FB7301E00023FB73FB7B29
:1010500018461437BD465DF8047B704780B483B0F2
:1010600000AF78600B467B807B88DB439AB27B685D
:101070001A820C37BD465DF8047B704780B485B09A
:1010800000AF78600B467B800023FB730023BB819D
:1010900000237B817B681B8A9AB27B881340BB81CB
:1010A0007B689B899AB27B8813407B81BB89002B2C
:1010B00005D07B89002B02D00123FB7301E00023C4
:1010C000FB73FB7B18461437BD465DF8047B704705
:1010D00080B483B000AF78600B467B807B88DB43B5
:1010E0009AB27B681A820C37BD465DF8047B704764
:1010F00080B487B000AFF86079813A81FB8000232B
:10110000BB820023FB82FB681B8C9BB223F0010394
:101110009AB2FB681A84FB681B8BBB82FB681B8C32
:10112000FB82BB8A23F0F303BB82FB881B019AB2CC
:101130003B8913439AB2BB8A1343BB82FA681C4BA8
:101140009A4213D0FA681B4B9A420FD0FB68B3F156
:10115000804F0BD0FA68184B9A4207D0FA68174BA9
:101160009A4203D0FA68164B9A420BD1FB8A23F0BD
:101170000203FB827A89FB8A13439BB243F001038B
:10118000FB820AE0FB8A23F00A03FB827A89FB8A4E
:1011900013439BB243F00103FB82FB68BA8A1A83B4
:1011A000FB68FA8A1A841C37BD465DF8047B7047D9
:1011B000002C0140003401400004004000080040C1
:1011C000000C004080B487B000AFF86079813A81AC
:1011D000FB800023BB820023FB8200237B82FB6811
:1011E0001B8C9BB223F010039AB2FB681A84FB6835
:1011F0001B8BBB82FB681B8CFB827B891B017B8268
:10120000BB8A23F440731B051B0DBB82FB881B03A9
:101210009AB2BB8A1343BB823B891B029AB2BB8A38
:101220001343BB82FA681C4B9A4213D0FA681B4BDB
:101230009A420FD0FB68B3F1804F0BD0FA68184B7D
:101240009A4207D0FA68174B9A4203D0FA68164BB5
:101250009A420BD1FB8A23F02003FB827A8AFB8A15
:1012600013439BB243F01003FB820AE0FB8A23F096
:10127000A003FB827A89FB8A13439BB243F01003DD
:10128000FB82FB68BA8A1A83FB68FA8A1A841C37C5
:10129000BD465DF8047B7047002C014000340140DE
:1012A0000004004000080040000C004080B500AF82
:1012B0000D4B1B78DBB2002B07D108F0AFFC0246C8
:1012C0000A4B1A60084B01221A70094B1B78DBB2DB
:1012D0001846002107F0A0FC054B1B78DBB2002B61
:1012E00001D007F0E3FE80BD76DE002018E000208C
:1012F000F0E0002080B500AF034B1B78DBB2002B81
:1013000001D007F0E5FE80BDF0E0002080B582B09E
:1013100000AF3020012107F0D5FD4FF4F853BB801A
:101320000323BB711823FB713B1D1048194603F0C2
:10133000A9FE0423BB803B1D0D48194603F0A2FE05
:101340000823BB804823FB713B1D0948194603F065
:1013500099FE4FF48060012107F096FD02200121E3
:1013600007F092FD0837BD4680BD00BF0010014068
:101370000014014080B500AF02480EF08DFD034619
:10138000184680BD0020001080B58EB000AF786098
:10139000396017480EF0AAFD164800210EF034FD02
:1013A000154BFB607B683B6100237B613B689B08BE
:1013B000BB610023FB6180233B624FF400737B62BF
:1013C0004FF40063BB620023FB624FF400533B63A6
:1013D00000237B6307F10C03064819460EF0D6FC88
:1013E000044801210EF010FD3837BD4680BD00BF16
:1013F00000F00010440402408080014080B58EB0AF
:1014000000AF7860396017480EF070FD1648002173
:101410000EF0FAFC154BFB607B683B6110237B618F
:101420003B689B08BB610023FB6180233B624FF458
:1014300000737B624FF40063BB620023FB624FF4D6
:1014400000533B6300237B6307F10C0306481946F6
:101450000EF09CFC044801210EF0D6FC3837BD4646
:1014600080BD00BF00F000104404024080800140B5
:1014700080B582B000AF2A23FB71FFF747FF0CF065
:10148000C9F800F053F80346FB71FB792A2B01D011
:10149000FB7943E000F054F90346FB71FB792A2BFA
:1014A00001D0FB793AE01F4B01221A751D4B002237
:1014B0001A601C4B00225A601A4B00229A60194B8A
:1014C0000022DA60174B00221A6116480CF0C8F8A7
:1014D000FB792A2B04D1144800F0F8F90346FB717C
:1014E000FB792A2B08D1104BB3F84C301B0418465B
:1014F00000F028FD0346FB71FB792A2B05D14FF440
:10150000006000F095FC0346FB71FB792A2B04D1A7
:10151000002000F0F9FC0346FB71FB791846083700
:10152000BD4680BDE0D1002090D1002080B586B0BE
:1015300000AF2A23FB7500233B610023FB600023DF
:10154000BB6000237B607B4BB2221A75794B002273
:101550001A60784B00225A60764B00229A60754BD5
:101560000022DA60734B00221A6172480CF078F89E
:1015700003200CF0B3F801200CF0A0F86E4B002211
:101580001A606D4B00225A606B4B00229A606A4BC6
:101590000022DA60684B4FF480621A6166480CF0F2
:1015A000F1F801F093FD0346FB75FB7D2A2B01D07A
:1015B000FB7DBAE0604B4FF4D5721A605E4B082297
:1015C0005A605D4B40229A605B4B0022DA605A4BB6
:1015D0004FF480621A6158480CF0D4F801F09CFD79
:1015E0000346FB75FB7D2A2B06D1544B01221A6062
:1015F0004FF080437B6017E04F4B00221A604E4B48
:1016000037225A604C4B40229A604B4B0022DA60E2
:10161000494B4FF480621A6147480CF0B3F8372009
:1016200001F0B6FD0346FB75434B00221A60424BA6
:1016300037225A60404B40229A603F4B0022DA60CA
:101640003D4B4FF480621A613B480CF09BF8372009
:1016500001F09EFD0346FB754BE0374B00221A60FC
:10166000354B37225A60344B40229A60324B00226D
:10167000DA60314B4FF480621A612F480CF082F827
:10168000372001F085FD0346FB75FB7D2A2B01D039
:10169000FB7D4AE07B6843F0004343F48013264A15
:1016A0001360254B29225A60234B40229A60224B1B
:1016B0000022DA60204B4FF480621A611E480CF061
:1016C00061F801F035FE0346FB75FB7D2A2B01D046
:1016D000FB7D2AE000200CF08DF838613B69DB0FC0
:1016E000012B14BF00230123DBB2BB60FB68013375
:1016F000FB60BB68002B04D1FA684FF6FE739A4278
:10170000ABD9FA684FF6FE739A4203D91B23FB75D7
:10171000FB7D0AE03B6903F080433B613B69002BA2
:1017200002D0064B02221A60FB7D18461837BD46D0
:1017300080BD00BFE0D1002078D10020FC02002055
:1017400080B582B000AF2A23FB710123BB800BF070
:10175000DDFF0346002B03D12523FB71FB79A7E0B6
:10176000554B1B68042B33D0544B00221A60534B4B
:1017700002225A60514BC0229A60504B0022DA601C
:101780004E4B4FF480621A614C480BF0FBFF01F0A6
:10179000F7FD0346FB71FB792A2B01D0FB7987E02B
:1017A00000200CF027F80246454B1A6004200CF08C
:1017B00021F80246424B5A6008200CF01BF8024602
:1017C0003F4B9A600C200CF015F802463C4BDA6057
:1017D000394B1B68002B0BD0374B1B68012B07D0F4
:1017E000354B1B68062B03D0334B1B68022B1ED1D5
:1017F000324B00221A60314B03225A602F4B402299
:101800009A602E4B0022DA602C4B4FF480621A61F2
:101810002A480BF0B7FF3B1D0320194601F0E4FDF9
:101820000346FB71FB792A2B01D0FB7940E0224B68
:101830001B68042B39D0BB881A46224B1A60BB8820
:101840001B041A461D4B1A601C4B09225A601B4B85
:10185000C0229A60194B0022DA60184B4FF4806264
:101860001A6116480BF08EFF01F08AFD0346FB71EA
:10187000FB792A2B01D0FB791AE000200BF0BAFF8C
:101880000246114B1A6004200BF0B4FF02460E4BC7
:101890005A6008200BF0AEFF02460B4B9A600C20FA
:1018A0000BF0A8FF0246084BDA602A23FB71FB7994
:1018B00018460837BD4680BDFC02002078D10020C4
:1018C00010030020200300200003002080B485B016
:1018D00000AF78602A23BB730023FB737C4B1B682B
:1018E000DAB27B6883F84E207A4B1B689AB27B6829
:1018F000A3F84C20784B1B681B0EFB73FB7B9B09EA
:10190000DAB27B681A70FB7B03F03C039B10DAB2FF
:101910007B685A70FB7B03F00303DAB27B689A7032
:101920006D4B1B6803F47F031B0CFB737B68FA7B16
:10193000DA70694B1B6803F47F431B0AFB737B68F7
:10194000FA7B1A71644B1B68FB737B68FA7B5A71D4
:10195000614B5B681B0EFB73FB7B9BB21B019AB256
:101960007B68DA805C4B5B6803F47F031B0CFB73C2
:101970007B68DB889AB2FB7B1B09DBB213439AB20C
:101980007B68DA80FB7B03F00F03DAB27B681A72A4
:10199000514B5B6803F47F431B0AFB73FB7BDB0942
:1019A000DAB27B685A72FB7B03F040039B11DAB218
:1019B0007B689A72FB7B03F020035B11DAB27B68D1
:1019C000DA72FB7B03F010031B11DAB27B681A7327
:1019D0007B6800225A733E4B1B68002B03D03C4BA4
:1019E0001B68012B7AD1FB7B03F003039B021A4691
:1019F0007B681A61384B5B68FB737B681A69FB7BF9
:101A00009B001A437B681A61334B9B681B0EFB7368
:101A10007B681A69FB7B9B09DBB21A437B681A61FE
:101A2000FB7B03F03803DB10DAB27B681A75FB7BB3
:101A300003F00703DAB27B685A75274B9B6803F4FF
:101A40007F031B0CFB73FB7B5B09DAB27B689A7527
:101A5000FB7B03F01C039B10DAB27B68DA75FB7B1F
:101A600003F00303DBB25B00DAB27B681A761A4B31
:101A70009B6803F47F431B0AFB737B681B7EDAB20F
:101A8000FB7BDB09DBB21343DAB27B681A767B6837
:101A90001B695A1C7B685A647B685A6C7B681B7E86
:101AA000DBB202339A407B685A647B681B7ADBB2F4
:101AB000012202FA03F31A467B689A647B685B6C26
:101AC0007A68926C02FB03F27B685A643BE000BFC9
:101AD000FC0200202003002000030020A94B1B680B
:101AE000022B30D1A84B5B68FB73FB7B03F03F03F9
:101AF0001B041A467B681A61A34B9B681B0EFB7381
:101B00007B681A69FB7B1B021A437B681A619E4B38
:101B10009B6803F47F031B0CFB737B681A69FB7BD8
:101B20001A437B681A61984B9B6803F47F431B0A36
:101B3000FB737B681B690133DA047B685A647B683A
:101B40004FF400729A64FB7B03F040039B11DAB2FE
:101B50007B685A76FB7B03F03F03DBB25B00DAB2B3
:101B60007B689A76884B9B68FB737B689B7EDAB2B6
:101B7000FB7BDB09DBB21343DAB27B689A76FB7B33
:101B800003F07F03DAB27B68DA767F4BDB681B0EEB
:101B9000FB73FB7BDB09DAB27B681A77FB7B03F014
:101BA00060035B11DAB27B685A77FB7B03F01C039E
:101BB0009B10DAB27B689A77FB7B03F00303DBB2FE
:101BC0009B00DAB27B68DA776F4BDB6803F47F0344
:101BD0001B0CFB737B68DB7FDAB2FB7B9B09DBB200
:101BE0001343DAB27B68DA77FB7B03F020035B11E7
:101BF000DAB27B6883F820207B68002283F82120FA
:101C0000FB7B03F00103DAB27B6883F822205E4B92
:101C1000DB6803F47F431B0AFB73FB7BDB09DAB24F
:101C20007B6883F82320FB7B03F040039B11DAB22F
:101C30007B6883F82420FB7B03F020035B11DAB27E
:101C40007B6883F82520FB7B03F010031B11DAB2BD
:101C50007B6883F82620FB7B03F00C039B10DAB231
:101C60007B6883F82720FB7B03F00303DAB27B68F1
:101C700083F82820444BDB68FB73FB7B5B08DAB2FC
:101C80007B6883F829207B68012283F82A203F4B58
:101C90001B681B0EFB737B68FA7B83F82C203B4B85
:101CA0001B6803F47F031B0CFB73FB7B9BB21B02C3
:101CB0009AB27B68DA85354B1B6803F47F431B0AB5
:101CC000FB737B68DB8D9AB2FB7B9BB213439AB2AA
:101CD0007B68DA852D4B1B68FB73FB7B1B061A4662
:101CE0007B681A63294B5B681B0EFB737B681A6B5E
:101CF000FB7B1B041A437B681A63244B5B6803F469
:101D00007F031B0CFB737B681A6BFB7B1B021A4364
:101D10007B681A631D4B5B6803F47F431B0AFB73EC
:101D20007B681A6BFB7B1A437B681A63174B5B68F3
:101D3000FB737B68FA7B83F83420144B9B681B0E83
:101D4000FB737B68FA7B83F83520104B9B6803F4A8
:101D50007F031B0CFB73FB7B1B061A467B689A6395
:101D60000A4B9B6803F47F431B0AFB737B689A6BE7
:101D7000FB7B1B041A437B689A63044B9B68FB73D1
:101D80007B6805E0FC020020000300201003002017
:101D90009A6BFB7B1B021A437B689A63234BDB68BD
:101DA0001B0EFB737B689A6BFB7B1A437B689A6301
:101DB0001E4BDB6803F47F031B0CFB737B6893F8FB
:101DC0003C30DAB2FB7B1B09DBB21343DAB27B682F
:101DD00083F83C20FB7B9BB203F00F039BB21B02FA
:101DE0009AB27B68DA87114BDB6803F47F431B0AE6
:101DF000FB737B68DB8F9AB2FB7B9BB213439AB277
:101E00007B68DA87094BDB68FB73FB7B5B08DAB224
:101E10007B6883F840207B68012283F84120BB7BEC
:101E200018461437BD465DF8047B70471003002048
:101E300080B584B000AF78602A23FB73304B1B68F9
:101E4000032B03D12723FB73FB7B54E02C4B1B6834
:101E5000002B07D02A4B1B68012B03D0284B1B6893
:101E6000022B47D17B68B3F5805F03D12723FB7337
:101E7000FB7B40E07B68B3F5006F1ED1012001F0D1
:101E800019FB0346FB73FB7B2A2B33D11D4B01222D
:101E90001A751C4B00221A601A4B00225A60194B0B
:101EA00000229A60174B4FF40062DA60154B002253
:101EB0001A6114480BF0D4FB1CE0002001F0FAFA80
:101EC0000346FB73FB7B2A2B14D10E4B01221A75A0
:101ED0000C4B00221A600B4B00225A60094B002267
:101EE0009A60084B0022DA60064B00221A6105480E
:101EF0000BF0B6FBFB7B18461037BD4680BD00BF1C
:101F0000FC020020E0D1002080B485B000AF7860F2
:101F10002A23FB737B68002B05D07B68012B02D042
:101F20007B68022B03D1064B7A681A6001E02623F6
:101F3000FB73FB7B18461437BD465DF8047B704786
:101F40000000002080B584B000AF78602A23FB73C6
:101F50000E4B7A681A600D4B07225A600B4B4022D9
:101F60009A600A4B0022DA60084B4FF480621A61D3
:101F700006480BF007FC072001F00AF90346FB7343
:101F8000FB7B18461037BD4680BD00BF78D10020CE
:101F900090B589B000AFF860B9601346FB802A2382
:101FA000FB750023FB61FB68BB610023BB75FB680D
:101FB000002B03D12623FB75FB7D77E19B4B2A2267
:101FC0001A709B4B00221A609A4B00221A609A4B9F
:101FD0009A4A1A60984B00225A60974B00229A60E6
:101FE000954B0022DA60944B00221A61924B00223A
:101FF0005A6191480BF012FC00200BF0B3FB00205B
:102000000BF0F8FB034603F00073002B03D00E2304
:10201000FB75FB7D4AE18A4B1B68022B05D14FF40F
:102020000073FB80BB685B0ABB60FB88002B68D039
:10203000FB88B3F5006F64D8FA88FB88013B134036
:10204000002B5ED1FB88184601F0EEFC0346BB7501
:10205000FA887C4B1A607B4B10225A60794B4022E5
:102060009A60784B0022DA60764B4FF480621A61F6
:1020700074480BF087FB102001F08AF80346FB75CB
:10208000FB7D2A2B01D0FB7D10E100BF6A4B6B4A20
:102090001A60FA88684B5A60BB7D1A01664B9A60D9
:1020A000654B0222DA60644B00221A61624B012206
:1020B0005A6161480BF0B2FBFA885E4B1A60624BC2
:1020C00000221A60614BFA681A605E4BBA681A60A7
:1020D0005C4B11225A605B4B40229A60594B0022A4
:1020E000DA60584B4FF480621A6156480BF04AFB95
:1020F000112001F04DF80346FB75FB7D2A2B06D01D
:1021000003E02623FB75FB7DD0E0FB7DCEE0504B4A
:102110001B68022B6DD11AE04FF400400BF0C8FB96
:102120000346002B13D00023FB610AE0FB699B00F0
:10213000BA69D4180BF0A0FB03462360FB69013396
:10214000FB61FB69072BF1D9BB692033BB61414BB4
:102150005A6B40F22A631340002BDDD008200BF0AD
:10216000A7FB0346002B06D008200BF0BBFB042383
:10217000FB75FB7D9AE002200BF09AFB0346002BD7
:1021800006D002200BF0AEFB0223FB75FB7D8DE039
:1021900020200BF08DFB0346002B06D020200BF0F7
:1021A000A1FB0623FB75FB7D80E04FF400700BF074
:1021B0007FFB0346002B07D04FF400700BF092FB1F
:1021C0000723FB75FB7D71E007E00BF055FB024632
:1021D000BB691A60BB690433BB614FF400100BF09C
:1021E00067FB0346002BF0D140F2FF500BF07AFB67
:1021F0005BE0174B1B68012B2ED148F22A300121DE
:102200000BF092FA00BF0A4B1B68002B04D1074B5E
:102210001B78DBB22A2BF6D0044B1B78DBB22A2BBF
:1022200043D0024B1B78DBB240E000BF040000202B
:102230002C03002024030020F8D10020FFFF0F0012
:10224000FC02002078D10020280300208CD100203F
:102250000000002000800140164B1B68002B24D199
:1022600040F22A3001210BF05FFA01200BF07AFADC
:10227000FB88F8681946FFF787F800BFFFF77AF880
:102280000346002B08D10C4B1B68002B04D10B4BD1
:102290001B78DBB22A2BF1D0084B1B78DBB22A2B40
:1022A00003D0064B1B78DBB200E0FB7D18462437D9
:1022B000BD4690BD000000202C030020040000203B
:1022C00090B589B000AFF860B9603B601346FB8001
:1022D0002A23FB770023BB61FB687B610023FB742F
:1022E000FB68002B03D12623FB77FB7FBFE18E4BDE
:1022F0002A221A708D4B00221A608D4B00221A6020
:102300008C4B8D4A1A608B4B00225A60894B0022FD
:102310009A60884B0022DA60864B00221A61854B56
:1023200000225A6183480BF079FA00200BF01AFA68
:1023300000200BF05FFA034603F00073002B03D07C
:102340000E23FB77FB7F92E17C4B1B68022B05D1B0
:102350004FF40073FB80BB685B0ABB60FB88002BFB
:1023600032D0FB88B3F5006F2ED8FA88FB88013B8A
:102370001340002B28D1FB88184601F055FB03467B
:10238000FB74FA886E4B1A606D4B10225A606C4BCE
:1023900040229A606A4B0022DA60694B4FF48062F7
:1023A0001A6167480BF0EEF9102000F0F1FE0346C9
:1023B000FB77FB7F2A2B01D0FB7F58E100BF3B68F6
:1023C000012B40F2538103E02623FB77FB7F4EE194
:1023D000FB883A6802FB03F3B3F1007F03D32623A3
:1023E000FB77FB7F43E1FB883A6802FB03F2504B2B
:1023F0001A60544B01221A60534BFA681A604D4B15
:102400004D4A1A60FB883A6802FB03F2494B5A6056
:10241000FB7C1A01474B9A60464B0222DA60454B1F
:1024200000221A61434B01225A6142480BF0F6F92F
:10243000434BBA681A60424B12225A60404B40220A
:102440009A603F4B0022DA603D4B4FF480621A6184
:102450003B480BF097F9122000F09AFE0346FB77F9
:10246000FB7F2A2B01D0FB7F01E1384B1B68022B3D
:1024700040F0B4801AE04FF400400BF019FA034624
:10248000002B13D00023BB610AE0BB699B007A6973
:10249000D4180BF0F1F903462360BB690133BB612B
:1024A000BB69072BF1D97B6920337B61284B5A6BC1
:1024B00040F22A331340002BDDD008200BF0F8F94E
:1024C0000346002B06D008200BF00CFA0423FB7700
:1024D000FB7FCCE002200BF0EBF90346002B06D08B
:1024E00002200BF0FFF90223FB77FB7FBFE02020E7
:1024F0000BF0DEF90346002B06D020200BF0F2F99A
:102500000623FB77FB7FB2E04FF400700BF0D0F9AD
:102510000346002B07D04FF400700BF0E3F90723BC
:10252000FB77FB7FA3E01DE0040000202C030020CC
:1025300024030020F8D10020FFFF0F00FC02002040
:1025400078D10020280300208CD10020000000203A
:10255000008001400BF090F902467B691A607B69AC
:1025600004337B614FF400100BF0A2F90346002BFB
:10257000F0D14FF480700BF09BF90346002B28D06C
:102580003D4B1B68002B07D03B4B1B68022B03D035
:10259000394B1B68012B1CD1384B00221A60374B7A
:1025A0000C225A60354B40229A60344B0022DA608C
:1025B000324B4FF480621A6130480BF0E3F80C2084
:1025C00000F0E6FD0346FB77FB7F2A2B01D0FB7F63
:1025D0004DE040F2FF500BF085F947E0284B1B68B7
:1025E000012B17D148F22A3001210BF09DF800BFD2
:1025F000244B1B68002B04D1234B1B78DBB22A2B06
:10260000F6D0214B1B78DBB22A2B2FD01E4B1B7828
:10261000DBB22CE01A4B1B68002B27D140F22A308A
:1026200001210BF081F801200BF09CF8FB883A683F
:1026300002FB03F3F8681946FEF7A6FE00BFFEF79B
:1026400099FE0346002B08D10E4B1B68002B04D1CA
:102650000D4B1B78DBB22A2BF1D00B4B1B78DBB276
:102660002A2B03D0084B1B78DBB200E0FB7F184617
:102670002437BD4690BD00BFFC02002078D1002069
:10268000000000202C0300200400002080B58EB044
:1026900000AFF860B9601346FB802A2387F8373013
:1026A0000023FB770023FB7500233B630023FB62C1
:1026B0000023BB6200237B620023BB61FB683B629B
:1026C000FB68002B05D1262387F8373097F8373081
:1026D00027E29E4B2A221A709D4B00221A609D4BC6
:1026E00000221A609C4B9D4A1A609B4B00225A6044
:1026F000994B00229A60984B0022DA60964B002298
:102700001A61954B00225A6193480BF087F800201C
:102710000BF028F800200BF06DF8034603F000736F
:10272000002B05D00E2387F8373097F83730F8E1C3
:102730008B4B1B68022B05D14FF40073FB80BB68E9
:102740005B0ABB60FB88002B50D0FB88B3F5006FA1
:102750004CD8FA88FB88013B1340002B46D1FB88FC
:10276000184601F061F90346FB77FA887D4B1A6041
:102770007C4B10225A607B4B40229A60794B00229E
:10278000DA60784B4FF480621A6176480AF0FAFFFB
:10279000102000F0FDFC034687F8373097F83730FB
:1027A0002A2B02D097F83730BBE100BF6E4B1B6875
:1027B0001A046C4B1A606B4B0D225A60694B402215
:1027C0009A60684B0022DA60664B4FF480621A61AF
:1027D00064480AF0D7FF0D2000F0DAFC034687F8C2
:1027E000373097F837302A2B09D005E0262387F8B1
:1027F000373097F8373094E197F8373091E100207F
:102800000AF0F8FFB862554B3B6328E03B6B013B95
:102810003B63554B1B681A04524B1A60514B0D22F7
:102820005A60504B40229A604E4B0022DA604D4B6A
:102830004FF480621A614B480AF0A4FF0D2000F0AB
:10284000A7FC034687F8373097F837302A2B02D099
:1028500097F8373065E100200AF0CCFFB862BB6A18
:1028600003F48073002B02D13B6B002BCED13B6B6A
:10287000002B01D1292354E13A4BBA681A60394B35
:1028800018225A60374B40229A60364B0022DA6099
:10289000344B4FF480621A6132480AF073FF1820FB
:1028A00000F076FC034687F8373097F837302A2B4C
:1028B00002D097F8373034E1FA88264B1A602B4B58
:1028C00000221A602A4BFA681A60234B234A1A60C6
:1028D000FA88214B5A60FB7F1A011F4B9A601E4BEE
:1028E0000022DA601C4B00221A611B4B01225A6144
:1028F00019480AF093FF1F4B1B68022B40F0AB8076
:1029000064E04FF480400AF0D3FF0346002B5DD013
:10291000104B1A68FB6AD31A1F2B40D80D4B1A684C
:10292000FB6AD31A03F00303002B05D1094B1A6885
:10293000FB6AD31A9B0805E0064B1A68FB6AD31A98
:102940009B080133BB6100237B6223E0040000206D
:102950002C03002024030020F8D10020FFFF0F00EB
:10296000FC02002078D10020200300202803002052
:1029700010D20020000000203B6A1B6818460AF0B5
:1029800087FF7B6A01337B623B6A04333B62FB6AED
:102990000433FB627A6ABB699A42EDD316E00023E6
:1029A0007B620AE07B6A9B003A6A13441B68184604
:1029B0000AF06EFF7B6A01337B627B6A072BF1D9D9
:1029C0003B6A20333B62FB6A2033FB62574B5A6BF6
:1029D00040F21A631340002B93D008200AF068FFDE
:1029E0000346002B08D008200AF07CFF042387F858
:1029F000373097F8373094E002200AF059FF034649
:102A0000002B08D002200AF06DFF022387F8373030
:102A100097F8373085E010200AF04AFF0346002B74
:102A200008D010200AF05EFF052387F8373097F8AA
:102A3000373076E04FF400700AF03AFF0346002B7F
:102A40004ED04FF400700AF04DFF072387F837305F
:102A500097F8373065E0364B1B68012B17D144F2ED
:102A60001A3001210AF060FE00BF324B1B68002BB8
:102A700004D1314B1B78DBB22A2BF6D02E4B1B78BE
:102A8000DBB22A2B2CD02C4B1B78DBB249E0284B35
:102A90001B68002B24D140F21A3001210AF044FEB9
:102AA000FB88F8681946FEF7A9FC01200AF05AFED7
:102AB00000BFFEF75FFC0346002B08D11D4B1B68CF
:102AC000002B04D11C4B1B78DBB22A2BF1D01A4B04
:102AD0001B78DBB22A2B03D0174B1B78DBB220E02C
:102AE00040F2FF500AF0FEFE07F11703184600F00F
:102AF000A1FD034687F8373007E007F117031846B2
:102B000000F098FD034687F8373097F837302A2BC6
:102B100005D1FB7D072BF0D0FB7D062BEDD097F880
:102B2000373018463837BD4680BD00BF00800140B1
:102B3000000000202C0300200400002080B58CB091
:102B400000AFF860B9603B601346FB802A2387F82A
:102B50002F30002387F823300023FB760023BB624D
:102B60000023FB61FB687B6200237B61FB68002B19
:102B700005D1262387F82F3097F82F3093E2A94B01
:102B80002A221A70A84B00221A60A84B00221A6051
:102B9000A74BA84A1A60A64B00225A60A44B0022F9
:102BA0009A60A34B0022DA60A14B00221A61A04B6D
:102BB00000225A619E480AF031FE00200AF0D2FD40
:102BC00000200AF017FE034603F00073002B05D027
:102BD0000E2387F82F3097F82F3064E2964B1B684E
:102BE000022B05D14FF40073FB80BB685B0ABB600E
:102BF000FB88002B51D0FB88B3F5006F4DD8FA88C5
:102C0000FB88013B1340002B47D1FB88184600F09E
:102C10000BFF034687F82330FA88884B1A60874BEE
:102C200010225A60854B40229A60844B0022DA6061
:102C3000824B4FF480621A6180480AF0A3FD102095
:102C400000F0A6FA034687F82F3097F82F302A2B8A
:102C500002D097F82F3026E200BF794B1B681A0488
:102C6000764B1A60754B0D225A60744B40229A6065
:102C7000724B0022DA60714B4FF480621A616F4828
:102C80000AF080FD0D2000F083FA034687F82F300C
:102C900097F82F302A2B09D005E0262387F82F300C
:102CA00097F82F30FFE197F82F30FCE13B68012BBC
:102CB00040F2CD81FB883A6802FB03F3B3F1007F59
:102CC00005D3262387F82F3097F82F30EBE15A4BA6
:102CD0001B68002B07D0584B1B68012B03D0564BA9
:102CE0001B68022B41D1564B1B681A04534B1A60C8
:102CF000524B37225A60514B40229A604F4B002270
:102D0000DA604E4B4FF480621A614C480AF03AFD8B
:102D1000372000F03DFA034687F82F3097F82F3020
:102D20002A2B02D097F82F30BDE1444B3A681A6045
:102D3000424B17225A60414B40229A603F4B00227F
:102D4000DA603E4B4FF480621A613C480AF01AFD8B
:102D5000172000F01DFA034687F82F3097F82F3020
:102D60002A2B02D097F82F309DE1344BBA681A60B5
:102D7000324B19225A60314B40229A602F4B00226D
:102D8000DA602E4B4FF480621A612C480AF0FAFC8C
:102D9000192000F0FDF9034687F82F3097F82F30FF
:102DA0002A2B02D097F82F307DE1FB883A6802FB8E
:102DB00003F21E4B1A60234B01221A60224BFA6861
:102DC0001A601B4B1B4A1A60FB883A6802FB03F22D
:102DD000174B5A6097F823301A01154B9A60144B21
:102DE0000022DA60124B00221A61114B01225A6153
:102DF0000F480AF013FD154B1B68022B40F0DF80D3
:102E000065E04FF480400AF053FD0346002B5ED08E
:102E1000064B1A68BB6AD31A1F2B2ED900237B617D
:102E200021E000BF040000202C0300202403002028
:102E3000F8D10020FFFF0F00FC02002078D1002015
:102E4000200300202803002010D2002000000020D2
:102E50007B699B007A6A13441B6818460AF018FDC8
:102E60007B6901337B617B69072BF1D97B6A203356
:102E70007B62BB6A2033BB6229E08D4B1A68BB6A58
:102E8000D31A03F00303002B05D1894B1A68BB6AE0
:102E9000D31A9B0805E0864B1A68BB6AD31A9B08B5
:102EA0000133FB6100237B610DE07B6A1B681846E0
:102EB0000AF0EEFC7B6901337B617B6A04337B6241
:102EC000BB6A0433BB627A69FB699A42EDD3794BE2
:102ED0005A6B40F21A331340002B92D008200AF0AC
:102EE000E7FC0346002B08D008200AF0FBFC042373
:102EF00087F82F3097F82F30D5E002200AF0D8FC61
:102F00000346002B08D002200AF0ECFC022387F8CD
:102F10002F3097F82F30C6E010200AF0C9FC034686
:102F2000002B08D010200AF0DDFC052387F82F3095
:102F300097F82F30B7E04FF400700AF0B9FC034661
:102F4000002B09D04FF400700AF0CCFC072387F85F
:102F50002F3097F82F30A6E04FF480700AF0A8FCCD
:102F60000346002B73D0544B1B68002B07D0524BE9
:102F70001B68012B03D0504B1B68022B67D14F4BB2
:102F800000221A604D4B0C225A604C4B40229A6032
:102F90004A4B0022DA60494B4FF480621A6147487D
:102FA0000AF0F0FB0C2000F0F3F8034687F82F300E
:102FB00097F82F302A2B4AD097F82F3073E0404BE8
:102FC0001B68012B17D144F21A3001210AF0ACFB27
:102FD00000BF3C4B1B68002B04D13B4B1B78DBB282
:102FE0002A2BF6D0384B1B78DBB22A2B2FD0364B4E
:102FF0001B78DBB257E0324B1B68002B27D140F225
:103000001A3001210AF090FB01200AF0ABFBFB888B
:103010003A6802FB03F3F8681946FEF7EFF900BFC0
:10302000FEF7A8F90346002B08D1264B1B68002B9E
:1030300004D1254B1B78DBB22A2BF1D0224B1B7815
:10304000DBB22A2B03D0204B1B78DBB22BE040F203
:10305000FF500AF047FC00237B6102E07B690133EB
:103060007B617A694FF6FE739A42F7D907F11B0329
:10307000184600F0DFFA034687F82F3007E007F123
:103080001B03184600F0D6FA034687F82F3097F84E
:103090002F302A2B05D1FB7E072BF0D0FB7E062B91
:1030A000EDD097F82F3018463037BD4680BD00BFB1
:1030B0002403002000800140FC02002078D1002081
:1030C000000000202C0300200400002080B582B006
:1030D00000AF2A23FB704FF480337B6002E07B68F3
:1030E000013B7B607B68002B05D080200AF0E0FB71
:1030F0000346002BF3D07B68002B03D10323FB7026
:10310000FB7804E040F2FF500AF0ECFBFB78184635
:103110000837BD4680BD00BF80B584B000AF2A230C
:10312000FB714FF48033BB60184B5B6BFB6005E0B9
:10313000BB68013BBB60154B5B6BFB60FB6803F03E
:103140004503002B02D1BB68002BF1D1BB68002BDB
:1031500004D0FB6803F00403002B06D00323FB71AB
:1031600004200AF0BFFBFB790CE0FB6803F040038E
:10317000002B06D02A23FB7140200AF0B3FBFB7919
:1031800000E0FB7918461037BD4680BD0080014045
:1031900080B586B000AF0346FB712A23FB74624BF7
:1031A0005B6B7B6102E0604B5B6B7B617B6903F077
:1031B0004503002BF7D07B6903F00403002B06D0F6
:1031C0000323FB7404200AF08DFBFB7CA8E07B69E1
:1031D00003F00103002B06D00123FB7401200AF049
:1031E00081FBFB7C9CE00AF0F9FA0346FA799A42EB
:1031F00003D01023FB74FB7C92E040F2FF500AF0F6
:1032000071FB00200AF0F6FAF860FA68474B1340A9
:10321000002B01D1FB7C83E0FB68002B01DA1C232F
:103220007EE0FB6803F08043002B01D0092377E0A8
:10323000FB6803F00053002B01D00A2370E0FB6809
:1032400003F08053002B01D00B2369E0FB6803F0EF
:103250000063002B01D00C2362E0FB6803F0806365
:10326000002B01D00D235BE0FB6803F08073002B83
:1032700001D00E2354E0FB6803F40003002B01D0BF
:103280000F234DE0FB6803F48003002B01D01023D3
:1032900046E0FB6803F40013002B01D011233FE04C
:1032A000FB6803F48013002B01D0122338E0FB6885
:1032B00003F40023002B01D0132331E0FB6803F457
:1032C0008023002B01D014232AE0FB6803F4003391
:1032D000002B01D0152323E0FB6803F48033002B7F
:1032E00001D016231CE0FB6803F40043002B01D03F
:1032F000172315E0FB6803F48043002B01D018234B
:103300000EE0FB6803F40053002B01D0192307E003
:10331000FB6803F00803002B01D01A2300E0FB7CBC
:1033200018461837BD4680BD0080014008E0FFFD0B
:1033300080B582B000AF2A23FB70104B5B6B7B60C3
:1033400002E00E4B5B6B7B607B6803F04503002B58
:10335000F7D07B6803F00403002B06D00323FB7037
:1033600004200AF0BFFAFB7804E040F2FF500AF0B4
:10337000B9FAFB7818460837BD4680BD0080014089
:1033800080B582B000AF2A23FB70164B5B6B7B606D
:1033900002E0144B5B6B7B607B6803F04503002B02
:1033A000F7D07B6803F00403002B06D00323FB70E7
:1033B00004200AF097FAFB7810E07B6803F0010321
:1033C000002B06D00123FB7001200AF08BFAFB785A
:1033D00004E040F2FF500AF085FAFB7818460837FF
:1033E000BD4680BD0080014080B586B000AF034679
:1033F0003960FB712A23FB742D4B5B6B7B6102E010
:103400002B4B5B6B7B617B6903F04503002BF7D093
:103410007B6903F00403002B06D00323FB74042014
:103420000AF060FAFB7C3FE07B6903F00103002BAC
:1034300006D00123FB7401200AF054FAFB7C33E030
:103440000AF0CCF90346FA799A4203D01023FB74B0
:10345000FB7C29E040F2FF500AF044FA00200AF019
:10346000C9F9F860FB6803F46043002B06D1FB68E0
:103470001B0C9AB23B681A80FB7C15E0FB6803F4D6
:103480000053002B01D013230EE0FB6803F48043AC
:10349000002B01D0102307E0FB6803F40043002B4E
:1034A00001D00F2300E0FB7C18461837BD4680BDD5
:1034B0000080014080B586B000AF0346FB712A232F
:1034C000FB750023FB6000233B6100200AF092F9AA
:1034D000034603F00073002B03D00E23FB75FB7D26
:1034E0009FE0524B1B689AB207F10C031046194635
:1034F00000F096F90346FB75FB7D2A2B01D0FB7D7E
:103500008FE0FB79012B46D13B6903F48023002B2C
:103510003DD0464B1B681A04454B1A60444B37227A
:103520005A60434B40229A60414B0022DA60404B84
:103530004FF480621A613E480AF024F93720FFF701
:1035400027FE0346FB75FB7D2A2B01D0FB7D68E03F
:10355000374B02221A60364B06225A60344B402207
:103560009A60334B0022DA60314B4FF480621A616B
:103570002F480AF007F90620FFF70AFE0346FB75FD
:10358000FB7D2A2B01D0FB7D4BE0FB7D49E0252311
:10359000FB75FB7D45E03B6903F48033002B3DD098
:1035A000224B1B681A04224B1A60214B37225A60A7
:1035B0001F4B40229A601E4B0022DA601C4B4FF4D6
:1035C00080621A611A480AF0DDF83720FFF7E0FD43
:1035D0000346FB75FB7D2A2B01D0FB7D21E0144BBC
:1035E00000221A60124B06225A60114B40229A6048
:1035F0000F4B0022DA600E4B4FF480621A610C48C8
:103600000AF0C0F80620FFF7C3FD0346FB75FB7DFB
:103610002A2B01D0FB7D04E0FB7D02E02523FB7516
:10362000FB7D18461837BD4680BD00BF2003002033
:1036300078D1002080B586B000AF78602A23FB7572
:1036400000233B610023FB60714B1B681A04714B24
:103650001A60704B0D225A606E4B40229A606D4B7F
:103660000022DA606B4B4FF480621A6169480AF0FD
:1036700089F8694B5B6BFB6002E0674B5B6BFB603F
:10368000FB6803F04503002BF7D0FB6803F004034D
:10369000002B06D00323FB7504200AF023F9FB7DE1
:1036A000B2E0FB6803F00103002B06D00123FB7599
:1036B00001200AF017F9FB7DA6E00AF08FF8034617
:1036C000FB60FB680D2B03D01023FB75FB7D9BE09B
:1036D00040F2FF500AF006F900200AF08BF803468A
:1036E0003B613B695B0ADBB203F00F03DAB27B6834
:1036F0001A703A69494B1340002B01D1FB7D83E0DE
:103700003B69002B01DA1C237EE03B6903F0804318
:10371000002B01D0092377E03B6903F00053002B15
:1037200001D00A2370E03B6903F08053002B01D0E5
:103730000B2369E03B6903F00063002B01D00C23ED
:1037400062E03B6903F08063002B01D00D235BE056
:103750003B6903F08073002B01D00E2354E03B69DA
:1037600003F40003002B01D00F234DE03B6903F469
:103770008003002B01D0102346E03B6903F40013C3
:10378000002B01D011233FE03B6903F48013002B91
:1037900001D0122338E03B6903F40023002B01D051
:1037A000132331E03B6903F48023002B01D0142361
:1037B0002AE03B6903F40033002B01D0152323E0FA
:1037C0003B6903F48033002B01D016231CE03B69D6
:1037D00003F40043002B01D0172315E03B6903F4E9
:1037E0008043002B01D018230EE03B6903F4005303
:1037F000002B01D0192307E03B6903F00803002BDD
:1038000001D01A2300E0FB7D18461837BD4680BD65
:103810002003002078D100200080014008E0FFFD57
:1038200090B587B000AF03463960FB8000237B6111
:103830002A23FB740023BB600023FB60754B082226
:103840001A60744B10225A60724B40229A60714B7E
:103850000022DA606F4B4FF480621A616D4809F004
:1038600091FF1020FFF794FC0346FB74FB7C2A2B8E
:1038700001D0FB7CC9E0684B1B681A04654B1A60D9
:10388000644B37225A60634B40229A60614B00229E
:10389000DA60604B4FF480621A615E4809F072FF93
:1038A0003720FFF775FC0346FB74FB7C2A2B01D005
:1038B000FB7CAAE0594B5A4A1A60584B08225A60BE
:1038C000564B30229A60554B0222DA60534B00224D
:1038D0001A61524B01225A61504809F09FFF4D4B2B
:1038E00000221A604B4B33225A604A4B40229A60A6
:1038F000484B0022DA60474B4FF480621A6145481A
:1039000009F040FF3320FFF743FC0346FB74FB7CC8
:103910002A2B01D0FB7C78E012E04FF4001009F074
:10392000C7FF0346002B0BD07B699B0007F1080201
:10393000D41809F0A1FF034623607B6901337B6142
:10394000384B5A6B40F22A631340002BE5D0082015
:1039500009F0AEFF0346002B06D0082009F0C2FF95
:103960000423FB74FB7C50E0022009F0A1FF034616
:10397000002B06D0022009F0B5FF0223FB74FB7C6C
:1039800043E0202009F094FF0346002B06D02020BE
:1039900009F0A8FF0623FB74FB7C36E04FF40070AF
:1039A00009F086FF0346002B07D04FF4007009F0A2
:1039B00099FF0723FB74FB7C27E040F2FF5009F0DE
:1039C00091FF3B680433BA681106BA6802F47F427B
:1039D00012021143BA6802F47F02120A1143BA6854
:1039E000120E0A431A60FB681A06FB6803F47F4351
:1039F0001B021A43FB6803F47F031B0A1A43FB688C
:103A00001B0E1A433B681A60FB7C18461C37BD46E8
:103A100090BD00BF78D1002020030020F8D1002005
:103A2000FFFF0F000080014080B485B000AF034667
:103A3000FB800023FB7305E0FB885B08FB80FB7BBE
:103A40000133FB73FB88012BF6D1FB7B184614373F
:103A5000BD465DF8047B704780B500AF154B154A35
:103A6000126842F001021A60124A124B5968124B56
:103A70000B4053600F4A0F4B1B6823F0847323F4F1
:103A8000803313600B4B0B4A126822F480221A60B9
:103A9000084B084A526822F4FE025A60054B4FF464
:103AA0001F029A6000F00CF8044B4FF000629A601D
:103AB00080BD00BF001002400000FFF800ED00E0F4
:103AC00080B500AF00F002F880BD00BF80B483B0C5
:103AD00000AF00237B6000233B60384B374A1268FD
:103AE00042F480321A60354B1B6803F400333B60AC
:103AF0007B6801337B603B68002B03D17B68B3F5A7
:103B0000A06FF0D12D4B1B6803F40033002B02D0C3
:103B100001233B6001E000233B603B68012B47D160
:103B2000274B274A126842F010021A60244B244A9D
:103B3000126822F003021A60214B214A12681A60AF
:103B40001E4B1E4A52685A601C4B1C4A52685A60EF
:103B50001A4B1A4A52685A60184B184A526822F493
:103B60007C125A60154B154A526842F498125A60FA
:103B7000124B124A126842F080721A6000BF0F4B5B
:103B80001B6803F00073002BF9D00C4B0B4A5268F2
:103B900022F003025A60094B084A526842F00202BE
:103BA0005A6000BF054B5B6803F00C03082BF9D18A
:103BB0000C37BD465DF8047B704700BF0010024023
:103BC0000020024080B582B000AF114B7B60114BEA
:103BD0003B6007E03B681A1D3A607A68111D796006
:103BE00012681A603A680C4B9A42F3D30B480C499E
:103BF0004FF000028842B8BF40F8042BFFF6FAAF3E
:103C0000FFF72AFF01F0A4FC0837BD4680BD00BFC6
:103C10001828010800000020D0020020D002002057
:103C2000E8E3002080B400AFFEE700BF80B483B0BB
:103C300000AF78600C4B1B681A687B681A607B6861
:103C40000433094A126852681A607B680833064ACE
:103C5000126892681A607B680C33044A1A600C3749
:103C6000BD465DF8047B70471C0000207856341276
:103C700080B483B000AF0346FB71084B97F907206F
:103C80005209F97901F01F01012000FA01F143F80E
:103C900022100C37BD465DF8047B704700E100E060
:103CA00080B586B000AF20480CF09AF908200121B9
:103CB00005F008F94FF40040012105F021F928230F
:103CC000BB821823FB750323BB7507F11403174848
:103CD000194601F0D7F94FF440433B804FF482730B
:103CE0007B800023BB800023FB8000233B814FF4BB
:103CF00000737B810023BB810023FB813B460A4884
:103D000019460CF0A7F9084801210CF0E7F906481C
:103D10004FF480710CF034FA0348022100220CF0B9
:103D2000FDF91837BD4680BD003C0040000C014045
:103D300080B582B000AF0346FB80FB880748194678
:103D40000CF010FA00BF054802210CF03BFA0346C4
:103D5000002BF8D00837BD4680BD00BF003C0040B6
:103D600080B58CB000AF0220012105F08DF8154818
:103D70000BF050FF144B7B60144BBB601023FB60B7
:103D80004FF4FC733B6100237B618023BB61002304
:103D9000FB6100233B6200237B624FF40053BB6254
:103DA0000023FB623B1D074819460BF0EFFF39204B
:103DB000FFF75EFF034800210CF026F83037BD46C0
:103DC00080BD00BF1C0402400C3C004014D2002007
:103DD00080B582B000AF0346FB71FB799BB21846F9
:103DE000FFF7A6FF0837BD4680BD00BF80B500AF16
:103DF0001D48022100220CF091F91C4800210CF012
:103E000003F81B484FF4007101F04EFA1848802166
:103E100001F04AFA4020FFF7DBFF8020FFF7D8FFD0
:103E20001348802101F032FA00BF0F4B1B899BB26F
:103E300003F00203002BF8D000BF0B4B1B899BB291
:103E400003F08003002BF8D1084840F2F9110CF080
:103E500015F80548022101220CF060F90348012100
:103E60000BF0D2FF80BD00BF003C00401C040240AC
:103E7000000C014080B582B000AF0120012105F0A7
:103E800021F82848012101F01DFA0820012105F040
:103E900019F80323BB711023FB714FF46073BB80CF
:103EA0003B1D2148194601F0EDF8FFF7F9FEFFF739
:103EB00057FF1E48022100220CF030F91C48002157
:103EC0000BF0A2FF1848082101F0EEF916484FF454
:103ED000007101F0E9F914484FF4807101F0E4F940
:103EE00011484FF4807101F0D1F90F48802101F0A1
:103EF000DBF92120FFF76CFFC120FFF769FF0620E7
:103F0000FFF766FF1320FFF763FF2020FFF760FF36
:103F10000C20FFF75DFF0448802101F0B7F9083756
:103F2000BD4680BD00023000000C0140003C004056
:103F30001C04024080B485B000AF13460246FA71FB
:103F40000A46BA717B71FB79542B02D8BB792F2BAF
:103F500000D92DE0BB79DB08DBB2542202FB03F26F
:103F6000FB791344FB60BB7903F00703012202FADB
:103F700003F3FB727B79002B0BD0104AFB681344D0
:103F80001A78FB7A1343DAB20C49FB680B441A70B7
:103F90000EE00A4AFB6813441B78DAB2FB7ADB4373
:103FA000DBB21340DBB2DAB20449FB680B441A708F
:103FB0001437BD465DF8047B704700BF14D2002063
:103FC00080B586B000AFF871B9717A713B717A79BA
:103FD000FB79D31ADBB23B743A79BB79D31ADBB2E3
:103FE000FB7397F91030002B04DB3B7CFB7401233F
:103FF000FB7505E0FA797B79D31AFB74FF23FB7517
:1040000097F90F30002B04DBFB7BBB740123BB75DE
:1040100005E0BA793B79D31ABB74FF23BB75FB79F2
:104020007B75BB793B75FA7CBB7C9A4235D3FB7CB4
:104030007B742EE097F90F30002B0DDDBB7C797D72
:10404000FA798A1A02FB03F2FB7C92FBF3F3DAB2F1
:10405000BB7913443B750CE0BB7C797DFA798A1AF5
:1040600002FB03F2FB7C92FBF3F3DBB2BA79D31AC7
:104070003B75797D3A7D97F82030084611461A46FF
:10408000FFF758FFFA7D7B7D13447B757B7C013BFA
:104090007B747B7C002BCDD134E0BB7C7B742EE029
:1040A00097F90F30002B0DDDFB7C397DBA798A1A28
:1040B00002FB03F2BB7C92FBF3F3DAB2FB7913440D
:1040C0007B750CE0FB7CB9793A7D8A1A02FB03F21E
:1040D000BB7C92FBF3F3DAB2FB7913447B75797DF9
:1040E0003A7D97F82030084611461A46FFF722FF1E
:1040F000BA7D3B7D13443B757B7C013B7B747B7CB1
:10410000002BCDD179793A7997F8203008461146BD
:104110001A46FFF70FFF1837BD4680BD90B585B032
:1041200002AFF871B9717A713B71F879B9797A791E
:10413000BB793C7E0094FFF743FFF87939797A79AF
:104140003B793C7E0094FFF73BFFF879B979FA7927
:104150003B793C7E0094FFF733FF7879B9797A791F
:104160003B793C7E0094FFF72BFF0C37BD4690BD9A
:1041700080B584B000AFF871B9717A713B717B7909
:104180007E2B05D8414BFB607B79203B7B7104E0A3
:104190003F4BFB607B7940337B71BB79DB43DBB208
:1041A00003F007037B72BB79DB083B720023FB72D1
:1041B00065E07A7913465B0013445B001A46FB7A8C
:1041C0001344FA6813441B78BB723B79002B0ED062
:1041D000BB7ADB43BB72BB79002B08D0BB79013BB8
:1041E000DBB2FA79104619460122FFF7A3FEBB7A2B
:1041F00003F07F03BB723B7A542202FB03F2FB798C
:1042000013443A7A542101FB02F1FA790A44214914
:104210008A5CD1B2B87A7A7AC2F1070200FA02F265
:10422000D2B20A43D2B2D1B21A4AD1547B7A062B07
:104230001BD83B7A0133542202FB03F2FB7913446F
:104240003A7A0132542101FB02F1FA790A44114908
:104250008A5CD1B2B87A7A7A013240FA02F2D2B2EA
:104260000A43D2B2D1B20B4AD154FB790133FB716C
:10427000FB79532B00D905E0FB7A0133FB72FB7A03
:10428000052B96D91037BD4680BD00BF2000002009
:10429000C819010814D2002090B585B002AF0246BB
:1042A0000B46FA71BB71FB79002B0FD0FB79013BF8
:1042B000D8B2BB79013BD9B2FB79013BDAB2BB7909
:1042C0000633DBB201240094FFF77AFE0C37BD46BB
:1042D00090BD00BF80B582B000AF3A600246FA716F
:1042E0000A46BA717B717B79002B06D0FA79BB79CB
:1042F00010461946FFF7D0FF0DE00CE03B681A7836
:10430000F879B9797B79FFF733FFFB790633FB71D5
:104310003B6801333B603B681B78002BEED10837CC
:10432000BD4680BD90B585B002AFF880B9807A8077
:104330007B70FB88D8B2BB88D9B2FB88DAB2BB8865
:10434000DCB27B88DBB22344DBB2013BDBB27C789E
:104350000094FFF735FE0C37BD4690BD90B585B093
:1043600002AFF880B9807A807B70FB88D8B2BB88B6
:10437000D9B2FB88DAB27B88DBB21344DBB2013BF3
:10438000DAB2BB88DBB27C780094FFF719FE0C37F9
:10439000BD4690BD80B586B000AFBA600246FA81D6
:1043A0000A46BA81FB710023FB7533E00023BB751D
:1043B00028E0FA7DBB7DDB08DBB2F97901FB03F372
:1043C0001344BA6813441B781A46BB7D03F00703F5
:1043D00042FA03F303F00103002B10D0FB89DAB299
:1043E000FB7D1344D9B2BB89DAB2BB7D1344DAB288
:1043F00097F82430084611461A46FFF79BFDBB7D0F
:104400000133BB75BA7D97F820309A42D1D3FB7D3A
:104410000133FB75FA7DFB799A42C7D31837BD4645
:1044200080BD00BF80B584B000AFF880B9807A80CD
:104430003B80FB88FB810BE0B7F90E00B7F9041055
:10444000B7F900203B7EFFF76DFFFB890133FB814D
:10445000B7F90E20B7F90610B7F902300B449A42AB
:10446000EADB1037BD4680BD80B584B002AFF8806E
:10447000B980FA70BB70BB78002B21D0B7F9062049
:10448000B7F9043000210091104619460C22102380
:10449000FFF7C8FFFA7813465B001344DB001A4AA3
:1044A0001344B7F90610B7F904201020009001203A
:1044B0000190084611461A460C23FFF76BFF20E0D7
:1044C000B7F90620B7F904300121009110461946CA
:1044D0000C221023FFF7A6FFFA7813465B00134463
:1044E000DB00094A1344B7F90610B7F9042010207D
:1044F000009001200190084611461A460C23FFF750
:1045000049FF0837BD4680BDB81C010880B584B09E
:1045100002AFF880B980FA70BB70BB78002B1ED058
:10452000B7F90620B7F9043000210091104619466A
:1045300004220823FFF776FFFB789A00184B1344F8
:10454000B7F90610B7F90420082000900120019067
:10455000084611461A460423FFF71CFF1DE0B7F971
:104560000620B7F9043001210091104619460422B3
:104570000823FFF757FFFB789A00094B1344B7F95C
:104580000610B7F904200820009001200190084689
:1045900011461A460423FFF7FDFE0837BD4680BDCD
:1045A000D81D010880B584B002AF0023FB71A94B70
:1045B0005B899AB2A84BA3FB02139B099BB27B7148
:1045C000A44B5B899BB21A467B79A44901FB03F398
:1045D0001344A34A82FB03125211DB17D31A3B7117
:1045E0009C4B5B899BB21A467B799C4901FB03F388
:1045F0001A443B796FF0630101FB03F31344994ABA
:1046000082FB03129210DB17D31AFB70914B5B896C
:104610009BB2DAB23B79194689001944C900CB1A1A
:104620009B00D9B27B79184640000344DB00DBB223
:104630000B44DBB21344DAB2FB7819464901C91ABC
:104640008900CB1A5B00DBB21344BB7000230093DC
:10465000102014212B221023FFF7E4FE7B79002B7E
:1046600009D07B79102014211A460123FFF7FCFEA4
:10467000FB790133FB713B79002B15D0FB799BB2A1
:104680001A46520013449B009BB210339BB29BB25C
:104690001AB23B79104614211A460123FFF7E4FEB3
:1046A000FB790133FB7116E0FB79002B13D0FB790A
:1046B0009BB21A46520013449B009BB210339BB22C
:1046C0009BB21BB21846142100220123FFF7CCFE37
:1046D000FB790133FB71FB78002B15D0FB799BB282
:1046E0001A46520013449B009BB210339BB29BB2FC
:1046F0001AB2FB78104614211A460123FFF7B4FEC4
:10470000FB790133FB7116E0FB79002B13D0FB79A9
:104710009BB21A46520013449B009BB210339BB2CB
:104720009BB21BB21846142100220123FFF79CFE06
:10473000FB790133FB71BB78002B12D0FB799BB264
:104740001A46520013449B009BB210339BB29BB29B
:104750001AB2BB78104614211A460123FFF784FED3
:1047600010E0FB799BB21A46520013449B009BB2A7
:1047700010339BB29BB21BB21846142100220123B6
:10478000FFF772FE334B5B899BB21A4613465B0000
:1047900013445B001A462F4B1B899BB292FBF3F329
:1047A000DBB20133BB71BB79062B01D90623BB7188
:1047B000002300930020102110221823FFF732FE5F
:1047C000BB79002B21D0234B5B899BB2002B11D0EE
:1047D000BA7913465B0013441B01234A1344182281
:1047E000009201220192002010211A461023FFF7A7
:1047F000D1FD24E018230093012301930020102110
:10480000194A1023FFF7C6FD19E0124B5B899BB2D2
:10481000002B0AD0182300930123019300201021BC
:10482000124A1023FFF7B6FD09E018230093012375
:104830000193002010210C4A1023FFF7ABFD0C4B15
:104840001B78DBB2002B01D1FFF7D0FA0837BD4649
:1048500080BD00BF94DE0020D34D621018FCFFFF26
:104860001F85EB51676666660C1E01083C1E010839
:1048700070E1002080B584B002AF0023FB71724B61
:10488000DB899AB2714BA3FB02139B099BB2BB71EC
:104890006D4BDB899BB21A46BB796D4901FB03F373
:1048A00013446C4A82FB03125211DB17D31A7B713B
:1048B000654BDB899BB21A46BB79654901FB03F363
:1048C0001A447B796FF0630101FB03F31344624ADE
:1048D00082FB03129210DB17D31A3B715A4BDB8910
:1048E0009BB2DAB27B79194689001944C900CB1A08
:1048F0009B00D9B2BB79184640000344DB00DBB211
:104900000B44DBB21344DAB23B7919464901C91AA8
:104910008900CB1A5B00DBB21344FB7000230093C9
:104920000020292114221023FFF77CFDBB79002BE6
:1049300009D0BB79002029211A460123FFF7E6FDA3
:10494000FB790133FB717B79002B12D0FB799BB291
:104950001A46920013449BB29BB21AB27B7910465E
:1049600029211A460123FFF7D1FDFB790133FB71A1
:1049700013E0FB79002B10D0FB799BB21A46920012
:1049800013449BB29BB21BB218462921002201237B
:10499000FFF7BCFDFB790133FB713B79002B12D093
:1049A000FB799BB21A46920013449BB29BB21AB297
:1049B0003B79104629211A460123FFF7A7FDFB7911
:1049C0000133FB7113E0FB79002B10D0FB799BB214
:1049D0001A46920013449BB29BB21BB2184629217F
:1049E00000220123FFF792FDFB790133FB71FB7875
:1049F000002B0FD0FB799BB21A46920013449BB256
:104A00009BB21AB2FB78104629211A460123FFF700
:104A10007DFD0EE0FB799BB21A46920013449BB2D7
:104A20009BB21AB2FB78104629211A460123FFF7E0
:104A30006DFD0A4B1B78DBB2002B01D1FFF7D6F9D5
:104A40000837BD4680BD00BF94DE0020D34D621004
:104A500018FCFFFF1F85EB516766666670E100205A
:104A600080B586B002AF0346FB80FA884F4BA3FBAC
:104A700002139B099BB2FB73FA88FB7B4C4901FB39
:104A800003F313444B4A82FB03125211DB17D31A70
:104A9000BB73FA88FB7B464901FB03F31A44BB7BDB
:104AA0006FF0630101FB03F31344434A82FB0312DB
:104AB0009210DB17D31A7B73002300934320072146
:104AC00014220423FFF7AEFCFB7B432007211A4688
:104AD0000123FFF71BFD472008210A220123FFF7CE
:104AE00015FDBB7B4B2007211A460123FFF70EFD66
:104AF0007B7B502007211A460123FFF707FD002387
:104B00000093472001210C220423FFF78BFC2B4B41
:104B1000B3F870319AB2294BB3F872319BB29A4212
:104B20003AD9264BB3F872319BB2FA889A4233D9FC
:104B3000224BB3F870319BB21A46204BB3F8723156
:104B40009BB2D31A1E4A82FB03121A44D210DB17FF
:104B5000D31A7B81FA88194BB3F872319BB2D21AFF
:104B60007B8992FBF3F39BB2C3F153039BB23B816E
:104B7000B7F90830522B0FDC3B89C3F153039BB2CA
:104B80009BB2B7F908201BB2012100911046012108
:104B90001A460523FFF746FC0A4B1B78DBB2002BB5
:104BA00001D1FFF723F91037BD4680BDD34D621008
:104BB00018FCFFFF1F85EB516766666694DE0020D8
:104BC0009324499270E1002080B584B002AF03467F
:104BD000FB71002300933A20282118220823FFF7B5
:104BE00021FCFB79012B0BD0022B10D0002B00D025
:104BF00014E03A202821174A0123FFF76BFB0DE050
:104C00003A202821144A0123FFF764FB06E03A20EA
:104C10002821124A0123FFF75DFB00BF39202F2115
:104C20001A220123FFF79AFB53202721092201238F
:104C3000FFF778FB5220272109220123FFF772FB9F
:104C4000074B1B78DBB2002B01D1FFF7CFF80837F9
:104C5000BD4680BD5C1F0108641F01086C1F010870
:104C600070E1002080B584B002AF0023FB717B4B64
:104C70009B78DBB27A4A82FB03129211DB17D31ABC
:104C8000BB71764B9B78DBB21A46BB79754901FB49
:104C900003F31344744A82FB03125211DB17D31A35
:104CA0007B716E4B9B78DBB21A46BB796D4901FB79
:104CB00003F31A447B796FF0630101FB03F31344A0
:104CC0006A4A82FB03129210DB17D31A3B71634BC3
:104CD0009B78DAB27B79194689001944C900CB1A4E
:104CE0009B00D9B2BB79184640000344DB00DBB21D
:104CF0000B44DBB21344DAB23B7919464901C91AB5
:104D00008900CB1A5B00DBB21344FB7000230093D5
:104D10001020002124221023FFF784FBBB79002BF5
:104D200009D0BB79102000211A460123FFF79CFB14
:104D3000FB790133FB717B79002B15D0FB799BB29A
:104D40001A46520013449B009BB210339BB29BB295
:104D50001AB27B79104600211A460123FFF784FB23
:104D6000FB790133FB7116E0FB79002B13D0FB7943
:104D70009BB21A46520013449B009BB210339BB265
:104D80009BB21BB21846002100220123FFF76CFBE7
:104D9000FB790133FB713B79002B15D0FB799BB27A
:104DA0001A46520013449B009BB210339BB29BB235
:104DB0001AB23B79104600211A460123FFF754FB33
:104DC000FB790133FB7116E0FB79002B13D0FB79E3
:104DD0009BB21A46520013449B009BB210339BB205
:104DE0009BB21BB21846002100220123FFF73CFBB7
:104DF000FB790133FB71FB78002B12D0FB799BB25E
:104E00001A46520013449B009BB210339BB29BB2D4
:104E10001AB2FB78104600211A460123FFF724FB43
:104E200011E0FB799BB21A46520013449B009BB2DF
:104E300010339BB29BB21AB2FB78104600211A467F
:104E40000123FFF711FB0A4B1B78DBB2002B01D1CA
:104E5000FEF7CCFF0837BD4680BD00BF94DE0020C2
:104E6000D34D621018FCFFFF1F85EB516766666625
:104E700070E1002080B584B000AF0346FB71FB7980
:104E8000012B0ED0022B0ED0002B0ED1FCF7F0FA26
:104E90000346FB73FB7B2A2B01D1002306E0012391
:104EA00004E0012302E0012300E00123184610374B
:104EB000BD4680BD80B483B000AF0346FB71FB7973
:104EC000012B08D0022B08D0002B02D000BF0123F9
:104ED00004E0002302E0002300E0002318460C3722
:104EE000BD465DF8047B704780B586B000AFB96001
:104EF0007A600246FA73BB73BB7B002B01D104239B
:104F00002BE0FB7B012B24D0022B24D0002B00D0E4
:104F100022E0BB7B012B0AD17B685B02B868194693
:104F20004FF40072FDF734F80346FB750AE07B6826
:104F30005A02BB7BB86811464FF40072FDF7C0F906
:104F40000346FB75FB7D2A2B01D1002305E00123DD
:104F500003E000BF00E000BF012318461837BD463C
:104F600080BD00BF80B586B000AFB9607A600246F0
:104F7000FA73BB73BB7B002B01D1042327E0FB7BBF
:104F8000002B02D0022B20D020E0BB7B012B0AD1CA
:104F90007B685B02B86819464FF40072FDF776FB38
:104FA0000346FB750AE07B685A02BB7BB868114672
:104FB0004FF40072FDF7C2FD0346FB75FB7D2A2B03
:104FC00001D1002303E0012301E000BF01231846C3
:104FD0001837BD4680BD00BF80B483B000AF0B461C
:104FE0003A600246FA71BB71FB79002B01D00423B1
:104FF00038E0BB790E2B34D801A252F823F000BF61
:105000003D5000084150000863500008555000080A
:1050100063500008635000086350000863500008A4
:105020006350000863500008635000086350000894
:10503000635000086350000863500008002311E02B
:105040000B4B5A6C0A4B9B6CB2FBF3F23B681A6039
:10505000002307E0064B9B6C9AB23B681A80002342
:1050600000E0042318460C37BD465DF8047B70470A
:1050700090D1002080B400AF00231846BD465DF8F3
:10508000047B704780B489B000AF7860396000233A
:10509000FB6100233B610023BB610023FB60002315
:1050A0007B610023BB603B68DB7803F00F03FB618F
:1050B0003B68DB7803F01003002B04D03B689B783F
:1050C000FA691343FB613B681B88DBB2002B44D0B9
:1050D0007B681B687B610023BB6138E0BB690122F0
:1050E00002FA03F3FB603B681B881A46FB68134017
:1050F0003B613A69FB689A4226D1BB699B00FB6021
:10510000FB680F2202FA03F3BB60BB68DB437A69DA
:1051100013407B61FB68FA6902FA03F37A6913436F
:105120007B613B68DB78282B05D1BB6901229A4063
:105130007B685A6108E03B68DB78482B04D1BB6987
:1051400001229A407B681A61BB690133BB61BB696C
:10515000072BC3D97B687A691A603B681B88FF2BD1
:1051600046D97B685B687B610023BB613AE0BB6921
:105170000833012202FA03F3FB603B681B881A46DE
:10518000FB6813403B613A69FB689A4227D1BB69CF
:105190009B00FB60FB680F2202FA03F3BB60BB6855
:1051A000DB437A6913407B61FB68FA6902FA03F317
:1051B0007A6913437B613B68DB78282B05D1BB6997
:1051C000083301229A407B685A613B68DB78482BA0
:1051D00005D1BB69083301229A407B681A61BB691B
:1051E0000133BB61BB69072BC1D97B687A695A60FF
:1051F0002437BD465DF8047B704700BF80B483B0A0
:1052000000AF78607B684FF6FF721A807B680222DD
:105210009A707B680422DA700C37BD465DF8047B17
:10522000704700BF80B485B000AF78600B467B80CC
:105230000023FB737B689A687B881340002B02D0A5
:105240000123FB7301E00023FB73FB7B184614373B
:10525000BD465DF8047B704780B485B000AF7860D0
:105260000B467B800023FB737B68DA687B881340E6
:10527000002B02D00123FB7301E00023FB73FB7BB7
:1052800018461437BD465DF8047B704780B483B080
:1052900000AF78600B467B807A887B681A610C3798
:1052A000BD465DF8047B704780B483B000AF786082
:1052B0000B467B807A887B685A610C37BD465DF867
:1052C000047B704780B487B000AF78600B46FB70FA
:1052D00000233B610023FB6000237B610023BB6054
:1052E0007B68002B03DA2E4BDB697B6102E02C4BE1
:1052F0005B687B617B6803F470231B0CBB607B687D
:105300009BB23B617B6803F44013B3F5401F0AD1A5
:105310007B6923F070637B61214B214A526822F044
:1053200070625A6021E07B6803F48013002B0ED07A
:10533000BB68032202FA03F3FB60FB68DB437A6974
:1053400013407B617B6943F070637B610DE07B6898
:105350005B0D1B013A6902FA03F3DB437A691340E0
:105360007B617B6943F070637B61FB78002B08D025
:105370007B685B0D1B013A6902FA03F37A691343F8
:105380007B617B68002B03DA054B7A69DA6102E006
:10539000034B7A695A601C37BD465DF8047B704741
:1053A0000000014090B484B000AF02460B46FA7191
:1053B000BB710023FB60BB7903F003039B000F224A
:1053C00002FA03F3FB60154BBA799208D2B2134983
:1053D000B8798008C0B2023051F82000F968C9439A
:1053E0000140023243F822100C4BBA799208D2B233
:1053F0000A49B8798008C0B2023051F82000FC791F
:10540000B97901F00301890004FA01F10143023284
:1054100043F822101037BD4690BC70470000014091
:1054200080B485B000AF786039600023FB60002352
:10543000BB60134B1B68FB607B6840F6FE7202FA90
:1054400003F3DB43FA681340FB603B681A683B6870
:105450005B681A433B689B681A433B68DB681343ED
:10546000BB607B68BA6802FA03F3FA681343FB6017
:10547000034BFA681A601437BD465DF8047B704729
:105480000074004080B483B000AF78600B46FB70BE
:10549000FB78002B09D00C4B0B4A11687A6801206D
:1054A00000FA02F20A431A6009E0074B064A116843
:1054B0007A68012000FA02F2D2430A401A600C37DF
:1054C000BD465DF8047B70470074004080B483B033
:1054D00000AF0346FB71084B97F907205209F97991
:1054E00001F01F01012000FA01F143F822100C37EE
:1054F000BD465DF8047B704700E100E080B483B0F6
:1055000000AF03463960FB7197F90730002B0BDAC7
:105510000D49FB7903F00F03043B3A68D2B2120144
:10552000D2B20B441A7609E0084997F907303A6875
:10553000D2B21201D2B20B4483F800230C37BD461D
:105540005DF8047B704700BF00ED00E000E100E083
:1055500080B58AB004AF0A20022107F021FC024680
:10556000444B1A6001F02EFC0420012103F0AAFC38
:10557000A0233B820323BB741023FB7407F11003A9
:105580003D481946FFF77EFD1020012103F09AFCEB
:1055900042F210033B8207F1100338481946FFF727
:1055A00071FD36488021FFF771FE34484FF40051F9
:1055B000FFF76CFE0820012103F084FC02233B82EC
:1055C00007F110032E481946FFF75CFD2C48022115
:1055D000FFF76AFE29481021FFF766FE012001212E
:1055E00003F070FC02200721FFF7DCFE8023BB6084
:1055F00000233B7310237B730123BB7307F1080364
:10560000184604F0E9F817233B710E237B710E2333
:10561000BB710123FB713B1D18460AF081FC082079
:10562000012103F04FFC4FF480633B8207F110032C
:1056300013481946FFF726FD0BF08AF80BF00CF81B
:105640000BF0E6F80AF088FF0BF072F90AF0CEFED4
:105650000AF006FF02F0F8FF03461A46094B1A70DB
:10566000084B1B78DAB2084B1A700BF0E1F90023F3
:105670007B6114E048E00020000801400010014078
:10568000000C01405CE10020F8E000207B69013360
:105690007B617B69013B7B617B6901337B617A695B
:1056A000AF4B9A42F2DDFBF7E3FE03461A46AD4BE1
:1056B0001A70AD48FCF70AF9AB4BB3F84C301B0439
:1056C0001846FCF73FFCA948FEF7B0FA0020A849AD
:1056D00009F0B8FB4FF416500BF024FC0AF0D0FD93
:1056E00000F034FF0AF056FE0120002107F058FBBD
:1056F0000246A04B1A609F4B1B68002B07D09D4BA6
:105700001B68184600210022002307F0A5FB01209A
:10571000002107F045FB0246974B1A60964B1B6829
:10572000002B07D0944B1B68184600210022002351
:1057300007F092FB0120002107F032FB02468F4B5D
:105740001A608E4B1B68002B07D08C4B1B681846C9
:1057500000210022002307F07FFB0120002107F039
:105760001FFB0246864B1A60854B1B68002B07D037
:10577000834B1B68184600210022002307F06CFBB6
:105780000120002107F00CFB02467E4B1A607D4B86
:105790001B68002B07D07B4B1B681846002100229A
:1057A000002307F059FB0120002107F0F9FA024617
:1057B000754B1A60744B1B68002B07D0724B1B682B
:1057C000184600210022002307F046FB012000219B
:1057D00007F0E6FA02466D4B1A606C4B1B68002B13
:1057E00007D06A4B1B68184600210022002307F0EF
:1057F00033FB0120002107F0D3FA0246644B1A6004
:10580000634B1B68002B07D0614B1B6818460021B7
:105810000022002307F020FB0120002107F0C0FA3E
:1058200002465C4B1A605B4B1B68002B07D0594B40
:105830001B68184600210022002307F00DFB012001
:10584000002107F0ADFA0246534B1A60524B1B6819
:10585000002B07D0504B1B68184600210022002364
:1058600007F0FAFA0120002107F09AFA02464B4BA2
:105870001A604A4B1B68002B07D0484B1B68184620
:1058800000210022002307F0E7FA0120002107F0A1
:1058900087FA0246424B1A60414B1B68002B07D027
:1058A0003F4B1B68184600210022002307F0D4FA62
:1058B0000120002107F074FA02463A4B1A60394B76
:1058C0001B68002B07D0374B1B68184600210022AD
:1058D000002307F0C1FA0120002107F061FA024617
:1058E000314B1A60304B1B68002B07D02E4B1B68C6
:1058F000184600210022002307F0AEFA0120002103
:1059000007F04EFA0246294B1A60284B1B68002B01
:1059100007D0264B1B68184600210022002307F001
:105920009BFA012300930023019300230293002399
:1059300003931F481F494FF40072002303F0C8FF70
:105940000323009300230193002302930023039376
:1059500019481A494FF40072002303F0B9FF2FE0F1
:105960009F860100B402002090D100204CE000206E
:105970004CD400205CE0002078DE002020E10020F4
:105980008CDE002070DE002060E0002090DE002031
:105990000CE00020D8E1002028E1002068E0002091
:1059A0007CDE0020F4E00020D8E00020D4E00020DD
:1059B000855A0008EC210108E1620008FC21010879
:1059C00000230093002301930023029300230393F9
:1059D000224823494FF48072002303F079FF00230B
:1059E00000930023019300230293002303931D4897
:1059F0001D494FF48072002303F06AFF00230093D7
:105A000000230193002302930023039317481849AE
:105A10004FF48072002303F05BFF00230093002308
:105A200001930023029300230393124812494FF479
:105A30008072002303F04CFF0023009300230193A6
:105A400000230293002303930C480D494FF4807206
:105A5000002303F03DFF04F025F8FEE76D61000828
:105A600008220108BD5D00081C220108515D0008E4
:105A700028220108E55C000834220108795C00084E
:105A80004022010880B588B004AF786003F0A0FA26
:105A900002F06EF90346002B28D101F07BFF03468C
:105AA000002B40D002F00EF9664B1B78DBB2184693
:105AB00001F064FA634BDB78DAB2624B9A70614BA7
:105AC0005B78DBB2184601F071FA5E4B9B79DBB272
:105AD000184601F08BFA5B4B9B899AB2594BDA81DD
