:020000040800F2
:10000000A8E4002095410008F5410008F5410008EA
:10001000F5410008F5410008F54100080000000026
:100020000000000000000000000000001DF90008B2
:10003000F541000800000000EDF9000829FA000869
:10004000F5410008F5410008F541000889AE0008B7
:10005000F5410008F5410008F5410008F5410008A8
:10006000F5410008F5410008F5410008F541000898
:10007000F5410008F5410008F541000865890008D0
:10008000F5410008F5410008A1AB0008F541000862
:10009000F5410008F5410008F541000839AC0008B9
:1000A000F5410008F5410008F5410008F541000858
:1000B00075D000082DD30008C5D50008F54100080B
:1000C000F5410008F5410008F5410008F541000838
:1000D000F541000805290108652A0108F5410008D5
:1000E000F5410008F5410008F5410008F541000818
:1000F00065DD0008F541000825DD0008F541000830
:10010000F5410008F54100085DD80008F5410008F8
:10011000F5410008F5410008F541000805DB00083D
:10012000F5410008118A0008AD890008F541000872
:100130005FF808F180B485B000AF02460B46FA7153
:10014000BB71FB79DB08FB73FB7B1A465201D31AA8
:10015000DB00DAB2FB791344BB73BB79002B12D0FE
:10016000FB7BFA7B14498A5CD2B2D1B2BA7BC2F172
:100170000702012000FA02F2D2B20A43D2B2D1B28F
:100180000D4AD15413E0FB7BFA7B0B498A5CD2B257
:10019000D1B2BA7BC2F10702012000FA02F2D2B258
:1001A000D243D2B20A40D2B2D1B2034AD1541437A8
:1001B000BD465DF8047B7047D8CD002080B582B085
:1001C00000AF0023FB7170E012F054FD0346BB71D9
:1001D000BB79DBB2652B38D0652B04DC302B0ED01D
:1001E000312B1FD061E0682B02D0742B32D05CE041
:1001F000334B01221A70334B00221A8055E0304BEA
:100200001B78DBB2002B0CD02E4B1B889BB25A1CE8
:1002100091B22C4A1180DBB218460021FFF78AFF09
:1002200043E042E0264B1B78DBB2002B0CD0254B81
:100230001B889BB25A1C91B2224A1180DBB218462D
:100240000121FFF777FF30E02FE01D4B00221A70ED
:10025000032330E01A4B1B78DBB2002B21D0194B63
:100260001B889BB2002B1CD0164B1B889BB2182BF3
:100270000DD0182B02DC0E2B06D00BE0682B06D01D
:10028000B3F59C7F03D005E00123FB7104E002235A
:10029000FB7101E00323FB71094B00221A70FB790B
:1002A00009E0074B00221A7000BF12F011FD03464F
:1002B000002B89D1FB7918460837BD4680BD00BFA9
:1002C000200300202203002080B485B000AF034645
:1002D000FB71FB79DB08FB73FB7B1A465201D31AD7
:1002E000DB00DAB2FB791344BB73FB7B0A4AD35CB5
:1002F000DBB21A46BB7BC3F1070342FA03F303F0F8
:100300000103002B01D0012300E00023184614371D
:10031000BD465DF8047B7047D8CD0020B0B58CB0E9
:1003200002AFFFF74BFF0346032B00F2478301A206
:1003300052F823F0BD090008450300087F030008B8
:10034000BD0900080020FFF7BFFF0346002B15D1B1
:1003500000F044FB0246B24B11461970C2F307216C
:100360005970C2F307429A70AD4B18680AF09CFCB2
:1003700012F04AFCAB4B00221A701FE31EE3AA4C9A
:100380003B46184600F060FB3D460FCD0FC40FCD35
:100390000FC495E8030084E80300A34B1B78DBB28D
:1003A000803B292B00F2048301A252F823F000BF06
:1003B000B1090008B1090008B109000835090008B1
:1003C000B1090008B1090008B10900085904000882
:1003D000B1090008B1090008B1090008B109000815
:1003E000B1090008B1090008B1090008B109000805
:1003F000B1090008B1090008B1090008B1090008F5
:10040000B1090008B1090008B1090008B1090008E4
:10041000B1090008B1090008B1090008B1090008D4
:10042000B1090008B1090008B1090008B1090008C4
:10043000B1090008B1090008B1090008B1090008B4
:10044000B1090008B1090008B1090008B1090008A4
:10045000B1090008B1090008734B5B78DBB2012BCE
:1004600000F05082022B00D0A2E26F4B1B7ADBB26D
:10047000042B00F2458201A252F823F091040008F7
:10048000990700081B080008B9080008C9080008F7
:10049000664BD3F87821644BDB689A4213D1644BE6
:1004A0001B78DBB2002B0ED05F4B9B79DAB2614B2D
:1004B0001B78DBB29A4205D05B4B9B79DAB25D4B7D
:1004C0001A7065E164E1594BD3F87821564BDB682B
:1004D0009A4240F0BB80564B1B78DBB2002B40F0B9
:1004E000B580534B01221A70504B00225A814E4B5B
:1004F000DB79DAB24D4B9A7005F0A0FA05F0F8FA04
:1005000005F042FA484B9B79DAB24A4B1B78DBB2D2
:100510009A423FD0444B9B79DBB2002B0AD00AF0C1
:1005200039FF454B1B6818460021002200230EF0BE
:1005300053FF29E0404B1B68184600214FF4167208
:1005400000230FF00FF80346012B1DD13B4B1B6816
:10055000184600214FF4167200230FF003F80346EB
:10056000012B11D1802300930023019334480021F3
:100570000022802305F07EF8304B1B6818460021CE
:10058000002200230EF028FF274B9B79DAB2294B7B
:100590001A7043E0274B1B78DBB2002B3ED1274B70
:1005A0001B68184600214FF4167200230EF0DAFF84
:1005B0000346012B32D1802300930023019320486E
:1005C00000210022802305F055F81C4B1B681846BB
:1005D0000021002200230EF0FFFE1A48802105F0C2
:1005E000B7FC0346012B19D1144B1B681846002198
:1005F0004FF4167200230EF0B5FF0346012B0DD108
:1006000011481021202204F0C5FF0C4B1B6818462E
:100610000021002200230EF0DFFEB9E0B8E000BFA9
:10062000D4CD0020200300202403002050DB002034
:100630004C030020A8DD002090DD0020E8DD002034
:10064000A8F202080010014028DD0208AE4BD3F8E2
:100650007821AE4BDB689A4200F09A80AB4BDA68A7
:10066000A94BC3F87821A84B9B899AB2A64BDA8193
:10067000A54B00221A76A64B1B68184600210022C3
:1006800000230EF0A9FEA34B1B68184600214FF46F
:10069000167200230EF066FF0346012B09D109F004
:1006A00065FD9C4B1B6818460021002200230EF0BC
:1006B00093FE954B00225A81944BDB79DAB2924B30
:1006C0009A70924B9B79DAB2934B1B78DBB29A42C9
:1006D00014D08E4B9B79DBB2002B09D00AF05AFE66
:1006E0008E4B1B6818460021002200230EF074FE7A
:1006F000864B9B79DAB2884B1A7049E0864B1B789F
:10070000DBB2002B06D005F099F905F0F1F905F000
:100710003BF93DE0824B1B68184600214FF41672EE
:1007200000230EF01FFF0346012B11D180230093FD
:10073000002301937B4800210022802304F09AFFCC
:10074000774B1B6818460021002200230EF044FE60
:100750007548802105F0FCFB0346012B18D1704B36
:100760001B68184600214FF4167200230EF0FAFEA3
:100770000346012B0CD16D481021202204F00AFF02
:10078000674B1B6818460021002200230EF024FE50
:10079000674B01221A70B4E05C4BDA685A4BC3F81D
:1007A0007821594B9B899AB2574BDA81564B0022DC
:1007B0001A76574B1B6818460021002200230EF0C2
:1007C0000BFE544B1B68184600214FF41672002391
:1007D0000EF0C8FE0346012B09D109F0C7FC4D4BB2
:1007E0001B6818460021002200230EF0F5FD464B41
:1007F00000225A81454BDB79DAB2434B9A700AF0FA
:10080000C9FD464B1B6818460021002200230EF04C
:10081000E3FD414B01221A7073E03F4B00221A7036
:100820003E4B1B68184600214FF4167200230EF051
:1008300099FE0346012B1DD1394B1B681846002138
:100840004FF4167200230EF08DFE0346012B11D1DA
:10085000802300930023019332480021002280234B
:1008600004F008FF2E4B1B681846002100220023CD
:100870000EF0B2FD2C48802105F06AFB0346012BE7
:1008800019D1274B1B68184600214FF4167200231C
:100890000EF068FE0346012B0DD1244810212022C2
:1008A00004F078FE1E4B1B6818460021002200232E
:1008B0000EF092FD25E024E0144BDB79DAB2124B06
:1008C0009A7005F061F81CE0104B1B79DBB21846FA
:1008D00008F06CFD0D4B5B79DBB2184608F07EFD2D
:1008E0000A4B9B79DAB20C4B1B78DBB29A4204D0EC
:1008F000064B9B79DAB2084B1A70074B1B7800E065
:1009000000BF00E000BF53E050DB002024030020C4
:1009100034DB00208CDD0020A8DD002090DD0020ED
:10092000E8DD0020A8F202080010014028DD0208DE
:100930004C030020234B5B78DBB2002B36D0052B19
:1009400000D034E0204BDB78DAB21F4B9A701E4B9C
:100950009B899AB21C4BDA811B4BDB899BB2082026
:10096000194611F05BFF184B00225A81164B5B8928
:100970009BB20420194611F051FF0AF00BFD134BF6
:100980001B6818460021002200230EF025FD0E4BA7
:1009900003221A760E4B1B68184600210022002302
:1009A0000EF01AFD0B4B01221A7000E000BF00BFD1
:1009B00012F02AF9084B00221A7000BF2837BD46F2
:1009C000B0BD00BF2403002050DB002090DD0020DC
:1009D00034DB0020A8DD00202003002080B483B099
:1009E00000AF174B1B78DBB23B70154B5B78FB718C
:1009F000FB799B00FB71FB791B09FB71FB79114AA9
:100A0000D35CBB700E4B5B78DBB29B09DBB27B70B7
:100A10003B1D3A461268114619800233120C1A70B7
:100A200000233A7962F307037A7962F30F23BA79E4
:100A300062F3174318460C37BD465DF8047B7047D8
:100A4000D8CD0020FC3F0108B0B48FB000AF786073
:100A50002F4B1B78DBB23B732D4B5B78DBB27B7388
:100A60002B4B9B78DBB2BB733B7B872B00D03EE0EC
:100A70007B7B022B00D039E0254BDB78DBB23B746B
:100A8000234B1B79DBB27B74214B5B79DBB2BB74EC
:100A90001F4B9B79DBB2FB741D4BDB79DBB23B75E3
:100AA00007F10C030C337B63194B1B7ADAB27B6BB7
:100AB0001A707B6B01337B63154B5B7ADAB27B6B0D
:100AC0001A707B6B01337B63114B9B7ADAB27B6BC1
:100AD0001A707B6B01337B630D4BDB7ADAB27B6B75
:100AE0001A700B4B1B7BDBB23B7700BF00BF7B68F0
:100AF0001C4607F10C050FCD0FC40FCD0FC495E8B0
:100B0000030084E8030078683C37BD46B0BC7047FA
:100B1000D8CD002080B483B000AF02460B46FA80E7
:100B20007B717B79002B08D00B4B0B4A128891B25A
:100B3000FA880A4392B21A8009E0074B064A1288E3
:100B400091B2FA88D24392B20A4092B21A800C371C
:100B5000BD465DF8047B70470028004080B400AFBC
:100B6000054B054A928892B242F0100292B29A80E6
:100B7000BD465DF8047B70470028004080B400AF9C
:100B8000054B054A928892B222F0100292B29A80E6
:100B9000BD465DF8047B70470028004080B483B0F8
:100BA00000AF0023FB80074B9B8BFB80054B1B8B0F
:100BB0009BB21A04FB88134318460C37BD465DF8F8
:100BC000047B70470028004080B582B000AF786099
:100BD000FFF7C4FF064B7A68120C92B21A83044BDB
:100BE0007A6892B29A83FFF7C9FF0837BD4680BD85
:100BF0000028004080B582B000AF7860FFF7AEFFFC
:100C0000074B7A6802F47022120C92B21A81044BDC
:100C10007A6892B29A81FFF7B1FF0837BD4680BD6E
:100C20000028004080B400AF00BF054B9B889BB2FA
:100C300003F02003002BF8D0BD465DF8047B70471D
:100C40000028004080B400AF094B094A928892B254
:100C500022F0080292B29A8000BF054B9B889BB29B
:100C600003F00803002BF8D0BD465DF8047B704705
:100C70000028004080B485B000AF0346FB8000230D
:100C8000FB730F4B9B889BB2DAB2FB88DBB213403D
:100C9000FB730B4B1B889AB2FB8813409BB2002B53
:100CA00005D0FB7B002B02D00123FB7301E0002366
:100CB000FB73FB7B18461437BD465DF8047B704719
:100CC0000028004080B483B000AF0346FB80074B90
:100CD000064A928891B2FA88D24392B20A4092B2FE
:100CE0009A800C37BD465DF8047B704700280040B1
:100CF00080B582B000AF78607A68784B9A420AD1AA
:100D00004FF4006001210AF037FD4FF4006000212C
:100D10000AF032FDDEE07B68B3F1804F08D101209C
:100D200001210AF047FD012000210AF043FDD1E036
:100D30007A686B4B9A4208D1022001210AF03AFDF1
:100D4000022000210AF036FDC4E07A68654B9A4221
:100D500008D1042001210AF02DFD042000210AF011
:100D600029FDB7E07A68604B9A4208D1082001213A
:100D70000AF020FD082000210AF01CFDAAE07A6894
:100D80005A4B9A4208D1102001210AF013FD10207D
:100D900000210AF00FFD9DE07A68554B9A4208D178
:100DA000202001210AF006FD202000210AF002FD8A
:100DB00090E07A684F4B9A420AD14FF400500121DB
:100DC0000AF0DAFC4FF4005000210AF0D5FC81E073
:100DD0007A68494B9A420AD14FF4002001210AF067
:100DE000CBFC4FF4002000210AF0C6FC72E07A68C8
:100DF000424B9A420AD14FF4801001210AF0BCFC08
:100E00004FF4801000210AF0B7FC63E07A683C4B95
:100E10009A420AD14FF4001001210AF0ADFC4FF4C0
:100E2000001000210AF0A8FC54E07A68354B9A4281
:100E300008D1402001210AF0BDFC402000210AF029
:100E4000B9FC47E07A68304B9A4208D180200121F2
:100E50000AF0B0FC802000210AF0ACFC3AE07A688D
:100E60002A4B9A420AD14FF4807001210AF0A2FC69
:100E70004FF4807000210AF09DFC2BE07A68244B2F
:100E80009A420AD14FF4803001210AF075FC4FF4E8
:100E9000803000210AF070FC1CE07A681D4B9A42F9
:100EA0000AD14FF4003001210AF066FC4FF4003003
:100EB00000210AF061FC0DE07A68174B9A4209D1D3
:100EC0004FF4802001210AF057FC4FF480200021CC
:100ED0000AF052FC0837BD4680BD00BF002C01401F
:100EE0000004004000080040000C004000100040DA
:100EF0000014004000340140004C0140005001400B
:100F00000054014000180040001C00400020004038
:100F100000400140004401400048014080B485B0D9
:100F200000AF786039600023FB817B681B88FB8100
:100F30007A682E4B9A4213D07A682D4B9A420FD082
:100F40007B68B3F1804F0BD07A682A4B9A4207D066
:100F50007A68294B9A4203D07A68284B9A4208D182
:100F6000FB8923F07003FB813B685A88FB8913439C
:100F7000FB817A68224B9A420CD07A68214B9A42C4
:100F800008D0FB8923F44073FB813B68DA88FB8936
:100F90001343FB817B68FA891A803B689A887B68D7
:100FA0009A853B681A887B681A857A680F4B9A4243
:100FB0000FD07A680E4B9A420BD07A68124B9A4245
:100FC00007D07A68114B9A4203D07A68104B9A4244
:100FD00004D13B681B7A1A467B681A867B6801221B
:100FE0009A821437BD465DF8047B7047002C01409F
:100FF000003401400004004000080040000C0040A4
:101000000010004000140040004001400044014036
:101010000048014080B485B000AF7860396000239B
:101020007B810023FB810023BB817B681B8C9BB2EF
:1010300023F001039AB27B681A847B681B8CFB81C6
:101040007B689B88BB817B681B8B7B817B8923F0C2
:1010500070037B817B8923F003037B813B681A88C3
:101060007B8913437B81FB8923F00203FB813B686F
:101070001A89FB891343FB813B685A88FB89134318
:10108000FB817A68244B9A420FD07A68234B9A42AC
:101090000BD07A68224B9A4207D07A68214B9A4249
:1010A00003D07A68204B9A4223D1FB8923F00803AE
:1010B000FB813B685A89FB891343FB81FB8923F041
:1010C0000403FB813B689A88FB891343FB81BB893E
:1010D00023F48073BB81BB8923F40073BB813B681D
:1010E0009A89BB891343BB813B68DA89BB89134367
:1010F000BB817B68BA899A807B687A891A833B684E
:10110000DA887B689A867B68FA891A841437BD4628
:101110005DF8047B704700BF002C014000340140A3
:1011200000400140004401400048014080B485B0C7
:1011300000AF7860396000237B810023FB810023AE
:10114000BB817B681B8C9BB223F480739AB27B6853
:101150001A847B681B8CFB817B689B88BB817B68C6
:101160009B8B7B817B8923F070037B817B8923F0C0
:1011700003037B813B681A887B8913437B81FB894E
:1011800023F40073FB813B681B891B029AB2FB8925
:101190001343FB813B685B881B029AB2FB891343B4
:1011A000FB817A68224B9A4203D07A68214B9A429B
:1011B0002BD1FB8923F40063FB813B685B891B0215
:1011C0009AB2FB891343FB81FB8923F48063FB8183
:1011D0003B689B881B029AB2FB891343FB81BB8946
:1011E00023F48053BB81BB8923F40053BB813B684C
:1011F0009B891B019AB2BB891343BB813B68DB8986
:101200001B019AB2BB891343BB817B68BA899A8060
:101210007B687A899A833B68DA887B689A877B68DF
:10122000FA891A841437BD465DF8047B704700BF05
:10123000002C01400034014080B584B000AF7860DC
:1012400039600023FB810123BB813B685B88002B55
:1012500002D10223FB8101E00023FB813B689B88D4
:10126000012B02D10223BB8101E00123BB813B683A
:101270001B88002B1CD13B6859883B689A883B68C7
:101280001B89786800F04AFA3B68DB887868194661
:1012900000F088F93B681B89F989BA89786800F001
:1012A000A7FA3B68DB887868194600F097F91BE0DD
:1012B0003B6859883B689A883B681B89786800F0CE
:1012C00097FA3B68DB887868194600F087F93B6835
:1012D0001B89F989BA89786800F020FA3B68DB88B5
:1012E0007868194600F05EF91037BD4680BD00BF32
:1012F00080B483B000AF786039603B681A883B687F
:101300005B8813439AB23B689B8813439AB23B684D
:10131000DB8813439AB23B681B8913439AB23B683C
:101320005B8913439AB23B689B8913439AB27B68EB
:10133000A3F844200C37BD465DF8047B704700BF1E
:1013400080B483B000AF78607B684FF6FF729A80FC
:101350007B6800221A807B680022DA807B6800228A
:101360005A807B6800221A720C37BD465DF8047BF8
:10137000704700BF80B483B000AF78607B68002204
:101380001A807B6800225A807B6800229A807B68E2
:101390000022DA807B6800221A817B6800225A8151
:1013A0007B6800229A817B680022DA810C37BD4677
:1013B0005DF8047B704700BF80B483B000AF7860F5
:1013C0007B6800221A807B6800225A807B6800229A
:1013D0009A807B680022DA807B6800221A817B6811
:1013E00000225A817B6800229A810C37BD465DF845
:1013F000047B704780B483B000AF78600B46FB700D
:10140000FB78002B08D07B681B889BB243F001035C
:101410009AB27B681A8007E07B681B889BB223F036
:1014200001039AB27B681A800C37BD465DF8047BD5
:10143000704700BF80B483B000AF786013460A469F
:101440007A807B707B78002B08D07B689B899AB26E
:101450007B8813439AB27B689A8109E07B689B89F9
:101460009AB27B88DB439BB213409AB27B689A8125
:101470000C37BD465DF8047B704700BF80B483B075
:1014800000AF786013460A467A807B707B78002B29
:1014900008D07B689B899AB27B8813439AB27B6899
:1014A0009A8109E07B689B899AB27B88DB439BB277
:1014B00013409AB27B689A810C37BD465DF8047B75
:1014C000704700BF80B485B000AF78600B467B806A
:1014D0000023FB817B681B89FB81FB8923F0700360
:1014E000FB81FA897B881343FB817B68FA891A8127
:1014F0001437BD465DF8047B704700BF80B483B0ED
:1015000000AF78600B467B807B689B889BB223F0A2
:1015100070039AB27B689A807B689B889AB27B88BA
:1015200013439AB27B689A800C37BD465DF8047B02
:10153000704700BF80B483B000AF78600B467B80FB
:101540007B681B899BB223F007039AB27B681A81E0
:101550007B681B899AB27B8813439AB27B681A8195
:101560000C37BD465DF8047B704700BF80B483B084
:1015700000AF78600B467B807B681B899BB223F0B1
:1015800080039AB27B681A817B681B899AB27B8838
:1015900013439AB27B681A810C37BD465DF8047B11
:1015A000704700BF80B483B000AF78600B467B808B
:1015B0007B681B8B9BB223F00C039AB27B681A8367
:1015C0007B681B8B9AB27B8813439AB27B681A8321
:1015D0000C37BD465DF8047B704700BF80B483B014
:1015E00000AF78600B467B807B681B8B9BB223F43B
:1015F00040639AB27B681A837B681B8B9AB27B88A4
:101600001B029BB213439AB27B681A830C37BD4608
:101610005DF8047B704700BF80B483B000AF786092
:101620007B689B8E9BB218460C37BD465DF8047BE9
:10163000704700BF80B483B000AF78607B681B8FB9
:101640009BB218460C37BD465DF8047B704700BF5F
:1016500080B485B000AF78600B467B800023FB73BD
:101660007B681B8A9AB27B8813409BB2002B02D006
:101670000123FB7301E00023FB73FB7B1846143747
:10168000BD465DF8047B704780B483B000AF7860DE
:101690000B467B807B88DB439AB27B681A820C37CF
:1016A000BD465DF8047B704780B485B000AF7860BC
:1016B0000B467B800023FB730023BB8100237B81CF
:1016C0007B681B8A9AB27B881340BB817B689B89AD
:1016D0009AB27B8813407B81BB89002B05D07B8924
:1016E000002B02D00123FB7301E00023FB73FB7B83
:1016F00018461437BD465DF8047B704780B483B04C
:1017000000AF78600B467B807B88DB439AB27B68B6
:101710001A820C37BD465DF8047B704780B487B0F1
:1017200000AFF86079813A81FB800023BB820023FF
:10173000FB82FB681B8C9BB223F001039AB2FB680F
:101740001A84FB681B8BBB82FB681B8CFB82BB8AE9
:1017500023F0F303BB82FB881B019AB23B8913433E
:101760009AB2BB8A1343BB82FA681C4B9A4213D0CD
:10177000FA681B4B9A420FD0FB68B3F1804F0BD035
:10178000FA68184B9A4207D0FA68174B9A4203D06E
:10179000FA68164B9A420BD1FB8A23F00203FB82B4
:1017A0007A89FB8A13439BB243F00103FB820AE070
:1017B000FB8A23F00A03FB827A89FB8A13439BB2DC
:1017C00043F00103FB82FB68BA8A1A83FB68FA8A3A
:1017D0001A841C37BD465DF8047B7047002C01401D
:1017E000003401400004004000080040000C0040AC
:1017F00080B487B000AFF86079813A81FB80002324
:10180000BB820023FB8200237B82FB681B8C9BB284
:1018100023F010039AB2FB681A84FB681B8BBB820F
:10182000FB681B8CFB827B891B017B82BB8A23F4B8
:1018300040731B051B0DBB82FB881B039AB2BB8A3E
:101840001343BB823B891B029AB2BB8A1343BB8200
:10185000FA681C4B9A4213D0FA681B4B9A420FD07D
:10186000FB68B3F1804F0BD0FA68184B9A4207D04F
:10187000FA68174B9A4203D0FA68164B9A420BD17A
:10188000FB8A23F02003FB827A8AFB8A13439BB2F4
:1018900043F01003FB820AE0FB8A23F0A003FB82E3
:1018A0007A89FB8A13439BB243F01003FB82FB68E7
:1018B000BA8A1A83FB68FA8A1A841C37BD465DF817
:1018C000047B7047002C01400034014000040040BC
:1018D00000080040000C004080B582B000AF30200E
:1018E000012109F00DFF4FF4F853BB800323BB71B6
:1018F0001823FB713B1D1048194604F059FA0423C4
:10190000BB803B1D0D48194604F052FA0823BB80EA
:101910004823FB713B1D0948194604F049FA4FF46E
:101920008060012109F0CEFE0220012109F0CAFEEB
:101930000837BD4680BD00BF0010014000140140C3
:1019400080B500AF024810F0DBFC0346184680BDAE
:101950000020001080B58EB000AF78603960174865
:1019600010F0F8FC1648002110F082FC154BFB60CB
:101970007B683B6100237B613B689B08BB61002364
:10198000FB6180233B624FF400737B624FF4006382
:10199000BB620023FB624FF400533B6300237B6375
:1019A00007F10C030648194610F024FC04480121F5
:1019B00010F05EFC3837BD4680BD00BF00F000105F
:1019C000440402408080014080B58EB000AF786052
:1019D0003960174810F0BEFC1648002110F048FC92
:1019E000154BFB607B683B6110237B613B689B0868
:1019F000BB610023FB6180233B624FF400737B6279
:101A00004FF40063BB620023FB624FF400533B635F
:101A100000237B6307F10C030648194610F0EAFB2C
:101A20000448012110F024FC3837BD4680BD00BFBA
:101A300000F00010440402408080014080B582B074
:101A400000AF2A23FB71FFF747FF0EF017F800F0F5
:101A500053F80346FB71FB792A2B01D0FB7943E055
:101A600000F056F90346FB71FB792A2B01D0FB7974
:101A70003AE01F4B01221A751D4B00221A601C4BC5
:101A800000225A601A4B00229A60194B0022DA6039
:101A9000174B00221A6116480EF016F8FB792A2B14
:101AA00004D1144800F0FAF90346FB71FB792A2BA4
:101AB00008D1104BB3F84C301B04184600F02AFD37
:101AC0000346FB71FB792A2B05D14FF4006000F02F
:101AD00097FC0346FB71FB792A2B04D1002000F010
:101AE000FBFC0346FB71FB7918460837BD4680BDF9
:101AF00068CE002018CE002080B586B000AF2A2323
:101B0000FB7500233B610023FB600023BB600023C7
:101B10007B607C4BB2221A757A4B00221A60794B9B
:101B200000225A60774B00229A60764B0022DA60DE
:101B3000744B00221A6173480DF0C6FF03200EF0AB
:101B400001F801200DF0EEFF6F4B00221A606E4B82
:101B500000225A606C4B00229A606B4B0022DA60C4
:101B6000694B4FF480621A6167480EF03FF801F04C
:101B700095FD0346FB75FB7D2A2B01D0FB7DBDE067
:101B8000614B4FF4D5721A605F4B08225A605E4B6E
:101B900040229A605C4B0022DA605B4B4FF480621B
:101BA0001A6159480EF022F801F09EFD0346FB75BC
:101BB000FB7D2A2B06D1554B01221A604FF0804342
:101BC0007B6017E0504B00221A604F4B37225A605F
:101BD0004D4B40229A604C4B0022DA604A4B4FF446
:101BE00080621A6148480EF001F8372001F0B8FD14
:101BF0000346FB75444B00221A60434B37225A6060
:101C0000414B40229A60404B0022DA603E4B4FF439
:101C100080621A613C480DF0E9FF372001F0A0FD19
:101C20000346FB75FB7D2A2B67D14BE0364B002228
:101C30001A60354B37225A60334B40229A60324B40
:101C40000022DA60304B4FF480621A612E480DF0AA
:101C5000CDFF372001F084FD0346FB75FB7D2A2B69
:101C600001D0FB7D4AE07B6843F0004343F48013DE
:101C7000254A1360244B29225A60234B40229A6044
:101C8000214B0022DA60204B4FF480621A611E481B
:101C90000DF0ACFF01F034FE0346FB75FB7D2A2BF3
:101CA00001D0FB7D2AE000200DF0D8FF38613B69B0
:101CB000DB0F012B14BF00230123DBB2BB60FB68E9
:101CC0000133FB60BB68002B04D1FA684FF6FE734A
:101CD0009A42ABD9FA684FF6FE739A4203D91B2396
:101CE000FB75FB7D0AE03B6903F080433B613B6988
:101CF000002B02D0054B02221A60FB7D18461837D4
:101D0000BD4680BD68CE002000CE002050030020DC
:101D100080B582B000AF2A23FB710123BB800DF098
:101D200029FF0346002B03D12523FB71FB79A7E094
:101D3000554B1B68042B33D0544B00221A60534B75
:101D400002225A60514BC0229A60504B0022DA6046
:101D50004E4B4FF480621A614C480DF047FF01F082
:101D6000F7FD0346FB71FB792A2B01D0FB7987E055
:101D700000200DF073FF0246454B1A6004200DF061
:101D80006DFF0246424B5A6008200DF067FF024685
:101D90003F4B9A600C200DF061FF02463C4BDA602D
:101DA000394B1B68002B0BD0374B1B68012B07D01E
:101DB000354B1B68062B03D0334B1B68022B1ED1FF
:101DC000324B00221A60314B03225A602F4B4022C3
:101DD0009A602E4B0022DA602C4B4FF480621A611D
:101DE0002A480DF003FF3B1D0320194601F0E4FDD6
:101DF0000346FB71FB792A2B01D0FB7940E0224B93
:101E00001B68042B39D0BB881A46224B1A60BB884A
:101E10001B041A461D4B1A601C4B09225A601B4BAF
:101E2000C0229A60194B0022DA60184B4FF480628E
:101E30001A6116480DF0DAFE01F08AFD0346FB71C7
:101E4000FB792A2B01D0FB791AE000200DF006FF68
:101E50000246114B1A6004200DF000FF02460E4BA3
:101E60005A6008200DF0FAFE02460B4B9A600C20D7
:101E70000DF0F4FE0246084BDA602A23FB71FB7971
:101E800018460837BD4680BD5003002000CE002014
:101E900064030020740300205403002080B485B044
:101EA00000AF78602A23BB730023FB737C4B1B6855
:101EB000DAB27B6883F84E207A4B1B689AB27B6853
:101EC000A3F84C20784B1B681B0EFB73FB7B9B0914
:101ED000DAB27B681A70FB7B03F03C039B10DAB22A
:101EE0007B685A70FB7B03F00303DAB27B689A705D
:101EF0006D4B1B6803F47F031B0CFB737B68FA7B41
:101F0000DA70694B1B6803F47F431B0AFB737B6821
:101F1000FA7B1A71644B1B68FB737B68FA7B5A71FE
:101F2000614B5B681B0EFB73FB7B9BB21B019AB280
:101F30007B68DA805C4B5B6803F47F031B0CFB73EC
:101F40007B68DB889AB2FB7B1B09DBB213439AB236
:101F50007B68DA80FB7B03F00F03DAB27B681A72CE
:101F6000514B5B6803F47F431B0AFB73FB7BDB096C
:101F7000DAB27B685A72FB7B03F040039B11DAB242
:101F80007B689A72FB7B03F020035B11DAB27B68FB
:101F9000DA72FB7B03F010031B11DAB27B681A7351
:101FA0007B6800225A733E4B1B68002B03D03C4BCE
:101FB0001B68012B7AD1FB7B03F003039B021A46BB
:101FC0007B681A61384B5B68FB737B681A69FB7B23
:101FD0009B001A437B681A61334B9B681B0EFB7393
:101FE0007B681A69FB7B9B09DBB21A437B681A6129
:101FF000FB7B03F03803DB10DAB27B681A75FB7BDE
:1020000003F00703DAB27B685A75274B9B6803F429
:102010007F031B0CFB73FB7B5B09DAB27B689A7551
:10202000FB7B03F01C039B10DAB27B68DA75FB7B49
:1020300003F00303DBB25B00DAB27B681A761A4B5B
:102040009B6803F47F431B0AFB737B681B7EDAB239
:10205000FB7BDB09DBB21343DAB27B681A767B6861
:102060001B695A1C7B685A647B685A6C7B681B7EB0
:10207000DBB202339A407B685A647B681B7ADBB21E
:10208000012202FA03F31A467B689A647B685B6C50
:102090007A68926C02FB03F27B685A643BE000BFF3
:1020A000500300207403002054030020A94B1B6838
:1020B000022B30D1A84B5B68FB73FB7B03F03F0323
:1020C0001B041A467B681A61A34B9B681B0EFB73AB
:1020D0007B681A69FB7B1B021A437B681A619E4B63
:1020E0009B6803F47F031B0CFB737B681A69FB7B03
:1020F0001A437B681A61984B9B6803F47F431B0A61
:10210000FB737B681B690133DA047B685A647B6864
:102110004FF400729A64FB7B03F040039B11DAB228
:102120007B685A76FB7B03F03F03DBB25B00DAB2DD
:102130007B689A76884B9B68FB737B689B7EDAB2E0
:10214000FB7BDB09DBB21343DAB27B689A76FB7B5D
:1021500003F07F03DAB27B68DA767F4BDB681B0E15
:10216000FB73FB7BDB09DAB27B681A77FB7B03F03E
:1021700060035B11DAB27B685A77FB7B03F01C03C8
:102180009B10DAB27B689A77FB7B03F00303DBB228
:102190009B00DAB27B68DA776F4BDB6803F47F036E
:1021A0001B0CFB737B68DB7FDAB2FB7B9B09DBB22A
:1021B0001343DAB27B68DA77FB7B03F020035B1111
:1021C000DAB27B6883F820207B68002283F8212024
:1021D000FB7B03F00103DAB27B6883F822205E4BBD
:1021E000DB6803F47F431B0AFB73FB7BDB09DAB27A
:1021F0007B6883F82320FB7B03F040039B11DAB25A
:102200007B6883F82420FB7B03F020035B11DAB2A8
:102210007B6883F82520FB7B03F010031B11DAB2E7
:102220007B6883F82620FB7B03F00C039B10DAB25B
:102230007B6883F82720FB7B03F00303DAB27B681B
:1022400083F82820444BDB68FB73FB7B5B08DAB226
:102250007B6883F829207B68012283F82A203F4B82
:102260001B681B0EFB737B68FA7B83F82C203B4BAF
:102270001B6803F47F031B0CFB73FB7B9BB21B02ED
:102280009AB27B68DA85354B1B6803F47F431B0ADF
:10229000FB737B68DB8D9AB2FB7B9BB213439AB2D4
:1022A0007B68DA852D4B1B68FB73FB7B1B061A468C
:1022B0007B681A63294B5B681B0EFB737B681A6B88
:1022C000FB7B1B041A437B681A63244B5B6803F493
:1022D0007F031B0CFB737B681A6BFB7B1B021A438F
:1022E0007B681A631D4B5B6803F47F431B0AFB7317
:1022F0007B681A6BFB7B1A437B681A63174B5B681E
:10230000FB737B68FA7B83F83420144B9B681B0EAD
:10231000FB737B68FA7B83F83520104B9B6803F4D2
:102320007F031B0CFB73FB7B1B061A467B689A63BF
:102330000A4B9B6803F47F431B0AFB737B689A6B11
:10234000FB7B1B041A437B689A63044B9B68FB73FB
:102350007B6805E050030020540300206403002044
:102360009A6BFB7B1B021A437B689A63234BDB68E7
:102370001B0EFB737B689A6BFB7B1A437B689A632B
:102380001E4BDB6803F47F031B0CFB737B6893F825
:102390003C30DAB2FB7B1B09DBB21343DAB27B6859
:1023A00083F83C20FB7B9BB203F00F039BB21B0224
:1023B0009AB27B68DA87114BDB6803F47F431B0A10
:1023C000FB737B68DB8F9AB2FB7B9BB213439AB2A1
:1023D0007B68DA87094BDB68FB73FB7B5B08DAB24F
:1023E0007B6883F840207B68012283F84120BB7B17
:1023F00018461437BD465DF8047B7047640300201F
:1024000080B584B000AF78602A23FB73304B1B6823
:10241000032B03D12723FB73FB7B54E02C4B1B685E
:10242000002B07D02A4B1B68012B03D0284B1B68BD
:10243000022B47D17B68B3F5805F03D12723FB7361
:10244000FB7B40E07B68B3F5006F1ED1012001F0FB
:1024500019FB0346FB73FB7B2A2B33D11D4B012257
:102460001A751C4B00221A601A4B00225A60194B35
:1024700000229A60174B4FF40062DA60154B00227D
:102480001A6114480DF020FB1CE0002001F0FAFA5C
:102490000346FB73FB7B2A2B14D10E4B01221A75CA
:1024A0000C4B00221A600B4B00225A60094B002291
:1024B0009A60084B0022DA60064B00221A61054838
:1024C0000DF002FBFB7B18461037BD4680BD00BFF8
:1024D0005003002068CE002080B485B000AF786043
:1024E0002A23FB737B68002B05D07B68012B02D06D
:1024F0007B68022B03D1064B7A681A6001E0262321
:10250000FB73FB7B18461437BD465DF8047B7047B0
:102510000000002080B584B000AF78602A23FB73F0
:102520000E4B7A681A600D4B07225A600B4B402203
:102530009A600A4B0022DA60084B4FF480621A61FD
:1025400006480DF053FB072001F00AF90346FB7320
:10255000FB7B18461037BD4680BD00BF00CE002073
:1025600090B589B000AFF860B9601346FB802A23AC
:10257000FB750023FB61FB68BB610023BB75FB6837
:10258000002B03D12623FB75FB7D77E19B4B2A2291
:102590001A709B4B00221A609A4B00221A609A4BC9
:1025A0009A4A1A60984B00225A60974B00229A6010
:1025B000954B0022DA60944B00221A61924B002264
:1025C0005A6191480DF05EFB00200DF0FFFA0020EB
:1025D0000DF044FB034603F00073002B03D00E23E1
:1025E000FB75FB7D4AE18A4B1B68022B05D14FF43A
:1025F0000073FB80BB685B0ABB60FB88002B68D064
:10260000FB88B3F5006F64D8FA88FB88013B134060
:10261000002B5ED1FB88184601F0EEFC0346BB752B
:10262000FA887C4B1A607B4B10225A60794B40220F
:102630009A60784B0022DA60764B4FF480621A6120
:1026400074480DF0D3FA102001F08AF80346FB75A8
:10265000FB7D2A2B01D0FB7D10E100BF6A4B6B4A4A
:102660001A60FA88684B5A60BB7D1A01664B9A6003
:10267000654B0222DA60644B00221A61624B012230
:102680005A6161480DF0FEFAFA885E4B1A60624B9F
:1026900000221A60614BFA681A605E4BBA681A60D1
:1026A0005C4B11225A605B4B40229A60594B0022CE
:1026B000DA60584B4FF480621A6156480DF096FA72
:1026C000112001F04DF80346FB75FB7D2A2B06D047
:1026D00003E02623FB75FB7DD0E0FB7DCEE0504B75
:1026E0001B68022B6DD11AE04FF400400DF014FB73
:1026F0000346002B13D00023FB610AE0FB699B001B
:10270000BA69D4180DF0ECFA03462360FB69013373
:10271000FB61FB69072BF1D9BB692033BB61414BDE
:102720005A6B40F22A631340002BDDD008200DF0D5
:10273000F3FA0346002B06D008200DF007FB042314
:10274000FB75FB7D9AE002200DF0E6FA0346002BB4
:1027500006D002200DF0FAFA0223FB75FB7D8DE016
:1027600020200DF0D9FA0346002B06D020200DF0D2
:10277000EDFA0623FB75FB7D80E04FF400700DF051
:10278000CBFA0346002B07D04FF400700DF0DEFAB1
:102790000723FB75FB7D71E007E00DF0A1FA02460F
:1027A000BB691A60BB690433BB614FF400100DF0C4
:1027B000B3FA0346002BF0D140F2FF500DF0C6FAF9
:1027C0005BE0174B1B68012B2ED148F22A30012108
:1027D0000DF0DEF900BF0A4B1B68002B04D1074B3C
:1027E0001B78DBB22A2BF6D0044B1B78DBB22A2BEA
:1027F00043D0024B1B78DBB240E000BF0400002056
:10280000800300207803002080CE0020FFFF0F000F
:102810005003002000CE00207C03002014CE0020B6
:102820000000002000800140164B1B68002B24D1C3
:1028300040F22A3001210DF0ABF901200DF0C6F96C
:10284000FB88F8681946FFF785F800BFFFF778F8AE
:102850000346002B08D10C4B1B68002B04D10B4BFB
:102860001B78DBB22A2BF1D0084B1B78DBB22A2B6A
:1028700003D0064B1B78DBB200E0FB7D1846243703
:10288000BD4690BD00000020800300200400002011
:1028900090B589B000AFF860B9603B601346FB802B
:1028A0002A23FB770023BB61FB687B610023FB7459
:1028B000FB68002B03D12623FB77FB7FBFE18E4B08
:1028C0002A221A708D4B00221A608D4B00221A604A
:1028D0008C4B8D4A1A608B4B00225A60894B002228
:1028E0009A60884B0022DA60864B00221A61854B81
:1028F00000225A6183480DF0C5F900200DF066F9F9
:1029000000200DF0ABF9034603F00073002B03D059
:102910000E23FB77FB7F92E17C4B1B68022B05D1DA
:102920004FF40073FB80BB685B0ABB60FB88002B25
:1029300032D0FB88B3F5006F2ED8FA88FB88013BB4
:102940001340002B28D1FB88184601F055FB0346A5
:10295000FB74FA886E4B1A606D4B10225A606C4BF8
:1029600040229A606A4B0022DA60694B4FF4806221
:102970001A6167480DF03AF9102000F0F1FE0346A5
:10298000FB77FB7F2A2B01D0FB7F58E100BF3B6820
:10299000012B40F2538103E02623FB77FB7F4EE1BE
:1029A000FB883A6802FB03F3B3F1007F03D32623CD
:1029B000FB77FB7F43E1FB883A6802FB03F2504B55
:1029C0001A60544B01221A60534BFA681A604D4B3F
:1029D0004D4A1A60FB883A6802FB03F2494B5A6081
:1029E000FB7C1A01474B9A60464B0222DA60454B4A
:1029F00000221A61434B01225A6142480DF042F90C
:102A0000434BBA681A60424B12225A60404B402234
:102A10009A603F4B0022DA603D4B4FF480621A61AE
:102A20003B480DF0E3F8122000F09AFE0346FB77D6
:102A3000FB7F2A2B01D0FB7F01E1384B1B68022B67
:102A400040F0B4801AE04FF400400DF065F9034601
:102A5000002B13D00023BB610AE0BB699B007A699D
:102A6000D4180DF03DF903462360BB690133BB6107
:102A7000BB69072BF1D97B6920337B61284B5A6BEB
:102A800040F22A331340002BDDD008200DF044F92A
:102A90000346002B06D008200DF058F90423FB77DD
:102AA000FB7FCCE002200DF037F90346002B06D067
:102AB00002200DF04BF90223FB77FB7FBFE02020C3
:102AC0000DF02AF90346002B06D020200DF03EF928
:102AD0000623FB77FB7FB2E04FF400700DF01CF98A
:102AE0000346002B07D04FF400700DF02FF9072399
:102AF000FB77FB7FA3E01DE00400002080030020A3
:102B00007803002080CE0020FFFF0F00500300203C
:102B100000CE00207C03002014CE00200000002006
:102B2000008001400DF0DCF802467B691A607B6989
:102B300004337B614FF400100DF0EEF80346002BD8
:102B4000F0D14FF480700DF0E7F80346002B28D049
:102B50003D4B1B68002B07D03B4B1B68022B03D05F
:102B6000394B1B68012B1CD1384B00221A60374BA4
:102B70000C225A60354B40229A60344B0022DA60B6
:102B8000324B4FF480621A6130480DF02FF80C2060
:102B900000F0E6FD0346FB77FB7F2A2B01D0FB7F8D
:102BA0004DE040F2FF500DF0D1F847E0284B1B6894
:102BB000012B17D148F22A3001210CF0E9FF00BFA8
:102BC000244B1B68002B04D1234B1B78DBB22A2B30
:102BD000F6D0214B1B78DBB22A2B2FD01E4B1B7853
:102BE000DBB22CE01A4B1B68002B27D140F22A30B5
:102BF00001210CF0CDFF01200CF0E8FFFB883A68C2
:102C000002FB03F3F8681946FEF7A4FE00BFFEF7C7
:102C100097FE0346002B08D10E4B1B68002B04D1F6
:102C20000D4B1B78DBB22A2BF1D00B4B1B78DBB2A0
:102C30002A2B03D0084B1B78DBB200E0FB7F184641
:102C40002437BD4690BD00BF5003002000CE0020B9
:102C500000000020800300200400002080B58EB01A
:102C600000AFF860B9601346FB802A2387F837303D
:102C70000023FB770023FB7500233B630023FB62EB
:102C80000023BB6200237B620023BB61FB683B62C5
:102C9000FB68002B05D1262387F8373097F83730AB
:102CA00027E29E4B2A221A709D4B00221A609D4BF0
:102CB00000221A609C4B9D4A1A609B4B00225A606E
:102CC000994B00229A60984B0022DA60964B0022C2
:102CD0001A61954B00225A6193480CF0D3FF0020F3
:102CE0000CF074FF00200CF0B9FF034603F00073F2
:102CF000002B05D00E2387F8373097F83730F8E1EE
:102D00008B4B1B68022B05D14FF40073FB80BB6813
:102D10005B0ABB60FB88002B50D0FB88B3F5006FCB
:102D20004CD8FA88FB88013B1340002B46D1FB8826
:102D3000184601F061F90346FB77FA887D4B1A606B
:102D40007C4B10225A607B4B40229A60794B0022C8
:102D5000DA60784B4FF480621A6176480CF046FFD7
:102D6000102000F0FDFC034687F8373097F8373025
:102D70002A2B02D097F83730BBE100BF6E4B1B689F
:102D80001A046C4B1A606B4B0D225A60694B40223F
:102D90009A60684B0022DA60664B4FF480621A61D9
:102DA00064480CF023FF0D2000F0DAFC034687F89E
:102DB000373097F837302A2B09D005E0262387F8DB
:102DC000373097F8373094E197F8373091E10020A9
:102DD0000CF044FFB862554B3B6328E03B6B013B72
:102DE0003B63554B1B681A04524B1A60514B0D2222
:102DF0005A60504B40229A604E4B0022DA604D4B95
:102E00004FF480621A614B480CF0F0FE0D2000F088
:102E1000A7FC034687F8373097F837302A2B02D0C3
:102E200097F8373065E100200CF018FFB862BB6AF4
:102E300003F48073002B02D13B6B002BCED13B6B94
:102E4000002B01D1292354E13A4BBA681A60394B5F
:102E500018225A60374B40229A60364B0022DA60C3
:102E6000344B4FF480621A6132480CF0BFFE1820D8
:102E700000F076FC034687F8373097F837302A2B76
:102E800002D097F8373034E1FA88264B1A602B4B82
:102E900000221A602A4BFA681A60234B234A1A60F0
:102EA000FA88214B5A60FB7F1A011F4B9A601E4B18
:102EB0000022DA601C4B00221A611B4B01225A616E
:102EC00019480CF0DFFE1F4B1B68022B40F0AB8053
:102ED00064E04FF480400CF01FFF0346002B5DD0F0
:102EE000104B1A68FB6AD31A1F2B40D80D4B1A6877
:102EF000FB6AD31A03F00303002B05D1094B1A68B0
:102F0000FB6AD31A9B0805E0064B1A68FB6AD31AC2
:102F10009B080133BB6100237B6223E00400002097
:102F2000800300207803002080CE0020FFFF0F00E8
:102F30005003002000CE0020740300207C030020FA
:102F400098CE0020000000203B6A1B6818460CF059
:102F5000D3FE7B6A01337B623B6A04333B62FB6ACC
:102F60000433FB627A6ABB699A42EDD316E0002310
:102F70007B620AE07B6A9B003A6A13441B6818462E
:102F80000CF0BAFE7B6A01337B627B6A072BF1D9B6
:102F90003B6A20333B62FB6A2033FB62574B5A6B20
:102FA00040F21A631340002B93D008200CF0B4FEBB
:102FB0000346002B08D008200CF0C8FE042387F835
:102FC000373097F8373094E002200CF0A5FE034626
:102FD000002B08D002200CF0B9FE022387F837300E
:102FE00097F8373085E010200CF096FE0346002B52
:102FF00008D010200CF0AAFE052387F8373097F888
:10300000373076E04FF400700CF086FE0346002B5C
:103010004ED04FF400700CF099FE072387F837303C
:1030200097F8373065E0364B1B68012B17D144F217
:103030001A3001210CF0ACFD00BF324B1B68002B95
:1030400004D1314B1B78DBB22A2BF6D02E4B1B78E8
:10305000DBB22A2B2CD02C4B1B78DBB249E0284B5F
:103060001B68002B24D140F21A3001210CF090FD96
:10307000FB88F8681946FEF7A7FC01200CF0A6FDB6
:1030800000BFFEF75DFC0346002B08D11D4B1B68FB
:10309000002B04D11C4B1B78DBB22A2BF1D01A4B2E
:1030A0001B78DBB22A2B03D0174B1B78DBB220E056
:1030B00040F2FF500CF04AFE07F11703184600F0EB
:1030C000A1FD034687F8373007E007F117031846DC
:1030D00000F098FD034687F8373097F837302A2BF1
:1030E00005D1FB7D072BF0D0FB7D062BEDD097F8AB
:1030F000373018463837BD4680BD00BF00800140DC
:1031000000000020800300200400002080B58CB067
:1031100000AFF860B9603B601346FB802A2387F854
:103120002F30002387F823300023FB760023BB6277
:103130000023FB61FB687B6200237B61FB68002B43
:1031400005D1262387F82F3097F82F3093E2A94B2B
:103150002A221A70A84B00221A60A84B00221A607B
:10316000A74BA84A1A60A64B00225A60A44B002223
:103170009A60A34B0022DA60A14B00221A61A04B97
:1031800000225A619E480CF07DFD00200CF01EFDCF
:1031900000200CF063FD034603F00073002B05D004
:1031A0000E2387F82F3097F82F3064E2964B1B6878
:1031B000022B05D14FF40073FB80BB685B0ABB6038
:1031C000FB88002B51D0FB88B3F5006F4DD8FA88EF
:1031D000FB88013B1340002B47D1FB88184600F0C9
:1031E0000BFF034687F82330FA88884B1A60874B19
:1031F00010225A60854B40229A60844B0022DA608C
:10320000824B4FF480621A6180480CF0EFFC102072
:1032100000F0A6FA034687F82F3097F82F302A2BB4
:1032200002D097F82F3026E200BF794B1B681A04B2
:10323000764B1A60754B0D225A60744B40229A608F
:10324000724B0022DA60714B4FF480621A616F4852
:103250000CF0CCFC0D2000F083FA034687F82F30E9
:1032600097F82F302A2B09D005E0262387F82F3036
:1032700097F82F30FFE197F82F30FCE13B68012BE6
:1032800040F2CD81FB883A6802FB03F3B3F1007F83
:1032900005D3262387F82F3097F82F30EBE15A4BD0
:1032A0001B68002B07D0584B1B68012B03D0564BD3
:1032B0001B68022B41D1564B1B681A04534B1A60F2
:1032C000524B37225A60514B40229A604F4B00229A
:1032D000DA604E4B4FF480621A614C480CF086FC69
:1032E000372000F03DFA034687F82F3097F82F304B
:1032F0002A2B02D097F82F30BDE1444B3A681A6070
:10330000424B17225A60414B40229A603F4B0022A9
:10331000DA603E4B4FF480621A613C480CF066FC68
:10332000172000F01DFA034687F82F3097F82F304A
:103330002A2B02D097F82F309DE1344BBA681A60DF
:10334000324B19225A60314B40229A602F4B002297
:10335000DA602E4B4FF480621A612C480CF046FC68
:10336000192000F0FDF9034687F82F3097F82F3029
:103370002A2B02D097F82F307DE1FB883A6802FBB8
:1033800003F21E4B1A60234B01221A60224BFA688B
:103390001A601B4B1B4A1A60FB883A6802FB03F257
:1033A000174B5A6097F823301A01154B9A60144B4B
:1033B0000022DA60124B00221A61114B01225A617D
:1033C0000F480CF05FFC154B1B68022B40F0DF80B0
:1033D00065E04FF480400CF09FFC0346002B5ED06C
:1033E000064B1A68BB6AD31A1F2B2ED900237B61A8
:1033F00021E000BF040000208003002078030020AB
:1034000080CE0020FFFF0F005003002000CE0020E0
:10341000740300207C03002098CE002000000020D0
:103420007B699B007A6A13441B6818460CF064FCA5
:103430007B6901337B617B69072BF1D97B6A203380
:103440007B62BB6A2033BB6229E08D4B1A68BB6A82
:10345000D31A03F00303002B05D1894B1A68BB6A0A
:10346000D31A9B0805E0864B1A68BB6AD31A9B08DF
:103470000133FB6100237B610DE07B6A1B6818460A
:103480000CF03AFC7B6901337B617B6A04337B621D
:10349000BB6A0433BB627A69FB699A42EDD3794B0C
:1034A0005A6B40F21A331340002B92D008200CF0D4
:1034B00033FC0346002B08D008200CF047FC042303
:1034C00087F82F3097F82F30D5E002200CF024FC3D
:1034D0000346002B08D002200CF038FC022387F8AA
:1034E0002F3097F82F30C6E010200CF015FC034663
:1034F000002B08D010200CF029FC052387F82F3072
:1035000097F82F30B7E04FF400700CF005FC03463D
:10351000002B09D04FF400700CF018FC072387F83B
:103520002F3097F82F30A6E04FF480700CF0F4FBAA
:103530000346002B73D0544B1B68002B07D0524B13
:103540001B68012B03D0504B1B68022B67D14F4BDC
:1035500000221A604D4B0C225A604C4B40229A605C
:103560004A4B0022DA60494B4FF480621A614748A7
:103570000CF03CFB0C2000F0F3F8034687F82F30EA
:1035800097F82F302A2B4AD097F82F3073E0404B12
:103590001B68012B17D144F21A3001210CF0F8FA04
:1035A00000BF3C4B1B68002B04D13B4B1B78DBB2AC
:1035B0002A2BF6D0384B1B78DBB22A2B2FD0364B78
:1035C0001B78DBB257E0324B1B68002B27D140F24F
:1035D0001A3001210CF0DCFA01200CF0F7FAFB881C
:1035E0003A6802FB03F3F8681946FEF7EDF900BFED
:1035F000FEF7A6F90346002B08D1264B1B68002BCB
:1036000004D1254B1B78DBB22A2BF1D0224B1B783F
:10361000DBB22A2B03D0204B1B78DBB22BE040F22D
:10362000FF500CF093FB00237B6102E07B690133C8
:103630007B617A694FF6FE739A42F7D907F11B0353
:10364000184600F0DFFA034687F82F3007E007F14D
:103650001B03184600F0D6FA034687F82F3097F878
:103660002F302A2B05D1FB7E072BF0D0FB7E062BBB
:10367000EDD097F82F3018463037BD4680BD00BFDB
:1036800078030020008001405003002000CE00207D
:1036900000000020800300200400002080B582B0DC
:1036A00000AF2A23FB704FF480337B6002E07B681D
:1036B000013B7B607B68002B05D080200CF02CFB4D
:1036C0000346002BF3D07B68002B03D10323FB7050
:1036D000FB7804E040F2FF500CF038FBFB78184612
:1036E0000837BD4680BD00BF80B584B000AF2A2337
:1036F000FB714FF48033BB60184B5B6BFB6005E0E4
:10370000BB68013BBB60154B5B6BFB60FB6803F068
:103710004503002B02D1BB68002BF1D1BB68002B05
:1037200004D0FB6803F00403002B06D00323FB71D5
:1037300004200CF00BFBFB790CE0FB6803F040036A
:10374000002B06D02A23FB7140200CF0FFFAFB79F6
:1037500000E0FB7918461037BD4680BD008001406F
:1037600080B586B000AF0346FB712A23FB74624B21
:103770005B6B7B6102E0604B5B6B7B617B6903F0A1
:103780004503002BF7D07B6903F00403002B06D020
:103790000323FB7404200CF0D9FAFB7CA8E07B69BE
:1037A00003F00103002B06D00123FB7401200CF071
:1037B000CDFAFB7C9CE00CF045FA0346FA799A427C
:1037C00003D01023FB74FB7C92E040F2FF500CF01E
:1037D000BDFA00200CF042FAF860FA68474B13403B
:1037E000002B01D1FB7C83E0FB68002B01DA1C235A
:1037F0007EE0FB6803F08043002B01D0092377E0D3
:10380000FB6803F00053002B01D00A2370E0FB6833
:1038100003F08053002B01D00B2369E0FB6803F019
:103820000063002B01D00C2362E0FB6803F080638F
:10383000002B01D00D235BE0FB6803F08073002BAD
:1038400001D00E2354E0FB6803F40003002B01D0E9
:103850000F234DE0FB6803F48003002B01D01023FD
:1038600046E0FB6803F40013002B01D011233FE076
:10387000FB6803F48013002B01D0122338E0FB68AF
:1038800003F40023002B01D0132331E0FB6803F481
:103890008023002B01D014232AE0FB6803F40033BB
:1038A000002B01D0152323E0FB6803F48033002BA9
:1038B00001D016231CE0FB6803F40043002B01D069
:1038C000172315E0FB6803F48043002B01D0182375
:1038D0000EE0FB6803F40053002B01D0192307E02E
:1038E000FB6803F00803002B01D01A2300E0FB7CE7
:1038F00018461837BD4680BD0080014008E0FFFD36
:1039000080B582B000AF2A23FB70104B5B6B7B60ED
:1039100002E00E4B5B6B7B607B6803F04503002B82
:10392000F7D07B6803F00403002B06D00323FB7061
:1039300004200CF00BFAFB7804E040F2FF500CF08E
:1039400005FAFB7818460837BD4680BD0080014067
:1039500080B582B000AF2A23FB70164B5B6B7B6097
:1039600002E0144B5B6B7B607B6803F04503002B2C
:10397000F7D07B6803F00403002B06D00323FB7011
:1039800004200CF0E3F9FB7810E07B6803F00103FE
:10399000002B06D00123FB7001200CF0D7F9FB7837
:1039A00004E040F2FF500CF0D1F9FB7818460837DC
:1039B000BD4680BD0080014080B586B000AF0346A3
:1039C0003960FB712A23FB742D4B5B6B7B6102E03A
:1039D0002B4B5B6B7B617B6903F04503002BF7D0BE
:1039E0007B6903F00403002B06D00323FB7404203F
:1039F0000CF0ACF9FB7C3FE07B6903F00103002B8A
:103A000006D00123FB7401200CF0A0F9FB7C33E00D
:103A10000CF018F90346FA799A4203D01023FB748C
:103A2000FB7C29E040F2FF500CF090F900200CF0F4
:103A300015F9F860FB6803F46043002B06D1FB68BE
:103A40001B0C9AB23B681A80FB7C15E0FB6803F400
:103A50000053002B01D013230EE0FB6803F48043D6
:103A6000002B01D0102307E0FB6803F40043002B78
:103A700001D00F2300E0FB7C18461837BD4680BDFF
:103A80000080014080B586B000AF0346FB712A2359
:103A9000FB750023FB6000233B6100200CF0DEF887
:103AA000034603F00073002B03D00E23FB75FB7D50
:103AB0009FE0524B1B689AB207F10C03104619465F
:103AC00000F096F90346FB75FB7D2A2B01D0FB7DA8
:103AD0008FE0FB79012B46D13B6903F48023002B57
:103AE0003DD0464B1B681A04454B1A60444B3722A5
:103AF0005A60434B40229A60414B0022DA60404BAF
:103B00004FF480621A613E480CF070F83720FFF7DE
:103B100027FE0346FB75FB7D2A2B01D0FB7D68E069
:103B2000374B02221A60364B06225A60344B402231
:103B30009A60334B0022DA60314B4FF480621A6195
:103B40002F480CF053F80620FFF70AFE0346FB75DA
:103B5000FB7D2A2B01D0FB7D4BE0FB7D49E025233B
:103B6000FB75FB7D45E03B6903F48033002B3DD0C2
:103B7000224B1B681A04224B1A60214B37225A60D1
:103B80001F4B40229A601E4B0022DA601C4B4FF400
:103B900080621A611A480CF029F83720FFF7E0FD1F
:103BA0000346FB75FB7D2A2B01D0FB7D21E0144BE6
:103BB00000221A60124B06225A60114B40229A6072
:103BC0000F4B0022DA600E4B4FF480621A610C48F2
:103BD0000CF00CF80620FFF7C3FD0346FB75FB7DD8
:103BE0002A2B01D0FB7D04E0FB7D02E02523FB7541
:103BF000FB7D18461837BD4680BD00BF740300200A
:103C000000CE002080B586B000AF78602A23FB7517
:103C100000233B610023FB60714B1B681A04714B4E
:103C20001A60704B0D225A606E4B40229A606D4BA9
:103C30000022DA606B4B4FF480621A6169480BF026
:103C4000D5FF694B5B6BFB6002E0674B5B6BFB6016
:103C5000FB6803F04503002BF7D0FB6803F0040377
:103C6000002B06D00323FB7504200CF06FF8FB7DBE
:103C7000B2E0FB6803F00103002B06D00123FB75C3
:103C800001200CF063F8FB7DA6E00BF0DBFF0346A0
:103C9000FB60FB680D2B03D01023FB75FB7D9BE0C5
:103CA00040F2FF500CF052F800200BF0D7FF034613
:103CB0003B613B695B0ADBB203F00F03DAB27B685E
:103CC0001A703A69494B1340002B01D1FB7D83E008
:103CD0003B69002B01DA1C237EE03B6903F0804343
:103CE000002B01D0092377E03B6903F00053002B40
:103CF00001D00A2370E03B6903F08053002B01D010
:103D00000B2369E03B6903F00063002B01D00C2317
:103D100062E03B6903F08063002B01D00D235BE080
:103D20003B6903F08073002B01D00E2354E03B6904
:103D300003F40003002B01D00F234DE03B6903F493
:103D40008003002B01D0102346E03B6903F40013ED
:103D5000002B01D011233FE03B6903F48013002BBB
:103D600001D0122338E03B6903F40023002B01D07B
:103D7000132331E03B6903F48023002B01D014238B
:103D80002AE03B6903F40033002B01D0152323E024
:103D90003B6903F48033002B01D016231CE03B6900
:103DA00003F40043002B01D0172315E03B6903F413
:103DB0008043002B01D018230EE03B6903F400532D
:103DC000002B01D0192307E03B6903F00803002B07
:103DD00001D01A2300E0FB7D18461837BD4680BD90
:103DE0007403002000CE00200080014008E0FFFDA9
:103DF00090B587B000AF03463960FB8000237B613C
:103E00002A23FB740023BB600023FB60754B082250
:103E10001A60744B10225A60724B40229A60714BA8
:103E20000022DA606F4B4FF480621A616D480BF02C
:103E3000DDFE1020FFF794FC0346FB74FB7C2A2B6D
:103E400001D0FB7CC9E0684B1B681A04654B1A6003
:103E5000644B37225A60634B40229A60614B0022C8
:103E6000DA60604B4FF480621A615E480BF0BEFE70
:103E70003720FFF775FC0346FB74FB7C2A2B01D02F
:103E8000FB7CAAE0594B5A4A1A60584B08225A60E8
:103E9000564B30229A60554B0222DA60534B002277
:103EA0001A61524B01225A6150480BF0EBFE4D4B08
:103EB00000221A604B4B33225A604A4B40229A60D0
:103EC000484B0022DA60474B4FF480621A61454844
:103ED0000BF08CFE3320FFF743FC0346FB74FB7CA6
:103EE0002A2B01D0FB7C78E012E04FF400100BF09D
:103EF00013FF0346002B0BD07B699B0007F10802E0
:103F0000D4180BF0EDFE034623607B6901337B611F
:103F1000384B5A6B40F22A631340002BE5D008203F
:103F20000BF0FAFE0346002B06D008200BF00EFF24
:103F30000423FB74FB7C50E002200BF0EDFE0346F3
:103F4000002B06D002200BF001FF0223FB74FB7C48
:103F500043E020200BF0E0FE0346002B06D020209B
:103F60000BF0F4FE0623FB74FB7C36E04FF400708C
:103F70000BF0D2FE0346002B07D04FF400700BF07D
:103F8000E5FE0723FB74FB7C27E040F2FF500BF0BB
:103F9000DDFE3B680433BA681106BA6802F47F425A
:103FA00012021143BA6802F47F02120A1143BA687E
:103FB000120E0A431A60FB681A06FB6803F47F437B
:103FC0001B021A43FB6803F47F031B0A1A43FB68B6
:103FD0001B0E1A433B681A60FB7C18461C37BD4613
:103FE00090BD00BF00CE00207403002080CE0020D2
:103FF000FFFF0F000080014080B485B000AF034692
:10400000FB800023FB7305E0FB885B08FB80FB7BE8
:104010000133FB73FB88012BF6D1FB7B1846143769
:10402000BD465DF8047B704780B500AF154B154A5F
:10403000126842F001021A60124A124B5968124B80
:104040000B4053600F4A0F4B1B6823F0847323F41B
:10405000803313600B4B0B4A126822F480221A60E3
:10406000084B084A526822F4FE025A60054B4FF48E
:104070001F029A6000F00CF8044B4FF000629A6047
:1040800080BD00BF001002400000FFF800ED00E01E
:1040900080B500AF00F002F880BD00BF80B483B0EF
:1040A00000AF00237B6000233B60384B374A126827
:1040B00042F480321A60354B1B6803F400333B60D6
:1040C0007B6801337B603B68002B03D17B68B3F5D1
:1040D000A06FF0D12D4B1B6803F40033002B02D0EE
:1040E00001233B6001E000233B603B68012B47D18B
:1040F000274B274A126842F010021A60244B244AC8
:10410000126822F003021A60214B214A12681A60D9
:104110001E4B1E4A52685A601C4B1C4A52685A6019
:104120001A4B1A4A52685A60184B184A526822F4BD
:104130007C125A60154B154A526842F498125A6024
:10414000124B124A126842F080721A6000BF0F4B85
:104150001B6803F00073002BF9D00C4B0B4A52681C
:1041600022F003025A60094B084A526842F00202E8
:104170005A6000BF054B5B6803F00C03082BF9D1B4
:104180000C37BD465DF8047B704700BF001002404D
:104190000020024080B582B000AF114B7B60114B14
:1041A0003B6007E03B681A1D3A607A68111D796030
:1041B00012681A603A680C4B9A42F3D30B480C49C8
:1041C0004FF000028842B8BF40F8042BFFF6FAAF68
:1041D000FFF72AFF02F0D0FF0837BD4680BD00BFC1
:1041E000A8720308000000201C0300202003002008
:1041F000A8E0002080B400AFFEE700BF80B483B029
:1042000000AF78600C4B1B681A687B681A607B688B
:104210000433094A126852681A607B680833064AF8
:10422000126892681A607B680C33044A1A600C3773
:10423000BD465DF8047B70471C00002078563412A0
:1042400080B582B000AF0346FB71FB799BB2184684
:1042500000F05EFA0837BD4680BD00BF80B500AFF4
:104260001D48022100220EF08DF91C4800210DF09E
:10427000FFFF1B484FF4007101F0ACFE184880218D
:1042800001F0A8FE4020FFF7DBFF8020FFF7D8FFFA
:104290001348802101F090FE00BF0F4B1B899BB299
:1042A00003F00203002BF8D000BF0B4B1B899BB21D
:1042B00003F08003002BF8D1084840F2F9110EF00A
:1042C00011F80548022101220EF05CF90348012192
:1042D0000DF0CEFF80BD00BF003C00401C0402403A
:1042E000000C014080B485B000AF13460246FA715D
:1042F0000A46BA717B71FB79542B02D8BB792F2BFC
:1043000000D92DE0BB79DB08DBB2542202FB03F2BB
:10431000FB791344FB60BB7903F00703012202FA27
:1043200003F3FB727B79002B0BD0104AFB6813441C
:104330001A78FB7A1343DAB20C49FB680B441A7003
:104340000EE00A4AFB6813441B78DAB2FB7ADB43BF
:10435000DBB21340DBB2DAB20449FB680B441A70DB
:104360001437BD465DF8047B704700BF9CCE00202B
:1043700080B586B000AFF871B9717A713B717A7906
:10438000FB79D31ADBB23B743A79BB79D31ADBB22F
:10439000FB7397F91030002B04DB3B7CFB7401238B
:1043A000FB7505E0FA797B79D31AFB74FF23FB7563
:1043B00097F90F30002B04DBFB7BBB740123BB752B
:1043C00005E0BA793B79D31ABB74FF23BB75FB793F
:1043D0007B75BB793B75FA7CBB7C9A4235D3FB7C01
:1043E0007B742EE097F90F30002B0DDDBB7C797DBF
:1043F000FA798A1A02FB03F2FB7C92FBF3F3DAB23E
:10440000BB7913443B750CE0BB7C797DFA798A1A41
:1044100002FB03F2FB7C92FBF3F3DBB2BA79D31A13
:104420003B75797D3A7D97F82030084611461A464B
:10443000FFF758FFFA7D7B7D13447B757B7C013B46
:104440007B747B7C002BCDD134E0BB7C7B742EE075
:1044500097F90F30002B0DDDFB7C397DBA798A1A74
:1044600002FB03F2BB7C92FBF3F3DAB2FB79134459
:104470007B750CE0FB7CB9793A7D8A1A02FB03F26A
:10448000BB7C92FBF3F3DAB2FB7913447B75797D45
:104490003A7D97F82030084611461A46FFF722FF6A
:1044A000BA7D3B7D13443B757B7C013B7B747B7CFD
:1044B000002BCDD179793A7997F82030084611460A
:1044C0001A46FFF70FFF1837BD4680BD80B584B090
:1044D00000AFF871B9717A713B717B797E2B05D889
:1044E000414BFB607B79203B7B7104E03F4BFB60E1
:1044F0007B7940337B71BB79DB43DBB203F007038D
:104500007B72BB79DB083B720023FB7265E07A7932
:1045100013465B0013445B001A46FB7A1344FA68A7
:1045200013441B78BB723B79002B0ED0BB7ADB4364
:10453000BB72BB79002B08D0BB79013BDBB2FA79A7
:10454000104619460122FFF7CDFEBB7A03F07F0328
:10455000BB723B7A542202FB03F2FB7913443A7A92
:10456000542101FB02F1FA790A4421498A5CD1B253
:10457000B87A7A7AC2F1070200FA02F2D2B20A439A
:10458000D2B2D1B21A4AD1547B7A062B1BD83B7ACD
:104590000133542202FB03F2FB7913443A7A0132CD
:1045A000542101FB02F1FA790A4411498A5CD1B223
:1045B000B87A7A7A013240FA02F2D2B20A43D2B21F
:1045C000D1B20B4AD154FB790133FB71FB79532BE8
:1045D00000D905E0FB7A0133FB72FB7A052B96D9F3
:1045E0001037BD4680BD00BF2000002058350108AF
:1045F0009CCE002090B585B002AF02460B46FA7102
:10460000BB71FB79002B0FD0FB79013BD8B2BB7992
:10461000013BD9B2FB79013BDAB2BB790633DBB29D
:1046200001240094FFF7A4FE0C37BD4690BD00BFE7
:1046300080B582B000AF3A600246FA710A46BA719C
:104640007B717B79002B06D0FA79BB79104619462D
:10465000FFF7D0FF0DE00CE03B681A78F879B979E4
:104660007B79FFF733FFFB790633FB713B6801333E
:104670003B603B681B78002BEED10837BD4680BD00
:1046800080B586B000AF20480DF0DEFE0820012185
:1046900007F036F84FF40040012107F04FF82823C7
:1046A000BB821823FB750323BB7507F1140317485E
:1046B000194601F07DFB4FF440433B804FF4827379
:1046C0007B800023BB800023FB8000233B814FF4D1
:1046D00000737B810023BB810023FB813B460A489A
:1046E00019460DF0EBFE084801210DF02BFF06489E
:1046F0004FF480710DF078FF0348022100220DF085
:1047000041FF1837BD4680BD003C0040000C014011
:1047100080B582B000AF0346FB80FB88074819468E
:104720000DF054FF00BF054802210DF07FFF034646
:10473000002BF8D00837BD4680BD00BF003C0040CC
:1047400080B483B000AF0346FB71044BFA791A6062
:104750000C37BD465DF8047B704700BF20000E4259
:1047600080B584B000AF0346FB71FB79012B0ED0FE
:10477000022B0ED0002B0ED1FDF760F90346FB7320
:10478000FB7B2A2B01D1002306E0012304E0012357
:1047900002E0012300E0012318461037BD4680BD2A
:1047A00080B483B000AF0346FB71FB79012B08D0C6
:1047B000022B08D0002B02D000BF012304E000230D
:1047C00002E0002300E0002318460C37BD465DF8E8
:1047D000047B704780B586B000AFB9607A6002464E
:1047E000FA73BB73BB7B002B01D104232BE0FB7B53
:1047F000012B24D0022B24D0002B00D022E0BB7B45
:10480000012B0AD17B685B02B86819464FF400722D
:10481000FDF7A6FE0346FB750AE07B685A02BB7BE8
:10482000B86811464FF40072FEF732F80346FB7584
:10483000FB7D2A2B01D1002305E0012303E000BF0B
:1048400000E000BF012318461837BD4680BD00BFF9
:1048500080B586B000AFB9607A600246FA73BB7368
:10486000BB7B002B01D1042327E0FB7B002B02D074
:10487000022B20D020E0BB7B012B0AD17B685B029E
:10488000B86819464FF40072FEF7E8F90346FB7565
:104890000AE07B685A02BB7BB86811464FF400728D
:1048A000FEF734FC0346FB75FB7D2A2B01D1002368
:1048B00003E0012301E000BF012318461837BD467D
:1048C00080BD00BF80B483B000AF0B463A600246A3
:1048D000FA71BB71FB79002B01D0042338E0BB795E
:1048E0000E2B34D801A252F823F000BF294900084A
:1048F0002D4900084F490008414900084F49000868
:104900004F4900084F4900084F4900084F49000827
:104910004F4900084F4900084F4900084F49000817
:104920004F4900084F490008002311E00B4B5A6C17
:104930000A4B9B6CB2FBF3F23B681A60002307E062
:10494000064B9B6C9AB23B681A80002300E004235C
:1049500018460C37BD465DF8047B704718CE002022
:1049600080B400AF00231846BD465DF8047B704755
:1049700080B584B000AF03463960FB803B689B780C
:104980007B733B68DB783B733B681B78FB72797BFE
:10499000FB7ADA4313469B0013448033994209DCC7
:1049A0003A7BFB7AC3F10F03DB009A4202DCFB88FF
:1049B0001F2B01D8FF23D8E0FB88203BFB80FB881E
:1049C0001A4692001344FB80FB7A012B3ED0022B47
:1049D0007AD0002B40F0BA807B7B0533DAB23B7B88
:1049E0000733DBB2787B397B01F044FC0023BB73D7
:1049F00028E00023FB731FE0FB7B042B13D8FA880D
:104A0000FB7B13445B4AD35C1A46BB7B42FA03F33D
:104A100003F00103002B06D03B68DB881846002119
:104A200001F006FC05E03B681B891846002101F0F7
:104A3000FFFBFB7B0133FB73FB7B052BDCD9BB7BD3
:104A40000133BB73BB7B072BD3D97FE07B7B0A335E
:104A5000DAB23B7B0F33DBB2787B397B01F00AFCA7
:104A60000023BB732CE00023FB7323E0FB7B092BAB
:104A700017D8FA88FB7B5B08DBB213443D4AD35C52
:104A80001A46BB7B5B08DBB242FA03F303F0010377
:104A9000002B06D03B68DB881846002101F0C8FBDC
:104AA00005E03B681B891846002101F0C1FBFB7B38
:104AB0000133FB73FB7B0A2BD8D9BB7B0133BB7360
:104AC000BB7B0F2BCFD941E07B7B0F33DAB23B7B33
:104AD0001733DBB2787B397B01F0CCFB0023BB734F
:104AE00030E00023FB7327E0FB7B0E2B1BD8FA88FA
:104AF000FB7B562101FB03F31B1213441D4AD35CBD
:104B00001A46BB7B562101FB03F31B1242FA03F347
:104B100003F00103002B06D03B68DB881846002118
:104B200001F086FB05E03B681B891846002101F077
:104B30007FFBFB7B0133FB73FB7B0F2BD4D9BB7B50
:104B40000133BB73BB7B172BCBD900BFFB7A01337F
:104B5000DBB21A4692001344DAB27B7B1344DBB219
:104B60000133DAB23B689A7000235BB21846103703
:104B7000BD4680BD043B010880B584B000AF7860BD
:104B800039603B689B78BB733B68DB787B733B6821
:104B90001B783B7378680EF049FC0346FB723B7B45
:104BA000012B24D0022B43D0002B5FD1B97BFA7AA2
:104BB000134692009B1A5B008033994202DC7B7B98
:104BC000782B01D9FF2352E00023FB730AE0FB7B23
:104BD0007A6813441B7818463968FFF7C9FEFB7BD7
:104BE0000133FB73FA7BFB7A9A42F0D33EE0BA7B47
:104BF000FB7A6FF00A0101FB03F380339A4202DC77
:104C00007B7B702B01D9FF2331E00023FB730AE08B
:104C1000FB7B7A6813441B7818463968FFF7A8FEB7
:104C2000FB7B0133FB73FA7BFB7A9A42F0D31DE0E6
:104C3000BA7BFB7AC3F108031B019A4202DC7B7B3F
:104C4000682B01D9FF2312E00023FB730AE0FB7BF2
:104C50007A6813441B7818463968FFF789FEFB7B96
:104C60000133FB73FA7BFB7A9A42F0D300235BB2E9
:104C700018461037BD4680BD80B588B000AF78605B
:104C800039600023BB773B689B78FB763B68DB7819
:104C9000BB763B681B787B763B681B793B770023B0
:104CA000FB7709E0FB7F07F120010B44002203F8AA
:104CB000142CFB7F0133FB77FB7F092BF2D97B6838
:104CC000002B05DA7B685B427B6001237B7704E085
:104CD0007B68002B01DD00237B777B68092B03DDDC
:104CE0003B7F013BDBB23B777B68632B03DD3B7F84
:104CF000023BDBB23B777B68B3F57A7F03DB3B7F1C
:104D0000033BDBB23B777A6842F20F739A4203DDD2
:104D10003B7F043BDBB23B777A689A4B9A4203DDD8
:104D20003B7F053BDBB23B777A68974B9A4203DDCA
:104D30003B7F063BDBB23B777A68944B9A4203DDBC
:104D40003B7F073BDBB23B7797F91C30002B01DA46
:104D500000233B777B68092B07DC7B68DBB23033B1
:104D6000DBB23B730123BB7799E37B68632B1DDCCC
:104D70007B68874A82FB03129210DB17D31ADBB2DF
:104D80003033DBB23B737968814B83FB01239A108C
:104D9000CB17D21A13469B0013445B00CA1AD3B236
:104DA0003033DBB27B730223BB7778E37B68B3F5E8
:104DB0007A7F33DA7B68774A82FB03125211DB1762
:104DC000D31ADBB23033DBB23B737B68704A82FBB1
:104DD00003129210DB17D11A6D4B83FB01239A103B
:104DE000CB17D21A13469B0013445B00CA1AD3B2E6
:104DF0003033DBB27B737968654B83FB01239A10F8
:104E0000CB17D21A13469B0013445B00CA1AD3B2C5
:104E10003033DBB2BB730323BB7740E37A6842F2E3
:104E20000F739A4249DC7B685B4A82FB0312921142
:104E3000DB17D31ADBB23033DBB23B737B68554AE6
:104E400082FB03125211DB17D11A514B83FB012352
:104E50009A10CB17D21A13469B0013445B00CA1A50
:104E6000D3B23033DBB27B737B68494A82FB0312D7
:104E70009210DB17D11A464B83FB01239A10CB17F4
:104E8000D21A13469B0013445B00CA1AD3B23033C4
:104E9000DBB2BB7379683E4B83FB01239A10CB17BF
:104EA000D21A13469B0013445B00CA1AD3B23033A4
:104EB000DBB2FB730423BB77F1E27A68314B9A4291
:104EC0006EDC7B68354A82FB03121213DB17D31AA0
:104ED000DBB23033DBB23B737B682F4A82FB0312B9
:104EE0009211DB17D11A2A4B83FB01239A10CB179F
:104EF000D21A13469B0013445B00CA1AD3B2303354
:104F0000DBB27B737B68234A82FB03125211DB17EF
:104F1000D11A1F4B83FB01239A10CB17D21A1346C9
:104F20009B0013445B00CA1AD3B23033DBB2BB73AD
:104F30007B68174A82FB03129210DB17D11A144BBD
:104F400083FB01239A10CB17D21A13469B001344FC
:104F50005B00CA1AD3B23033DBB2FB7379680C4BF7
:104F600083FB01239A10CB17D21A13469B001344DC
:104F70005B00CA1AD3B23033DBB23B740523BB7774
:104F80008DE200BF9F8601003F420F007F96980090
:104F9000676666661F85EB51D34D6210AD8BDB688B
:104FA0007A68854B9A4275DC7B68844A82FB0312DF
:104FB0005213DB17D31ADBB23033DBB23B737B689F
:104FC0007F4A82FB03121213DB17D11A7D4B83FB3E
:104FD00001239A10CB17D21A13469B0013445B008F
:104FE000CA1AD3B23033DBB27B737B68764A82FB5A
:104FF00003129211DB17D11A724B83FB01239A1013
:10500000CB17D21A13469B0013445B00CA1AD3B2C3
:105010003033DBB2BB737B686C4A82FB03125211E4
:10502000DB17D11A674B83FB01239A10CB17D21AD7
:1050300013469B0013445B00CA1AD3B23033DBB271
:10504000FB737B685F4A82FB03129210DB17D11A55
:105050005C4B83FB01239A10CB17D21A13469B009B
:1050600013445B00CA1AD3B23033DBB23B747968A5
:10507000544B83FB01239A10CB17D21A13469B0083
:1050800013445B00CA1AD3B23033DBB27B740623FD
:10509000BB7704E27A684E4B9A4200F39D807B68AE
:1050A0004C4A82FB03129214DB17D31ADBB2303363
:1050B000DBB23B737B68414A82FB03125213DB175E
:1050C000D11A404B83FB01239A10CB17D21A1346F7
:1050D0009B0013445B00CA1AD3B23033DBB27B733C
:1050E0007B68374A82FB03121213DB17D11A354B48
:1050F00083FB01239A10CB17D21A13469B0013444B
:105100005B00CA1AD3B23033DBB2BB737B682E4A62
:1051100082FB03129211DB17D11A2A4B83FB012366
:105120009A10CB17D21A13469B0013445B00CA1A7D
:10513000D3B23033DBB2FB737B68244A82FB0312A9
:105140005211DB17D11A1F4B83FB01239A10CB1787
:10515000D21A13469B0013445B00CA1AD3B23033F1
:10516000DBB23B747B68174A82FB03129210DB1799
:10517000D11A144B83FB01239A10CB17D21A134672
:105180009B0013445B00CA1AD3B23033DBB27B748A
:1051900079680C4B83FB01239A10CB17D21A134664
:1051A0009B0013445B00CA1AD3B23033DBB2BB742A
:1051B0000723BB7773E100BF3F420F0089B5F814A6
:1051C000AD8BDB6867666666D34D62101F85EB5159
:1051D0007F96980083DE1B437A68C34B9A4200F3A4
:1051E000A2807B68C14A82FB03129215DB17D31A97
:1051F000DBB23033DBB23B737B68BD4A82FB031208
:105200009214DB17D11ABB4B83FB01239A10CB17E7
:10521000D21A13469B0013445B00CA1AD3B2303330
:10522000DBB27B737B68B44A82FB03125213DB1739
:10523000D11AB04B83FB01239A10CB17D21A134615
:105240009B0013445B00CA1AD3B23033DBB2BB738A
:105250007B68AA4A82FB03121213DB17D11AA54BF3
:1052600083FB01239A10CB17D21A13469B001344D9
:105270005B00CA1AD3B23033DBB2FB737B68A04A3F
:1052800082FB03129211DB17D11A9A4B83FB012385
:105290009A10CB17D21A13469B0013445B00CA1A0C
:1052A000D3B23033DBB23B747B68964A82FB031285
:1052B0005211DB17D11A8F4B83FB01239A10CB17A6
:1052C000D21A13469B0013445B00CA1AD3B2303380
:1052D000DBB27B747B68874A82FB03129210DB1778
:1052E000D11A844B83FB01239A10CB17D21A134691
:1052F0009B0013445B00CA1AD3B23033DBB2BB74D9
:1053000079687C4B83FB01239A10CB17D21A134682
:105310009B0013445B00CA1AD3B23033DBB2FB7478
:105320000823BB77BBE07A68774B9A4200F3B780DB
:105330007B68764A82FB03125216DB17D31ADBB264
:105340003033DBB23B737B68684A82FB03129215F1
:10535000DB17D11A674B83FB01239A10CB17D21AA4
:1053600013469B0013445B00CA1AD3B23033DBB23E
:105370007B737B685E4A82FB03129214DB17D11A9F
:105380005C4B83FB01239A10CB17D21A13469B0068
:1053900013445B00CA1AD3B23033DBB2BB737B68F1
:1053A000554A82FB03125213DB17D11A514B83FB70
:1053B00001239A10CB17D21A13469B0013445B00AB
:1053C000CA1AD3B23033DBB2FB737B684B4A82FB21
:1053D00003121213DB17D11A464B83FB01239A10D9
:1053E000CB17D21A13469B0013445B00CA1AD3B2E0
:1053F0003033DBB23B747B68414A82FB031292116B
:10540000DB17D11A3B4B83FB01239A10CB17D21A1F
:1054100013469B0013445B00CA1AD3B23033DBB28D
:105420007B747B68374A82FB03125211DB17D11A57
:10543000304B83FB01239A10CB17D21A13469B00E3
:1054400013445B00CA1AD3B23033DBB2BB747B683F
:10545000284A82FB03129210DB17D11A254B83FBDB
:1054600001239A10CB17D21A13469B0013445B00FA
:10547000CA1AD3B23033DBB2FB7479681D4B83FB9D
:1054800001239A10CB17D21A13469B0013445B00DA
:10549000CA1AD3B23033DBB23B750923BB777B7EAC
:1054A000012B12D0022B34D0002B3FD1F97EBA7FD2
:1054B000134692009B1A5B008033994202DCBB7E4C
:1054C000782B01D9FF2360E030E0FA7EBB7F6FF0DC
:1054D0000A0101FB03F380339A4202DCBB7E702B8E
:1054E00016D9FF2351E000BFFFE0F5056BCA5F6BE3
:1054F00083DE1B436766666689B5F814AD8BDB688F
:10550000D34D62101F85EB51FFC99A3B893BE6558D
:105510000CE0FA7EBB7FC3F108031B019A4202DC58
:10552000BB7E682B01D9FF232FE000BF7B7F012BBF
:1055300003D12D203968FFF71BFA97F91C30002B97
:105540000EDD0023FB7706E030203968FFF710FA04
:10555000FB7F0133FB77FA7F97F91C309A42F3DB2C
:105560000023FB770CE0FB7F07F120010B4413F8CD
:10557000143C18463968FFF7FBF9FB7F0133FB77D2
:10558000FA7FBB7F9A42EED300235BB218462037E6
:10559000BD4680BD80B584B000AF786013460A4632
:1055A0007A803B80FF23FB7200BF2F4B1B899BB28D
:1055B00003F00203002BF8D000BF2B4B1B899BB2DA
:1055C00003F08003002BF8D1FFF75AF836200121B1
:1055D00000F010FEC820002100F00CFE7B88DBB23A
:1055E000013BDAB23B88DBB2013BDBB20020002199
:1055F00000F040FE00BF1C4B1B899BB203F002036E
:10560000002BF8D000BF184B1B899BB203F080031E
:10561000002BF8D11448022100220CF0B3FF1348EC
:1056200000210CF025FE01F069F81148802100F0FE
:10563000C3FC0023FB600AE0FB685B007A6813444C
:105640001B881846FFF764F8FB680133FB60FA68B3
:105650007B88398801FB03F39A42EDD3FB7A5BB276
:1056600018461037BD4680BD003C00401C04024077
:10567000000C014080B584B000AF7860F970BA705A
:105680003B80FF23FB734A48022100220CF07AFF83
:10569000484800210CF0ECFD00BF454B1B899BB234
:1056A00003F00203002BF8D000BF414B1B899BB2D3
:1056B00003F08003002BF8D1FEF7E2FF3620012132
:1056C00000F098FD3B7F032B40D801A252F823F055
:1056D000E15600080F5700084D5700084D570008C5
:1056E000C820002100F086FD3B88DAB2FB78134425
:1056F000DBB2013BDAB23B8BD9B2BB780B44DBB2F5
:10570000013BDBB2F878B97800F0B4FD1EE0A820C8
:10571000002100F06FFD3B8BDAB2FB781344DAB264
:105720006FF07E039B1AD9B23B88DAB2BB78134480
:10573000DBB2013BDAB2FB78C3F1FF2303F57F0351
:105740008033DBB2B87800F0D3FD00BF00F0D6FFA5
:105750001948802100F030FC3B883A8B02FB03F3B0
:105760007868194600F04EFF144B1B68184600215C
:105770000022002309F0F6FE3B883A8B02FB03F37C
:105780009BB2184600F080FF0C4B1B6818460021A6
:105790004FF41672002309F0E5FE0346012B01D1F8
:1057A0000123FB73FB7B5BB218461037BD4680BDFF
:1057B000003C00401C040240000C0140E0DD0020E1
:1057C00080B586B002AF0346FB80FA88624BA3FB2C
:1057D00002139B099BB2FB73FA88FB7B5F4901FBB9
:1057E00003F313445E4A82FB03125211DB17D31AF0
:1057F000BB73FA88FB7B594901FB03F31A44BB7B5B
:105800006FF0630101FB03F31344564A82FB03125A
:105810009210DB17D31A7B73534BB3F870319BB2E2
:105820001A46514BB3F872319BB2D31A4D4A82FBE0
:1058300003125210DB17D31A7B81FA884A4BB3F854
:1058400072319BB2D21A7B8992FBF3F33B81B7F999
:105850000830002B04DA454B1A68454B1A6010E0FB
:10586000B7F90830042B08DCB7F908305A1C3F4B55
:1058700053F822203E4B1A6003E03C4B5A693C4BE4
:105880001A603C4B1B68184600214FF41672002327
:1058900009F068FE0346012B5AD1374B00221A70DB
:1058A000354B00225A70344B50229A70324B1522DD
:1058B000DA70314B4FF4FC62DA802F4B00221A81F0
:1058C0002D4B02225A7100BF2C4B1B899BB203F057
:1058D0000203002BF8D000BF284B1B899BB203F0BA
:1058E0008003002BF8D1FEF7CBFE3620012100F01B
:1058F00081FCC820002100F07DFCFB7B18461E497E
:10590000FFF7BAF91E481C49FFF736F9BB7B18466A
:105910001949FFF7B1F97B7B18461749FFF7ACF936
:1059200018481549FFF728F9114B1B6840220092CF
:10593000012201921846412100221423FFF79AFE0A
:105940000C4B1B68184600210022002309F044FD7F
:105950001037BD4680BD00BFD34D621018FCFFFF5D
:105960001F85EB516766666650DB002078020020D9
:1059700088030020E8DD00208C030020003C00406C
:10598000303D0108343D010880B500AF274B1B684E
:10599000184600214FF41672002309F0E3FD034678
:1059A000012B41D100BF224B1B899BB203F00203A4
:1059B000002BF8D000BF1E4B1B899BB203F0800365
:1059C000002BF8D1FEF75CFE3620012100F012FC1E
:1059D000C820002100F00EFC164B02221A70154B55
:1059E00000225A70134B00229A70124B6422DA7014
:1059F000104B4FF6FF72DA800E4B00221A810D4BCE
:105A000002225A710B4B02221A710B4B9B78DBB2AC
:105A100018460849FFF730F9044B1B681846002167
:105A20000022002309F0D8FC80BD00BFE8DD002083
:105A3000003C00409803002050DB002080B500AF00
:105A4000274B1B68184600214FF41672002309F0FB
:105A500089FD0346012B41D1224B01221A70214BB3
:105A600000225A701F4B37229A701E4B6B22DA703D
:105A70001C4B4FF4FC62DA801A4B00221A81194B3E
:105A800002225A71174B02221A7100BF164B1B8952
:105A90009BB203F00203002BF8D000BF124B1B890E
:105AA0009BB203F08003002BF8D1FEF7E9FD36200E
:105AB000012100F09FFBC820002100F09BFB0B4B55
:105AC0005B899BB218460749FFF7D6F8044B1B6861
:105AD000184600210022002309F07EFC80BD00BF93
