:020000040800F2
:1000000070E0002069400008C9400008C9400008AD
:10001000C9400008C9400008C940000800000000AD
:100020000000000000000000000000008DE3000858
:10003000C9400008000000005DE4000899E40008E1
:10004000C9400008C9400008C94000081D940008C4
:10005000C9400008C9400008C9400008C94000085C
:10006000C9400008C9400008C9400008C94000084C
:10007000C9400008C9400008C94000084D74000884
:10008000C9400008C940000809930008C940000899
:10009000C9400008C9400008C9400008459300084D
:1000A000C9400008C9400008C9400008C94000080C
:1000B00019BB0008E1BD00088DC00008C940000858
:1000C000C9400008C9400008C9400008C9400008EC
:1000D000C9400008B91D0108191F0108C9400008DE
:1000E000C9400008C9400008C9400008C9400008CC
:1000F00039C80008C94000080DC80008C9400008F8
:10010000C9400008C940000839C30008C9400008B8
:10011000C9400008C9400008C9400008EDC50008F2
:10012000C9400008F974000895740008C940000827
:100130005FF808F180B485B000AF02460B46FA7153
:10014000BB71FB79DB08FB73FB7B1A465201D31AA8
:10015000DB00DAB2FB791344BB73BB79002B12D0FE
:10016000FB7BFA7B14498A5CD2B2D1B2BA7BC2F172
:100170000702012000FA02F2D2B20A43D2B2D1B28F
:100180000D4AD15413E0FB7BFA7B0B498A5CD2B257
:10019000D1B2BA7BC2F10702012000FA02F2D2B258
:1001A000D243D2B20A40D2B2D1B2034AD1541437A8
:1001B000BD465DF8047B7047A0CB002080B582B0BF
:1001C00000AF0023FB7170E011F0AEFF0346BB717E
:1001D000BB79DBB2652B38D0652B04DC302B0ED01D
:1001E000312B1FD061E0682B02D0742B32D05CE041
:1001F000334B01221A70334B00221A8055E0304BEA
:100200001B78DBB2002B0CD02E4B1B889BB25A1CE8
:1002100091B22C4A1180DBB218460021FFF78AFF09
:1002200043E042E0264B1B78DBB2002B0CD0254B81
:100230001B889BB25A1C91B2224A1180DBB218462D
:100240000121FFF777FF30E02FE01D4B00221A70ED
:10025000032330E01A4B1B78DBB2002B21D0194B63
:100260001B889BB2002B1CD0164B1B889BB2182BF3
:100270000DD0182B02DC0E2B06D00BE0682B06D01D
:10028000B3F59C7F03D005E00123FB7104E002235A
:10029000FB7101E00323FB71094B00221A70FB790B
:1002A00009E0074B00221A7000BF11F06BFF0346F4
:1002B000002B89D1FB7918460837BD4680BD00BFA9
:1002C000F0000020F200002080B485B000AF0346AB
:1002D000FB71FB79DB08FB73FB7B1A465201D31AD7
:1002E000DB00DAB2FB791344BB73FB7B0A4AD35CB5
:1002F000DBB21A46BB7BC3F1070342FA03F303F0F8
:100300000103002B01D0012300E00023184614371D
:10031000BD465DF8047B7047A0CB0020B0B58AB025
:1003200000AFFFF74BFF0346032B00F2778201A2D9
:1003300052F823F01D080008450300087F03000859
:100340001D0800080020FFF7BFFF0346002B15D152
:1003500000F07AFA0246B54B11461970C2F3072134
:100360005970C2F307429A70B04B186808F014F83D
:1003700011F0A4FEAE4B00221A704FE24EE2AD4CDB
:100380003B46184600F096FA3D460FCD0FC40FCD00
:100390000FC495E8030084E80300A64B1B78DBB28A
:1003A000803B292B00F2348201A252F823F000BFD7
:1003B0001108000811080008110800089507000836
:1003C0001108000811080008110800085904000865
:1003D0001108000811080008110800081108000899
:1003E0001108000811080008110800081108000889
:1003F0001108000811080008110800081108000879
:100400001108000811080008110800081108000868
:100410001108000811080008110800081108000858
:100420001108000811080008110800081108000848
:100430001108000811080008110800081108000838
:100440001108000811080008110800081108000828
:100450001108000811080008764B5B78DBB2012B0D
:1004600000F09681022B00D0D2E1724B1B7ADBB2F6
:10047000042B00F28B8101A252F823F091040008B2
:100480008B0600080D0700084507000855070008FF
:10049000694BD3F87821674BDB689A4213D1674BDD
:1004A0001B78DBB2002B0ED0624B9B79DAB2644B27
:1004B0001B78DBB29A4205D05E4B9B79DAB2604B77
:1004C0001A70DEE0DDE05C4BD3F87821594BDB6835
:1004D0009A4253D1594B1B78DBB2002B4ED1574B6C
:1004E00001221A70544B00225A81524BDB79DAB246
:1004F000514B9A7009F08CFC09F090FC09F082FCD9
:100500004C4B9B79DAB24E4B1B78DBB29A4223D02C
:10051000484B9B79DBB2002B0AD009F0A3FC494B76
:100520001B6818460021002200230DF08DFC0DE011
:10053000444B1B68184600214FF4167200230DF03F
:1005400049FD0346012B01D109F0E6FC394B9B79AB
:10055000DAB23B4B1A7010E0394B1B78DBB2002B40
:100560000BD109F0D9FC3848802105F08DFA0346FB
:10057000012B02D109F07EFB83E082E02E4BD3F801
:1005800078212C4BDB689A427BD02A4BDA682A4BC5
:10059000C3F87821284B9B899AB2274BDA81264BE6
:1005A00000221A76294B1B681846002100220023DE
:1005B0000DF04AFC264B1B68184600214FF41672BA
:1005C00000230DF007FD0346012B09D108F0C0FA06
:1005D0001F4B1B6818460021002200230DF034FC3D
:1005E000154B00225A81134BDB79DAB2124B9A7009
:1005F000104B9B79DAB2124B1B78DBB29A4229D0AE
:100600000C4B9B79DBB2002B09D009F02BFC0D4B76
:100610001B6818460021002200230DF015FC054B35
:100620009B79DAB2064B1A702BE000BF94CB002006
:10063000F0000020F400002018D700201C0100204A
:1006400070D9002058D9002000100140FCD60020AD
:1006500054D90020734B1B78DBB2002B06D009F075
:10066000D7FB09F0DBFB09F0CDFB0AE009F054FCF5
:100670006D48802105F008FA0346012B01D109F0ED
:10068000F9FA6A4B01221A7081E0694BDA68694B0A
:10069000C3F87821674B9B899AB2664BDA81654B28
:1006A00000221A76644B1B681846002100220023A2
:1006B0000DF0CAFB614B1B68184600214FF41672FF
:1006C00000230DF087FC0346012B09D108F040FA06
:1006D0005A4B1B6818460021002200230DF0B4FB82
:1006E000544B00225A81524BDB79DAB2514B9A704B
:1006F00009F0B8FB524B1B6818460021002200236A
:100700000DF0A2FB474B01221A7040E0454B00223E
:100710001A704B4B1B68184600214FF416720023C9
:100720000DF058FC0346012B01D109F0F5FB3E48C2
:10073000802105F0A9F90346012B02D109F09AFAAC
:1007400025E024E03A4BDB79DAB23A4B9A7009F0B3
:1007500059FB1CE0364B1B79DBB2184607F074FBE3
:10076000334B5B79DBB2184607F086FB304B9B7945
:10077000DAB22C4B1B78DBB29A4204D02C4B9B791B
:10078000DAB2284B1A70274B1B7800E000BF00E05C
:1007900000BF3DE0264B5B78DBB2002B36D0052B4B
:1007A00000D034E0234BDB78DAB2224B9A70214B35
:1007B0009B899AB21F4BDA811E4BDB899BB20820C2
:1007C000194611F085FA1B4B00225A81194B5B899F
:1007D0009BB20420194611F07BFA09F043FB184B39
:1007E0001B6818460021002200230DF02DFB114B41
:1007F00003221A76104B1B681846002100220023A2
:100800000DF022FB074B01221A7000E000BF00BF71
:1008100011F054FC0B4B00221A7000BF2837BD4664
:10082000B0BD00BF70D90020001001401C010020A5
:10083000F400002018D70020FCD6002054D9002056
:1008400058D90020F000002080B483B000AF174BCF
:100850001B78DBB23B70154B5B78FB71FB799B001F
:10086000FB71FB791B09FB71FB79114AD35CBB70EF
:100870000E4B5B78DBB29B09DBB27B703B1D3A46CB
:100880001268114619800233120C1A7000233A794B
:1008900062F307037A7962F30F23BA7962F317439D
:1008A00018460C37BD465DF8047B7047A0CB00208E
:1008B000042F0108B0B48FB000AF78602F4B1B78C5
:1008C000DBB23B732D4B5B78DBB27B732B4B9B789E
:1008D000DBB2BB733B7B872B00D03EE07B7B022BE4
:1008E00000D039E0254BDB78DBB23B74234B1B791E
:1008F000DBB27B74214B5B79DBB2BB741F4B9B7902
:10090000DBB2FB741D4BDB79DBB23B7507F10C03EB
:100910000C337B63194B1B7ADAB27B6B1A707B6BDF
:1009200001337B63154B5B7ADAB27B6B1A707B6B9E
:1009300001337B63114B9B7ADAB27B6B1A707B6B52
:1009400001337B630D4BDB7ADAB27B6B1A700B4B96
:100950001B7BDBB23B7700BF00BF7B681C4607F107
:100960000C050FCD0FC40FCD0FC495E8030084E82C
:10097000030078683C37BD46B0BC7047A0CB002070
:1009800080B483B000AF02460B46FA807B717B795E
:10099000002B08D00B4B0B4A128891B2FA880A43FD
:1009A00092B21A8009E0074B064A128891B2FA887F
:1009B000D24392B20A4092B21A800C37BD465DF81B
:1009C000047B70470028004080B400AF054B054A07
:1009D000928892B242F0100292B29A80BD465DF8BF
:1009E000047B70470028004080B400AF054B054AE7
:1009F000928892B222F0100292B29A80BD465DF8BF
:100A0000047B70470028004080B483B000AF00230F
:100A1000FB80074B9B8BFB80054B1B8B9BB21A0407
:100A2000FB88134318460C37BD465DF8047B7047BE
:100A30000028004080B582B000AF7860FFF7C4FFA7
:100A4000064B7A68120C92B21A83044B7A6892B2FF
:100A50009A83FFF7C9FF0837BD4680BD00280040D4
:100A600080B582B000AF7860FFF7AEFF074B7A68C1
:100A700002F47022120C92B21A81044B7A6892B27C
:100A80009A81FFF7B1FF0837BD4680BD00280040BE
:100A900080B400AF00BF054B9B889BB203F02003DE
:100AA000002BF8D0BD465DF8047B7047002800405D
:100AB00080B400AF094B094A928892B222F0080232
:100AC00092B29A8000BF054B9B889BB203F008034B
:100AD000002BF8D0BD465DF8047B7047002800402D
:100AE00080B485B000AF0346FB800023FB730F4B3F
:100AF0009B889BB2DAB2FB88DBB21340FB730B4BD3
:100B00001B889AB2FB8813409BB2002B05D0FB7B5D
:100B1000002B02D00123FB7301E00023FB73FB7B5E
:100B200018461437BD465DF8047B70470028004026
:100B300080B483B000AF0346FB80074B064A92881F
:100B400091B2FA88D24392B20A4092B29A800C379C
:100B5000BD465DF8047B70470028004080B582B038
:100B600000AF78607A68784B9A420AD14FF40060FF
:100B7000012108F057FF4FF40060002108F052FFF8
:100B8000DEE07B68B3F1804F08D10120012108F03D
:100B900067FF0120002108F063FFD1E07A686B4B0A
:100BA0009A4208D10220012108F05AFF02200021B8
:100BB00008F056FFC4E07A68654B9A4208D10420D9
:100BC000012108F04DFF0420002108F049FFB7E0A3
:100BD0007A68604B9A4208D10820012108F040FF52
:100BE0000820002108F03CFFAAE07A685A4B9A429C
:100BF00008D11020012108F033FF1020002108F057
:100C00002FFF9DE07A68554B9A4208D120200121A0
:100C100008F026FF2020002108F022FF90E07A68EB
:100C20004F4B9A420AD14FF40050012108F0FAFECE
:100C30004FF40050002108F0F5FE81E07A68494B3E
:100C40009A420AD14FF40020012108F0EBFE4FF444
:100C50000020002108F0E6FE72E07A68424B9A42DA
:100C60000AD14FF48010012108F0DCFE4FF480100F
:100C7000002108F0D7FE63E07A683C4B9A420AD123
:100C80004FF40010012108F0CDFE4FF400100021B8
:100C900008F0C8FE54E07A68354B9A4208D14020EB
:100CA000012108F0DDFE4020002108F0D9FE47E0D8
:100CB0007A68304B9A4208D18020012108F0D0FE9A
:100CC0008020002108F0CCFE3AE07A682A4B9A4254
:100CD0000AD14FF48070012108F0C2FE4FF48070F9
:100CE000002108F0BDFE2BE07A68244B9A420AD11D
:100CF0004FF48030012108F095FE4FF48030002140
:100D000008F090FE1CE07A681D4B9A420AD14FF41D
:100D10000030012108F086FE4FF40030002108F079
:100D200081FE0DE07A68174B9A4209D14FF480207A
:100D3000012108F077FE4FF48020002108F072FEB8
:100D40000837BD4680BD00BF002C014000040040B4
:100D500000080040000C004000100040001400405B
:100D600000340140004C014000500140005401405B
:100D700000180040001C00400020004000400140DE
:100D8000004401400048014080B485B000AF786065
:100D900039600023FB817B681B88FB817A682E4BBE
:100DA0009A4213D07A682D4B9A420FD07B68B3F1E8
:100DB000804F0BD07A682A4B9A4207D07A68294B29
:100DC0009A4203D07A68284B9A4208D1FB8923F0D3
:100DD0007003FB813B685A88FB891343FB817A6867
:100DE000224B9A420CD07A68214B9A4208D0FB8958
:100DF00023F44073FB813B68DA88FB891343FB8152
:100E00007B68FA891A803B689A887B689A853B6878
:100E10001A887B681A857A680F4B9A420FD07A68D5
:100E20000E4B9A420BD07A68124B9A4207D07A68DE
:100E3000114B9A4203D07A68104B9A4204D13B6816
:100E40001B7A1A467B681A867B6801229A821437BD
:100E5000BD465DF8047B7047002C01400034014022
:100E60000004004000080040000C0040001000405A
:100E7000001400400040014000440140004801408F
:100E800080B485B000AF7860396000237B81002397
:100E9000FB810023BB817B681B8C9BB223F0010389
:100EA0009AB27B681A847B681B8CFB817B689B8869
:100EB000BB817B681B8B7B817B8923F070037B81EB
:100EC0007B8923F003037B813B681A887B8913436A
:100ED0007B81FB8923F00203FB813B681A89FB8934
:100EE0001343FB813B685A88FB891343FB817A6873
:100EF000244B9A420FD07A68234B9A420BD07A68DF
:100F0000224B9A4207D07A68214B9A4203D07A68E2
:100F1000204B9A4223D1FB8923F00803FB813B68D5
:100F20005A89FB891343FB81FB8923F00403FB816E
:100F30003B689A88FB891343FB81BB8923F4807348
:100F4000BB81BB8923F40073BB813B689A89BB8951
:100F50001343BB813B68DA89BB891343BB817B6840
:100F6000BA899A807B687A891A833B68DA887B68B9
:100F70009A867B68FA891A841437BD465DF8047B2B
:100F8000704700BF002C0140003401400040014088
:100F9000004401400048014080B485B000AF786053
:100FA000396000237B810023FB810023BB817B68A8
:100FB0001B8C9BB223F480739AB27B681A847B6883
:100FC0001B8CFB817B689B88BB817B689B8B7B81B7
:100FD0007B8923F070037B817B8923F003037B8172
:100FE0003B681A887B8913437B81FB8923F4007358
:100FF000FB813B681B891B029AB2FB891343FB816F
:101000003B685B881B029AB2FB891343FB817A68B9
:10101000224B9A4203D07A68214B9A422BD1FB890A
:1010200023F40063FB813B685B891B029AB2FB8956
:101030001343FB81FB8923F48063FB813B689B881E
:101040001B029AB2FB891343FB81BB8923F48053B3
:10105000BB81BB8923F40053BB813B689B891B0187
:101060009AB2BB891343BB813B68DB891B019AB2EF
:10107000BB891343BB817B68BA899A807B687A8974
:101080009A833B68DA887B689A877B68FA891A8436
:101090001437BD465DF8047B704700BF002C01404B
:1010A0000034014080B584B000AF7860396000231F
:1010B000FB810123BB813B685B88002B02D10223AB
:1010C000FB8101E00023FB813B689B88012B02D15F
:1010D0000223BB8101E00123BB813B681B88002BFD
:1010E0001CD13B6859883B689A883B681B897868A3
:1010F00000F04AFA3B68DB887868194600F088F906
:101100003B681B89F989BA89786800F0A7FA3B68BF
:10111000DB887868194600F097F91BE03B6859882E
:101120003B689A883B681B89786800F097FA3B68AF
:10113000DB887868194600F087F93B681B89F989D4
:10114000BA89786800F020FA3B68DB88786819462D
:1011500000F05EF91037BD4680BD00BF80B483B09B
:1011600000AF786039603B681A883B685B8813433E
:101170009AB23B689B8813439AB23B68DB8813435F
:101180009AB23B681B8913439AB23B685B8913434D
:101190009AB23B689B8913439AB27B68A3F84420B8
:1011A0000C37BD465DF8047B704700BF80B483B048
:1011B00000AF78607B684FF6FF729A807B680022F0
:1011C0001A807B680022DA807B6800225A807B6864
:1011D00000221A720C37BD465DF8047B704700BFD1
:1011E00080B483B000AF78607B6800221A807B688F
:1011F00000225A807B6800229A807B680022DA8075
:101200007B6800221A817B6800225A817B68002259
:101210009A817B680022DA810C37BD465DF8047B39
:10122000704700BF80B483B000AF78607B68002255
:101230001A807B6800225A807B6800229A807B6833
:101240000022DA807B6800221A817B6800225A81A2
:101250007B6800229A810C37BD465DF8047B70479D
:1012600080B483B000AF78600B46FB70FB78002B36
:1012700008D07B681B889BB243F001039AB27B685D
:101280001A8007E07B681B889BB223F001039AB2A7
:101290007B681A800C37BD465DF8047B704700BF41
:1012A00080B483B000AF786013460A467A807B70C2
:1012B0007B78002B08D07B689B899AB27B8813438C
:1012C0009AB27B689A8109E07B689B899AB27B8895
:1012D000DB439BB213409AB27B689A810C37BD46C0
:1012E0005DF8047B704700BF80B483B000AF7860C6
:1012F00013460A467A807B707B78002B08D07B6887
:101300009B899AB27B8813439AB27B689A8109E0E1
:101310007B689B899AB27B88DB439BB213409AB26D
:101320007B689A810C37BD465DF8047B704700BF2F
:1013300080B485B000AF78600B467B800023FB81D2
:101340007B681B89FB81FB8923F07003FB81FA8991
:101350007B881343FB817B68FA891A811437BD4669
:101360005DF8047B704700BF80B483B000AF786045
:101370000B467B807B689B889BB223F070039AB2FC
:101380007B689A807B689B889AB27B8813439AB269
:101390007B689A800C37BD465DF8047B704700BFC0
:1013A00080B483B000AF78600B467B807B681B897C
:1013B0009BB223F007039AB27B681A817B681B8972
:1013C0009AB27B8813439AB27B681A810C37BD4668
:1013D0005DF8047B704700BF80B483B000AF7860D5
:1013E0000B467B807B681B899BB223F080039AB2FB
:1013F0007B681A817B681B899AB27B8813439AB2F7
:101400007B681A810C37BD465DF8047B704700BFCE
:1014100080B483B000AF78600B467B807B681B8B09
:101420009BB223F00C039AB27B681A837B681B8BF8
:101430009AB27B8813439AB27B681A830C37BD46F5
:101440005DF8047B704700BF80B483B000AF786064
:101450000B467B807B681B8B9BB223F440639AB264
:101460007B681A837B681B8B9AB27B881B029BB2BA
:1014700013439AB27B681A830C37BD465DF8047B30
:10148000704700BF80B483B000AF78607B689B8EEC
:101490009BB218460C37BD465DF8047B704700BF11
:1014A00080B483B000AF78607B681B8F9BB2184616
:1014B0000C37BD465DF8047B704700BF80B485B033
:1014C00000AF78600B467B800023FB737B681B8A30
:1014D0009AB27B8813409BB2002B02D00123FB738E
:1014E00001E00023FB73FB7B18461437BD465DF813
:1014F000047B704780B483B000AF78600B467B807C
:101500007B88DB439AB27B681A820C37BD465DF854
:10151000047B704780B485B000AF78600B467B8059
:101520000023FB730023BB8100237B817B681B8A24
:101530009AB27B881340BB817B689B899AB27B8877
:1015400013407B81BB89002B05D07B89002B02D007
:101550000123FB7301E00023FB73FB7B1846143768
:10156000BD465DF8047B704780B483B000AF7860FF
:101570000B467B807B88DB439AB27B681A820C37F0
:10158000BD465DF8047B704780B487B000AFF8605B
:1015900079813A81FB800023BB820023FB82FB68B8
:1015A0001B8C9BB223F001039AB2FB681A84FB6880
:1015B0001B8BBB82FB681B8CFB82BB8A23F0F30373
:1015C000BB82FB881B019AB23B8913439AB2BB8A48
:1015D0001343BB82FA681C4B9A4213D0FA681B4B28
:1015E0009A420FD0FB68B3F1804F0BD0FA68184BCA
:1015F0009A4207D0FA68174B9A4203D0FA68164B02
:101600009A420BD1FB8A23F00203FB827A89FB8A80
:1016100013439BB243F00103FB820AE0FB8A23F0F1
:101620000A03FB827A89FB8A13439BB243F00103CE
:10163000FB82FB68BA8A1A83FB68FA8A1A841C3711
:10164000BD465DF8047B7047002C0140003401402A
:101650000004004000080040000C004080B487B047
:1016600000AFF86079813A81FB800023BB820023C0
:10167000FB8200237B82FB681B8C9BB223F0100350
:101680009AB2FB681A84FB681B8BBB82FB681B8CBD
:10169000FB827B891B017B82BB8A23F440731B0581
:1016A0001B0DBB82FB881B039AB2BB8A1343BB8210
:1016B0003B891B029AB2BB8A1343BB82FA681C4B5C
:1016C0009A4213D0FA681B4B9A420FD0FB68B3F1D1
:1016D000804F0BD0FA68184B9A4207D0FA68174B24
:1016E0009A4203D0FA68164B9A420BD1FB8A23F038
:1016F0002003FB827A8AFB8A13439BB243F01003D8
:10170000FB820AE0FB8A23F0A003FB827A89FB8A32
:1017100013439BB243F01003FB82FB68BA8A1A831F
:10172000FB68FA8A1A841C37BD465DF8047B704753
:10173000002C01400034014000040040000800403B
:10174000000C004080B500AF054B1B78DBB2002BCE
:1017500002D008F08FFA01E008F08CFA80BD00BFDB
:1017600070D9002080B500AF0E4B1B78DBB2002B88
:1017700012D00D4B1B68184600214FF4167200233F
:101780000CF028FC0346012B06D1064B00221A70F0
:1017900008F0BEF908F046FA08F0BAF908F042FA83
:1017A00080BD00BF70D9002058D9002080B582B01C
:1017B00000AF3020012108F0F9F84FF4F853BB8056
:1017C0000323BB711823FB713B1D1048194604F01D
:1017D0008BF80423BB803B1D0D48194604F084F8A8
:1017E0000823BB804823FB713B1D0948194604F0C0
:1017F0007BF84FF48060012108F0BAF80220012143
:1018000008F0B6F80837BD4680BD00BF00100140A3
:101810000014014080B500AF02480FF02DFB0346D5
:10182000184680BD0020001080B58EB000AF7860F3
:10183000396017480FF04AFB164800210FF0D4FA20
:10184000154BFB607B683B6100237B613B689B0819
:10185000BB610023FB6180233B624FF400737B621A
:101860004FF40063BB620023FB624FF400533B6301
:1018700000237B6307F10C03064819460FF076FA44
:10188000044801210FF0B0FA3837BD4680BD00BFD3
:1018900000F00010440402408080014080B58EB00A
:1018A00000AF7860396017480FF010FB1648002130
:1018B0000FF09AFA154BFB607B683B6110237B614C
:1018C0003B689B08BB610023FB6180233B624FF4B4
:1018D00000737B624FF40063BB620023FB624FF432
:1018E00000533B6300237B6307F10C030648194652
:1018F0000FF03CFA044801210FF076FA3837BD4664
:1019000080BD00BF00F00010440402408080014010
:1019100080B582B000AF2A23FB71FFF747FF0CF0C0
:1019200069FE00F053F80346FB71FB792A2B01D0C6
:10193000FB7943E000F056F90346FB71FB792A2B53
:1019400001D0FB793AE01F4B01221A751D4B002292
:101950001A601C4B00225A601A4B00229A60194BE5
:101960000022DA60174B00221A6116480CF068FE5C
:10197000FB792A2B04D1144800F0FAF90346FB71D5
:10198000FB792A2B08D1104BB3F84C301B041846B6
:1019900000F02AFD0346FB71FB792A2B05D14FF499
:1019A000006000F097FC0346FB71FB792A2B04D101
:1019B000002000F0FBFC0346FB71FB79184608375A
:1019C000BD4680BD5CCC00200CCC002080B586B02C
:1019D00000AF2A23FB7500233B610023FB6000233B
:1019E000BB6000237B607C4BB2221A757A4B0022CD
:1019F0001A60794B00225A60774B00229A60764B2E
:101A00000022DA60744B00221A6173480CF018FE51
:101A100003200CF053FE01200CF040FE6F4B00221F
:101A20001A606E4B00225A606C4B00229A606B4B1E
:101A30000022DA60694B4FF480621A6167480CF04B
:101A400091FE01F095FD0346FB75FB7D2A2B01D02D
:101A5000FB7DBDE0614B4FF4D5721A605F4B0822ED
:101A60005A605E4B40229A605C4B0022DA605B4B0E
:101A70004FF480621A6159480CF074FE01F09EFD2B
:101A80000346FB75FB7D2A2B06D1554B01221A60BC
:101A90004FF080437B6017E0504B00221A604F4BA1
:101AA00037225A604D4B40229A604C4B0022DA603C
:101AB0004A4B4FF480621A6148480CF053FE3720BD
:101AC00001F0B8FD0346FB75444B00221A60434BFE
:101AD00037225A60414B40229A60404B0022DA6024
:101AE0003E4B4FF480621A613C480CF03BFE3720BD
:101AF00001F0A0FD0346FB75FB7D2A2B67D14BE06F
:101B0000364B00221A60354B37225A60334B402245
:101B10009A60324B0022DA60304B4FF480621A61D7
:101B20002E480CF01FFE372001F084FD0346FB75A4
:101B3000FB7D2A2B01D0FB7D4AE07B6843F000430C
:101B400043F48013254A1360244B29225A60234B07
:101B500040229A60214B0022DA60204B4FF48062D1
:101B60001A611E480CF0FEFD01F034FE0346FB75C1
:101B7000FB7D2A2B01D0FB7D2AE000200CF02AFE01
:101B800038613B69DB0F012B14BF00230123DBB25B
:101B9000BB60FB680133FB60BB68002B04D1FA68B3
:101BA0004FF6FE739A42ABD9FA684FF6FE739A422B
:101BB00003D91B23FB75FB7D0AE03B6903F08043DF
:101BC0003B613B69002B02D0054B02221A60FB7D72
:101BD00018461837BD4680BD5CCC0020F4CB0020F1
:101BE0002001002080B582B000AF2A23FB710123C1
:101BF000BB800CF07BFD0346002B03D12523FB713A
:101C0000FB79A7E0554B1B68042B33D0544B0022C3
:101C10001A60534B02225A60514BC0229A60504BBB
:101C20000022DA604E4B4FF480621A614C480CF08F
:101C300099FD01F0F7FD0346FB71FB792A2B01D0DA
:101C4000FB7987E000200CF0C5FD0246454B1A6089
:101C500004200CF0BFFD0246424B5A6008200CF0F5
:101C6000B9FD02463F4B9A600C200CF0B3FD0246D2
:101C70003C4BDA60394B1B68002B0BD0374B1B6891
:101C8000012B07D0354B1B68062B03D0334B1B6849
:101C9000022B1ED1324B00221A60314B03225A60B4
:101CA0002F4B40229A602E4B0022DA602C4B4FF4CF
:101CB00080621A612A480CF055FD3B1D032019462D
:101CC00001F0E4FD0346FB71FB792A2B01D0FB797F
:101CD00040E0224B1B68042B39D0BB881A46224BAC
:101CE0001A60BB881B041A461D4B1A601C4B092244
:101CF0005A601B4BC0229A60194B0022DA60184BC5
:101D00004FF480621A6116480CF02CFD01F08AFD38
:101D10000346FB71FB792A2B01D0FB791AE00020E6
:101D20000CF058FD0246114B1A6004200CF052FDD5
:101D300002460E4B5A6008200CF04CFD02460B4B3D
:101D40009A600C200CF046FD0246084BDA602A230C
:101D5000FB71FB7918460837BD4680BD2001002085
:101D6000F4CB002034010020440100202401002095
:101D700080B485B000AF78602A23BB730023FB7367
:101D80007C4B1B68DAB27B6883F84E207A4B1B6869
:101D90009AB27B68A3F84C20784B1B681B0EFB7330
:101DA000FB7B9B09DAB27B681A70FB7B03F03C0378
:101DB0009B10DAB27B685A70FB7B03F00303DAB244
:101DC0007B689A706D4B1B6803F47F031B0CFB73DD
:101DD0007B68FA7BDA70694B1B6803F47F431B0A4C
:101DE000FB737B68FA7B1A71644B1B68FB737B681F
:101DF000FA7B5A71614B5B681B0EFB73FB7B9BB2DA
:101E00001B019AB27B68DA805C4B5B6803F47F034A
:101E10001B0CFB737B68DB889AB2FB7B1B09DBB274
:101E200013439AB27B68DA80FB7B03F00F03DAB2CC
:101E30007B681A72514B5B6803F47F431B0AFB7388
:101E4000FB7BDB09DAB27B685A72FB7B03F0400351
:101E50009B11DAB27B689A72FB7B03F020035B1163
:101E6000DAB27B68DA72FB7B03F010031B11DAB283
:101E70007B681A737B6800225A733E4B1B68002BE9
:101E800003D03C4B1B68012B7AD1FB7B03F003038F
:101E90009B021A467B681A61384B5B68FB737B6850
:101EA0001A69FB7B9B001A437B681A61334B9B6862
:101EB0001B0EFB737B681A69FB7B9B09DBB21A4321
:101EC0007B681A61FB7B03F03803DB10DAB27B68B6
:101ED0001A75FB7B03F00703DAB27B685A75274B50
:101EE0009B6803F47F031B0CFB73FB7B5B09DAB27B
:101EF0007B689A75FB7B03F01C039B10DAB27B684E
:101F0000DA75FB7B03F00303DBB25B00DAB27B68BC
:101F10001A761A4B9B6803F47F431B0AFB737B689A
:101F20001B7EDAB2FB7BDB09DBB21343DAB27B68E0
:101F30001A767B681B695A1C7B685A647B685A6CEA
:101F40007B681B7EDBB202339A407B685A647B68F5
:101F50001B7ADBB2012202FA03F31A467B689A6409
:101F60007B685B6C7A68926C02FB03F27B685A6454
:101F70003BE000BF2001002044010020240100209C
:101F8000A94B1B68022B30D1A84B5B68FB73FB7B12
:101F900003F03F031B041A467B681A61A34B9B683E
:101FA0001B0EFB737B681A69FB7B1B021A437B6861
:101FB0001A619E4B9B6803F47F031B0CFB737B68C9
:101FC0001A69FB7B1A437B681A61984B9B6803F480
:101FD0007F431B0AFB737B681B690133DA047B6850
:101FE0005A647B684FF400729A64FB7B03F04003F1
:101FF0009B11DAB27B685A76FB7B03F03F03DBB2BE
:102000005B00DAB27B689A76884B9B68FB737B68CF
:102010009B7EDAB2FB7BDB09DBB21343DAB27B686F
:102020009A76FB7B03F07F03DAB27B68DA767F4B2C
:10203000DB681B0EFB73FB7BDB09DAB27B681A776C
:10204000FB7B03F060035B11DAB27B685A77FB7BA2
:1020500003F01C039B10DAB27B689A77FB7B03F0DA
:102060000303DBB29B00DAB27B68DA776F4BDB6885
:1020700003F47F031B0CFB737B68DB7FDAB2FB7B13
:102080009B09DBB21343DAB27B68DA77FB7B03F0A0
:1020900020035B11DAB27B6883F820207B68002282
:1020A00083F82120FB7B03F00103DAB27B6883F81D
:1020B00022205E4BDB6803F47F431B0AFB73FB7B30
:1020C000DB09DAB27B6883F82320FB7B03F0400353
:1020D0009B11DAB27B6883F82420FB7B03F020039A
:1020E0005B11DAB27B6883F82520FB7B03F01003D9
:1020F0001B11DAB27B6883F82620FB7B03F00C030C
:102100009B10DAB27B6883F82720FB7B03F0030384
:10211000DAB27B6883F82820444BDB68FB73FB7BD7
:102120005B08DAB27B6883F829207B68012283F898
:102130002A203F4B1B681B0EFB737B68FA7B83F8DE
:102140002C203B4B1B6803F47F031B0CFB73FB7BB6
:102150009BB21B029AB27B68DA85354B1B6803F48D
:102160007F431B0AFB737B68DB8D9AB2FB7B9BB2C0
:1021700013439AB27B68DA852D4B1B68FB73FB7B9C
:102180001B061A467B681A63294B5B681B0EFB73A0
:102190007B681A6BFB7B1B041A437B681A63244B16
:1021A0005B6803F47F031B0CFB737B681A6BFB7B80
:1021B0001B021A437B681A631D4B5B6803F47F4361
:1021C0001B0AFB737B681A6BFB7B1A437B681A63E1
:1021D000174B5B68FB737B68FA7B83F83420144BE6
:1021E0009B681B0EFB737B68FA7B83F83520104BD2
:1021F0009B6803F47F031B0CFB73FB7B1B061A46D7
:102200007B689A630A4B9B6803F47F431B0AFB734A
:102210007B689A6BFB7B1B041A437B689A63044BB5
:102220009B68FB737B6805E02001002024010020EF
:10223000340100209A6BFB7B1B021A437B689A6374
:10224000234BDB681B0EFB737B689A6BFB7B1A438B
:102250007B689A631E4BDB6803F47F031B0CFB73E4
:102260007B6893F83C30DAB2FB7B1B09DBB213438B
:10227000DAB27B6883F83C20FB7B9BB203F00F0350
:102280009BB21B029AB27B68DA87114BDB6803F4BE
:102290007F431B0AFB737B68DB8F9AB2FB7B9BB28D
:1022A00013439AB27B68DA87094BDB68FB73FB7BCD
:1022B0005B08DAB27B6883F840207B68012283F8F0
:1022C0004120BB7B18461437BD465DF8047B704740
:1022D0003401002080B584B000AF78602A23FB73FE
:1022E000304B1B68032B03D12723FB73FB7B54E08C
:1022F0002C4B1B68002B07D02A4B1B68012B03D0EB
:10230000284B1B68022B47D17B68B3F5805F03D154
:102310002723FB73FB7B40E07B68B3F5006F1ED186
:10232000012001F019FB0346FB73FB7B2A2B33D101
:102330001D4B01221A751C4B00221A601A4B0022F9
:102340005A60194B00229A60174B4FF40062DA6012
:10235000154B00221A6114480CF072F91CE00020A1
:1023600001F0FAFA0346FB73FB7B2A2B14D10E4BC8
:1023700001221A750C4B00221A600B4B00225A6086
:10238000094B00229A60084B0022DA60064B0022BB
:102390001A6105480CF054F9FB7B18461037BD460E
:1023A00080BD00BF200100205CCC002080B485B03F
:1023B00000AF78602A23FB737B68002B05D07B6815
:1023C000012B02D07B68022B03D1064B7A681A607E
:1023D00001E02623FB73FB7B18461437BD465DF8EE
:1023E000047B70470000002080B584B000AF7860A7
:1023F0002A23FB730E4B7A681A600D4B07225A6032
:102400000B4B40229A600A4B0022DA60084B4FF4D3
:1024100080621A6106480CF0A5F9072001F00AF95C
:102420000346FB73FB7B18461037BD4680BD00BFDB
:10243000F4CB002090B589B000AFF860B9601346C6
:10244000FB802A23FB750023FB61FB68BB61002333
:10245000BB75FB68002B03D12623FB75FB7D77E161
:102460009B4B2A221A709B4B00221A609A4B002227
:102470001A609A4B9A4A1A60984B00225A60974BFE
:1024800000229A60954B0022DA60944B00221A6178
:10249000924B00225A6191480CF0B0F900200CF0E8
:1024A00051F900200CF096F9034603F00073002B5D
:1024B00003D00E23FB75FB7D4AE18A4B1B68022B80
:1024C00005D14FF40073FB80BB685B0ABB60FB88DF
:1024D000002B68D0FB88B3F5006F64D8FA88FB88BE
:1024E000013B1340002B5ED1FB88184601F0EEFC47
:1024F0000346BB75FA887C4B1A607B4B10225A60EE
:10250000794B40229A60784B0022DA60764B4FF488
:1025100080621A6174480CF025F9102001F08AF8E5
:102520000346FB75FB7D2A2B01D0FB7D10E100BF2C
:102530006A4B6B4A1A60FA88684B5A60BB7D1A0175
:10254000664B9A60654B0222DA60644B00221A6186
:10255000624B01225A6161480CF050F9FA885E4BD7
:102560001A60624B00221A60614BFA681A605E4B77
:10257000BA681A605C4B11225A605B4B40229A6029
:10258000594B0022DA60584B4FF480621A6156486A
:102590000CF0E8F8112001F04DF80346FB75FB7DC7
:1025A0002A2B06D003E02623FB75FB7DD0E0FB7DC4
:1025B000CEE0504B1B68022B6DD11AE04FF4004067
:1025C0000CF066F90346002B13D00023FB610AE0F0
:1025D000FB699B00BA69D4180CF03EF903462360EE
:1025E000FB690133FB61FB69072BF1D9BB69203320
:1025F000BB61414B5A6B40F22A631340002BDDD084
:1026000008200CF045F90346002B06D008200CF0FA
:1026100059F90423FB75FB7D9AE002200CF038F990
:102620000346002B06D002200CF04CF90223FB7568
:10263000FB7D8DE020200CF02BF90346002B06D00B
:1026400020200CF03FF90623FB75FB7D80E04FF462
:1026500000700CF01DF90346002B07D04FF40070FA
:102660000CF030F90723FB75FB7D71E007E00CF0FF
:10267000F3F80246BB691A60BB690433BB614FF4CF
:1026800000100CF005F90346002BF0D140F2FF508A
:102690000CF018F95BE0174B1B68012B2ED148F2A8
:1026A0002A3001210CF030F800BF0A4B1B68002BC8
:1026B00004D1074B1B78DBB22A2BF6D0044B1B78D6
:1026C000DBB22A2B43D0024B1B78DBB240E000BFC9
:1026D00004000020500100204801002074CC00209C
:1026E000FFFF0F0020010020F4CB00204C01002050
:1026F00008CC00200000002000800140164B1B6821
:10270000002B24D140F22A3001210BF0FDFF0120E3
:102710000CF018F8FB88F8681946FFF785F800BF39
:10272000FFF778F80346002B08D10C4B1B68002BF1
:1027300004D10B4B1B78DBB22A2BF1D0084B1B7852
:10274000DBB22A2B03D0064B1B78DBB200E0FB7D0B
:1027500018462437BD4690BD0000002050010020DF
:102760000400002090B589B000AFF860B9603B600C
:102770001346FB802A23FB770023BB61FB687B6148
:102780000023FB74FB68002B03D12623FB77FB7F20
:10279000BFE18E4B2A221A708D4B00221A608D4B9E
:1027A00000221A608C4B8D4A1A608B4B00225A60B3
:1027B000894B00229A60884B0022DA60864B002207
:1027C0001A61854B00225A6183480CF017F80020EB
:1027D0000BF0B8FF00200BF0FDFF034603F0007381
:1027E000002B03D00E23FB77FB7F92E17C4B1B6811
:1027F000022B05D14FF40073FB80BB685B0ABB6002
:10280000FB88002B32D0FB88B3F5006F2ED8FA88F6
:10281000FB88013B1340002B28D1FB88184601F0B0
:1028200055FB0346FB74FA886E4B1A606D4B102201
:102830005A606C4B40229A606A4B0022DA60694B06
:102840004FF480621A6167480BF08CFF102000F093
:10285000F1FE0346FB77FB7F2A2B01D0FB7F58E17B
:1028600000BF3B68012B40F2538103E02623FB7736
:10287000FB7F4EE1FB883A6802FB03F3B3F1007F74
:1028800003D32623FB77FB7F43E1FB883A6802FBF7
:1028900003F2504B1A60544B01221A60534BFA68F2
:1028A0001A604D4B4D4A1A60FB883A6802FB03F2EE
:1028B000494B5A60FB7C1A01474B9A60464B0222F7
:1028C000DA60454B00221A61434B01225A614248AB
:1028D0000BF094FF434BBA681A60424B12225A60C5
:1028E000404B40229A603F4B0022DA603D4B4FF450
:1028F00080621A613B480BF035FF122000F09AFE0F
:102900000346FB77FB7F2A2B01D0FB7F01E1384B8D
:102910001B68022B40F0B4801AE04FF400400BF02B
:10292000B7FF0346002B13D00023BB610AE0BB694D
:102930009B007A69D4180BF08FFF03462360BB69B4
:102940000133BB61BB69072BF1D97B6920337B6104
:10295000284B5A6B40F22A331340002BDDD008205D
:102960000BF096FF0346002B06D008200BF0AAFFC1
:102970000423FB77FB7FCCE002200BF089FF0346AA
:10298000002B06D002200BF09DFF0223FB77FB7F7C
:10299000BFE020200BF07CFF0346002B06D0202058
:1029A0000BF090FF0623FB77FB7FB2E04FF4007043
:1029B0000BF06EFF0346002B07D04FF400700BF0B6
:1029C00081FF0723FB77FB7FA3E01DE004000020CD
:1029D000500100204801002074CC0020FFFF0F00B0
:1029E00020010020F4CB00204C01002008CC002066
:1029F00000000020008001400BF02EFF02467B69A2
:102A00001A607B6904337B614FF400100BF040FFC8
:102A10000346002BF0D14FF480700BF039FF0346D2
:102A2000002B28D03D4B1B68002B07D03B4B1B686D
:102A3000022B03D0394B1B68012B1CD1384B0022D1
:102A40001A60374B0C225A60354B40229A60344B47
:102A50000022DA60324B4FF480621A6130480BF08A
:102A600081FE0C2000F0E6FD0346FB77FB7F2A2B5E
:102A700001D0FB7F4DE040F2FF500BF023FF47E019
:102A8000284B1B68012B17D148F22A3001210BF08B
:102A90003BFE00BF244B1B68002B04D1234B1B784B
:102AA000DBB22A2BF6D0214B1B78DBB22A2B2FD09E
:102AB0001E4B1B78DBB22CE01A4B1B68002B27D176
:102AC00040F22A3001210BF01FFE01200BF03AFEEC
:102AD000FB883A6802FB03F3F8681946FEF7A4FE88
:102AE00000BFFEF797FE0346002B08D10E4B1B6874
:102AF000002B04D10D4B1B78DBB22A2BF1D00B4BF2
:102B00001B78DBB22A2B03D0084B1B78DBB200E02A
:102B1000FB7F18462437BD4690BD00BF2001002032
:102B2000F4CB002000000020500100200400002011
:102B300080B58EB000AFF860B9601346FB802A23E1
:102B400087F837300023FB770023FB7500233B63B6
:102B50000023FB620023BB6200237B620023BB6176
:102B6000FB683B62FB68002B05D1262387F83730D2
:102B700097F8373027E29E4B2A221A709D4B00228D
:102B80001A609D4B00221A609C4B9D4A1A609B4B19
:102B900000225A60994B00229A60984B0022DA601A
:102BA000964B00221A61954B00225A6193480BF014
:102BB00025FE00200BF0C6FD00200BF00BFE0346A7
:102BC00003F00073002B05D00E2387F8373097F8F9
:102BD0003730F8E18B4B1B68022B05D14FF40073A3
:102BE000FB80BB685B0ABB60FB88002B50D0FB8876
:102BF000B3F5006F4CD8FA88FB88013B1340002BDB
:102C000046D1FB88184601F061F90346FB77FA8844
:102C10007D4B1A607C4B10225A607B4B40229A609D
:102C2000794B0022DA60784B4FF480621A61764863
:102C30000BF098FD102000F0FDFC034687F83730BC
:102C400097F837302A2B02D097F83730BBE100BF16
:102C50006E4B1B681A046C4B1A606B4B0D225A604A
:102C6000694B40229A60684B0022DA60664B4FF451
:102C700080621A6164480BF075FD0D2000F0DAFCEB
:102C8000034687F8373097F837302A2B09D005E00C
:102C9000262387F8373097F8373094E197F83730A4
:102CA00091E100200BF096FDB862554B3B6328E0A4
:102CB0003B6B013B3B63554B1B681A04524B1A603C
:102CC000514B0D225A60504B40229A604E4B0022CD
:102CD000DA604D4B4FF480621A614B480BF042FDB5
:102CE0000D2000F0A7FC034687F8373097F83730FF
:102CF0002A2B02D097F8373065E100200BF06AFDEF
:102D0000B862BB6A03F48073002B02D13B6B002BCB
:102D1000CED13B6B002B01D1292354E13A4BBA6849
:102D20001A60394B18225A60374B40229A60364B52
:102D30000022DA60344B4FF480621A6132480BF0A3
:102D400011FD182000F076FC034687F8373097F81D
:102D500037302A2B02D097F8373034E1FA88264BE7
:102D60001A602B4B00221A602A4BFA681A60234B18
:102D7000234A1A60FA88214B5A60FB7F1A011F4BC5
:102D80009A601E4B0022DA601C4B00221A611B4B1A
:102D900001225A6119480BF031FD1F4B1B68022BB1
:102DA00040F0AB8064E04FF480400BF071FD0346CF
:102DB000002B5DD0104B1A68FB6AD31A1F2B40D82A
:102DC0000D4B1A68FB6AD31A03F00303002B05D1DD
:102DD000094B1A68FB6AD31A9B0805E0064B1A6870
:102DE000FB6AD31A9B080133BB6100237B6223E09B
:102DF00004000020500100204801002074CC002075
:102E0000FFFF0F0020010020F4CB00204401002030
:102E10004C0100208CCC0020000000203B6A1B6885
:102E200018460BF025FD7B6A01337B623B6A043355
:102E30003B62FB6A0433FB627A6ABB699A42EDD358
:102E400016E000237B620AE07B6A9B003A6A134427
:102E50001B6818460BF00CFD7B6A01337B627B6AB2
:102E6000072BF1D93B6A20333B62FB6A2033FB62BC
:102E7000574B5A6B40F21A631340002B93D0082033
:102E80000BF006FD0346002B08D008200BF01AFDBE
:102E9000042387F8373097F8373094E002200BF09E
:102EA000F7FC0346002B08D002200BF00BFD022399
:102EB00087F8373097F8373085E010200BF0E8FCC2
:102EC0000346002B08D010200BF0FCFC052387F8EC
:102ED000373097F8373076E04FF400700BF0D8FCBD
:102EE0000346002B4ED04FF400700BF0EBFC072391
:102EF00087F8373097F8373065E0364B1B68012B81
:102F000017D144F21A3001210BF0FEFB00BF324B07
:102F10001B68002B04D1314B1B78DBB22A2BF6D077
:102F20002E4B1B78DBB22A2B2CD02C4B1B78DBB220
:102F300049E0284B1B68002B24D140F21A300121B4
:102F40000BF0E2FBFB88F8681946FEF7A7FC0120AE
:102F50000BF0F8FB00BFFEF75DFC0346002B08D129
:102F60001D4B1B68002B04D11C4B1B78DBB22A2B9A
:102F7000F1D01A4B1B78DBB22A2B03D0174B1B78EE
:102F8000DBB220E040F2FF500BF09CFC07F117038E
:102F9000184600F0A1FD034687F8373007E007F137
:102FA0001703184600F098FD034687F8373097F866
:102FB00037302A2B05D1FB7D072BF0D0FB7D062B6C
:102FC000EDD097F8373018463837BD4680BD00BF82
:102FD000008001400000002050010020040000207B
:102FE00080B58CB000AFF860B9603B601346FB80E1
:102FF0002A2387F82F30002387F823300023FB761D
:103000000023BB620023FB61FB687B6200237B61C2
:10301000FB68002B05D1262387F82F3097F82F3037
:1030200093E2A94B2A221A70A84B00221A60A84BDF
:1030300000221A60A74BA84A1A60A64B00225A60C9
:10304000A44B00229A60A34B0022DA60A14B00221D
:103050001A61A04B00225A619E480BF0CFFB002062
:103060000BF070FB00200BF0B5FB034603F0007380
:10307000002B05D00E2387F82F3097F82F3064E20D
:10308000964B1B68022B05D14FF40073FB80BB6885
:103090005B0ABB60FB88002B51D0FB88B3F5006F47
:1030A0004DD8FA88FB88013B1340002B47D1FB88A1
:1030B000184600F00BFF034687F82330FA88884B48
:1030C0001A60874B10225A60854B40229A60844BCD
:1030D0000022DA60824B4FF480621A6180480BF064
:1030E00041FB102000F0A6FA034687F82F3097F82E
:1030F0002F302A2B02D097F82F3026E200BF794BD1
:103100001B681A04764B1A60754B0D225A60744B7B
:1031100040229A60724B0022DA60714B4FF4806259
:103120001A616F480BF01EFB0D2000F083FA034676
:1031300087F82F3097F82F302A2B09D005E0262367
:1031400087F82F3097F82F30FFE197F82F30FCE108
:103150003B68012B40F2CD81FB883A6802FB03F308
:10316000B3F1007F05D3262387F82F3097F82F304F
:10317000EBE15A4B1B68002B07D0584B1B68012B07
:1031800003D0564B1B68022B41D1564B1B681A04C7
:10319000534B1A60524B37225A60514B40229A606F
:1031A0004F4B0022DA604E4B4FF480621A614C485C
:1031B0000BF0D8FA372000F03DFA034687F82F309D
:1031C00097F82F302A2B02D097F82F30BDE1444BCF
:1031D0003A681A60424B17225A60414B40229A606B
:1031E0003F4B0022DA603E4B4FF480621A613C484C
:1031F0000BF0B8FA172000F01DFA034687F82F30BD
:1032000097F82F302A2B02D097F82F309DE1344BBE
:10321000BA681A60324B19225A60314B40229A60C8
:103220002F4B0022DA602E4B4FF480621A612C483B
:103230000BF098FA192000F0FDF9034687F82F30BB
:1032400097F82F302A2B02D097F82F307DE1FB889A
:103250003A6802FB03F21E4B1A60234B01221A60EC
:10326000224BFA681A601B4B1B4A1A60FB883A68AB
:1032700002FB03F2174B5A6097F823301A01154BE3
:103280009A60144B0022DA60124B00221A61114B33
:1032900001225A610F480BF0B1FA154B1B68022B43
:1032A00040F0DF8065E04FF480400BF0F1FA034618
:1032B000002B5ED0064B1A68BB6AD31A1F2B2ED97F
:1032C00000237B6121E000BF0400002050010020AA
:1032D0004801002074CC0020FFFF0F0020010020D7
:1032E000F4CB0020440100204C0100208CCC0020B5
:1032F000000000207B699B007A6A13441B68184613
:103300000BF0B6FA7B6901337B617B69072BF1D93E
:103310007B6A20337B62BB6A2033BB6229E08D4B22
:103320001A68BB6AD31A03F00303002B05D1894B3B
:103330001A68BB6AD31A9B0805E0864B1A68BB6AF9
:10334000D31A9B080133FB6100237B610DE07B6A8C
:103350001B6818460BF08CFA7B6901337B617B6A32
:1033600004337B62BB6A0433BB627A69FB699A42AD
:10337000EDD3794B5A6B40F21A331340002B92D0A5
:1033800008200BF085FA0346002B08D008200BF02C
:1033900099FA042387F82F3097F82F30D5E00220D0
:1033A0000BF076FA0346002B08D002200BF08AFAC5
:1033B000022387F82F3097F82F30C6E010200BF04B
:1033C00067FA0346002B08D010200BF07BFA052388
:1033D00087F82F3097F82F30B7E04FF400700BF0DC
:1033E00057FA0346002B09D04FF400700BF06AFA2D
:1033F000072387F82F3097F82F30A6E04FF480701E
:103400000BF046FA0346002B73D0544B1B68002B7D
:1034100007D0524B1B68012B03D0504B1B68022B6B
:1034200067D14F4B00221A604D4B0C225A604C4B17
:1034300040229A604A4B0022DA60494B4FF4806286
:103440001A6147480BF08EF90C2000F0F3F80346A0
:1034500087F82F3097F82F302A2B4AD097F82F3043
:1034600073E0404B1B68012B17D144F21A30012145
:103470000BF04AF900BF3C4B1B68002B04D13B4BBF
:103480001B78DBB22A2BF6D0384B1B78DBB22A2B09
:103490002FD0364B1B78DBB257E0324B1B68002B2A
:1034A00027D140F21A3001210BF02EF901200BF048
:1034B00049F9FB883A6802FB03F3F8681946FEF7FE
:1034C000EDF900BFFEF7A6F90346002B08D1264B05
:1034D0001B68002B04D1254B1B78DBB22A2BF1D0C3
:1034E000224B1B78DBB22A2B03D0204B1B78DBB29C
:1034F0002BE040F2FF500BF0E5F900237B6102E086
:103500007B6901337B617A694FF6FE739A42F7D982
:1035100007F11B03184600F0DFFA034687F82F3047
:1035200007E007F11B03184600F0D6FA034687F8B8
:103530002F3097F82F302A2B05D1FB7E072BF0D0A8
:10354000FB7E062BEDD097F82F3018463037BD465E
:1035500080BD00BF48010020008001402001002004
:10356000F4CB0020000000205001002004000020C7
:1035700080B582B000AF2A23FB704FF480337B60AC
:1035800002E07B68013B7B607B68002B05D08020DC
:103590000BF07EF90346002BF3D07B68002B03D1A0
:1035A0000323FB70FB7804E040F2FF500BF08AF934
:1035B000FB7818460837BD4680BD00BF80B584B093
:1035C00000AF2A23FB714FF48033BB60184B5B6B59
:1035D000FB6005E0BB68013BBB60154B5B6BFB60B0
:1035E000FB6803F04503002B02D1BB68002BF1D12F
:1035F000BB68002B04D0FB6803F00403002B06D04B
:103600000323FB7104200BF05DF9FB790CE0FB68F0
:1036100003F04003002B06D02A23FB7140200BF05F
:1036200051F9FB7900E0FB7918461037BD4680BDA3
:103630000080014080B586B000AF0346FB712A23AD
:10364000FB74624B5B6B7B6102E0604B5B6B7B618D
:103650007B6903F04503002BF7D07B6903F004037B
:10366000002B06D00323FB7404200BF02BF9FB7C0A
:10367000A8E07B6903F00103002B06D00123FB7453
:1036800001200BF01FF9FB7C9CE00BF097F8034640
:10369000FA799A4203D01023FB74FB7C92E040F24B
:1036A000FF500BF00FF900200BF094F8F860FA6867
:1036B000474B1340002B01D1FB7C83E0FB68002BC0
:1036C00001DA1C237EE0FB6803F08043002B01D06D
:1036D000092377E0FB6803F00053002B01D00A2395
:1036E00070E0FB6803F08053002B01D00B2369E0EE
:1036F000FB6803F00063002B01D00C2362E0FB6841
:1037000003F08063002B01D00D235BE0FB6803F026
:103710008073002B01D00E2354E0FB6803F40003F8
:10372000002B01D00F234DE0FB6803F48003002B36
:1037300001D0102346E0FB6803F40013002B01D0F6
:1037400011233FE0FB6803F48013002B01D0122308
:1037500038E0FB6803F40023002B01D0132331E091
:10376000FB6803F48023002B01D014232AE0FB68BC
:1037700003F40033002B01D0152323E0FB6803F48E
:103780008033002B01D016231CE0FB6803F40043B8
:10379000002B01D0172315E0FB6803F48043002BB6
:1037A00001D018230EE0FB6803F40053002B01D076
:1037B000192307E0FB6803F00803002B01D01A234C
:1037C00000E0FB7C18461837BD4680BD00800140F4
:1037D00008E0FFFD80B582B000AF2A23FB70104BDC
:1037E0005B6B7B6002E00E4B5B6B7B607B6803F086
:1037F0004503002BF7D07B6803F00403002B06D0B1
:103800000323FB7004200BF05DF8FB7804E040F22A
:10381000FF500BF057F8FB7818460837BD4680BDBF
:103820000080014080B582B000AF2A23FB70164BA8
:103830005B6B7B6002E0144B5B6B7B607B6803F02F
:103840004503002BF7D07B6803F00403002B06D060
:103850000323FB7004200BF035F8FB7810E07B6845
:1038600003F00103002B06D00123FB7001200BF0B5
:1038700029F8FB7804E040F2FF500BF023F8FB78C6
:1038800018460837BD4680BD0080014080B586B02F
:1038900000AF03463960FB712A23FB742D4B5B6B31
:1038A0007B6102E02B4B5B6B7B617B6903F0450323
:1038B000002BF7D07B6903F00403002B06D0032311
:1038C000FB7404200AF0FEFFFB7C3FE07B6903F001
:1038D0000103002B06D00123FB7401200AF0F2FF44
:1038E000FB7C33E00AF06AFF0346FA799A4203D080
:1038F0001023FB74FB7C29E040F2FF500AF0E2FF4A
:1039000000200AF067FFF860FB6803F46043002BB7
:1039100006D1FB681B0C9AB23B681A80FB7C15E051
:10392000FB6803F40053002B01D013230EE0FB6867
:1039300003F48043002B01D0102307E0FB6803F45D
:103940000043002B01D00F2300E0FB7C1846183702
:10395000BD4680BD0080014080B586B000AF034603
:10396000FB712A23FB750023FB6000233B610020D1
:103970000AF030FF034603F00073002B03D00E2340
:10398000FB75FB7D9FE0524B1B689AB207F10C035D
:103990001046194600F096F90346FB75FB7D2A2B6D
:1039A00001D0FB7D8FE0FB79012B46D13B6903F40D
:1039B0008023002B3DD0464B1B681A04454B1A60F0
:1039C000444B37225A60434B40229A60414B0022BD
:1039D000DA60404B4FF480621A613E480AF0C2FE42
:1039E0003720FFF727FE0346FB75FB7D2A2B01D00E
:1039F000FB7D68E0374B02221A60364B06225A6084
:103A0000344B40229A60334B0022DA60314B4FF442
:103A100080621A612F480AF0A5FE0620FFF70AFE11
:103A20000346FB75FB7D2A2B01D0FB7D4BE0FB7D24
:103A300049E02523FB75FB7D45E03B6903F48033BA
:103A4000002B3DD0224B1B681A04224B1A60214BDD
:103A500037225A601F4B40229A601E4B0022DA60C8
:103A60001C4B4FF480621A611A480AF07BFE372023
:103A7000FFF7E0FD0346FB75FB7D2A2B01D0FB7DA4
:103A800021E0144B00221A60124B06225A60114B9F
:103A900040229A600F4B0022DA600E4B4FF4806296
:103AA0001A610C480AF05EFE0620FFF7C3FD0346CC
:103AB000FB75FB7D2A2B01D0FB7D04E0FB7D02E042
:103AC0002523FB75FB7D18461837BD4680BD00BF1A
:103AD00044010020F4CB002080B586B000AF7860B0
:103AE0002A23FB7500233B610023FB60714B1B689D
:103AF0001A04714B1A60704B0D225A606E4B4022B3
:103B00009A606D4B0022DA606B4B4FF480621A6151
:103B100069480AF027FE694B5B6BFB6002E0674B6C
:103B20005B6BFB60FB6803F04503002BF7D0FB6881
:103B300003F00403002B06D00323FB7504200AF0D6
:103B4000C1FEFB7DB2E0FB6803F00103002B06D051
:103B50000123FB7501200AF0B5FEFB7DA6E00AF00B
:103B60002DFE0346FB60FB680D2B03D01023FB7575
:103B7000FB7D9BE040F2FF500AF0A4FE00200AF01B
:103B800029FE03463B613B695B0ADBB203F00F038E
:103B9000DAB27B681A703A69494B1340002B01D1A5
:103BA000FB7D83E03B69002B01DA1C237EE03B694F
:103BB00003F08043002B01D0092377E03B6903F039
:103BC0000053002B01D00A2370E03B6903F08053BF
:103BD000002B01D00B2369E03B6903F00063002B4D
:103BE00001D00C2362E03B6903F08063002B01D01D
:103BF0000D235BE03B6903F08073002B01D00E23A3
:103C000054E03B6903F40003002B01D00F234DE087
:103C10003B6903F48003002B01D0102346E03B698D
:103C200003F40013002B01D011233FE03B6903F4A0
:103C30008013002B01D0122338E03B6903F40023EA
:103C4000002B01D0132331E03B6903F48023002BC8
:103C500001D014232AE03B6903F40033002B01D088
:103C6000152323E03B6903F48033002B01D0162396
:103C70001CE03B6903F40043002B01D0172315E03F
:103C80003B6903F48043002B01D018230EE03B690D
:103C900003F40053002B01D0192307E03B6903F024
:103CA0000803002B01D01A2300E0FB7D18461837CB
:103CB000BD4680BD44010020F4CB002000800140BF
:103CC00008E0FFFD90B587B000AF03463960FB8088
:103CD00000237B612A23FB740023BB600023FB606D
:103CE000754B08221A60744B10225A60724B4022A6
:103CF0009A60714B0022DA606F4B4FF480621A6158
:103D00006D480AF02FFD1020FFF794FC0346FB746A
:103D1000FB7C2A2B01D0FB7CC9E0684B1B681A0492
:103D2000654B1A60644B37225A60634B40229A609D
:103D3000614B0022DA60604B4FF480621A615E488A
:103D40000AF010FD3720FFF775FC0346FB74FB7C7F
:103D50002A2B01D0FB7CAAE0594B5A4A1A60584BD7
:103D600008225A60564B30229A60554B0222DA6084
:103D7000534B00221A61524B01225A6150480AF0FB
:103D80003DFD4D4B00221A604B4B33225A604A4B8B
:103D900040229A60484B0022DA60474B4FF4806221
:103DA0001A6145480AF0DEFC3320FFF743FC034666
:103DB000FB74FB7C2A2B01D0FB7C78E012E04FF4F3
:103DC00000100AF065FD0346002B0BD07B699B00B9
:103DD00007F10802D4180AF03FFD034623607B690F
:103DE00001337B61384B5A6B40F22A631340002B3E
:103DF000E5D008200AF04CFD0346002B06D0082031
:103E00000AF060FD0423FB74FB7C50E002200AF002
:103E10003FFD0346002B06D002200AF053FD02238B
:103E2000FB74FB7C43E020200AF032FD0346002BAC
:103E300006D020200AF046FD0623FB74FB7C36E00A
:103E40004FF400700AF024FD0346002B07D04FF416
:103E500000700AF037FD0723FB74FB7C27E040F27B
:103E6000FF500AF02FFD3B680433BA681106BA68A8
:103E700002F47F4212021143BA6802F47F02120A6E
:103E80001143BA68120E0A431A60FB681A06FB68EF
:103E900003F47F431B021A43FB6803F47F031B0AEE
:103EA0001A43FB681B0E1A433B681A60FB7C1846DA
:103EB0001C37BD4690BD00BFF4CB0020440100205C
:103EC00074CC0020FFFF0F000080014080B485B05B
:103ED00000AF0346FB800023FB7305E0FB885B0813
:103EE000FB80FB7B0133FB73FB88012BF6D1FB7B53
:103EF00018461437BD465DF8047B704780B500AFA7
:103F0000154B154A126842F001021A60124A124B10
:103F10005968124B0B4053600F4A0F4B1B6823F03C
:103F2000847323F4803313600B4B0B4A126822F422
:103F300080221A60084B084A526822F4FE025A6036
:103F4000054B4FF41F029A6000F00CF8044B4FF041
:103F500000629A6080BD00BF001002400000FFF8C0
:103F600000ED00E080B500AF00F002F880BD00BFBA
:103F700080B483B000AF00237B6000233B60384BEC
:103F8000374A126842F480321A60354B1B6803F4DA
:103F900000333B607B6801337B603B68002B03D1BF
:103FA0007B68B3F5A06FF0D12D4B1B6803F4003391
:103FB000002B02D001233B6001E000233B603B6803
:103FC000012B47D1274B274A126842F010021A6092
:103FD000244B244A126822F003021A60214B214A22
:103FE00012681A601E4B1E4A52685A601C4B1C4ACB
:103FF00052685A601A4B1A4A52685A60184B184A4B
:10400000526822F47C125A60154B154A526842F4E9
:1040100098125A60124B124A126842F080721A606B
:1040200000BF0F4B1B6803F00073002BF9D00C4B43
:104030000B4A526822F003025A60094B084A526840
:1040400042F002025A6000BF054B5B6803F00C03AC
:10405000082BF9D10C37BD465DF8047B704700BFD3
:10406000001002400020024080B582B000AF114B2A
:104070007B60114B3B6007E03B681A1D3A607A6831
:10408000111D796012681A603A680C4B9A42F3D39A
:104090000B480C494FF000028842B8BF40F8042B8F
:1040A000FFF6FAAFFFF72AFF02F0A6F90837BD4680
:1040B00080BD00BF8C61030800000020EC000020E0
:1040C000F000002070DC002080B400AFFEE700BFED
:1040D00080B483B000AF78600C4B1B681A687B68B3
:1040E0001A607B680433094A126852681A607B6858
:1040F0000833064A126892681A607B680C33044AD7
:104100001A600C37BD465DF8047B70471C00002028
:104110007856341280B582B000AF0346FB71FB794C
:104120009BB2184600F090F80837BD4680BD00BF2E
:1041300080B500AF1D48022100220CF0DFFF1C48B3
:1041400000210CF051FE1B484FF4007101F0DEFC21
:104150001848802101F0DAFC4020FFF7DBFF8020C7
:10416000FFF7D8FF1348802101F0C2FC00BF0F4BBE
:104170001B899BB203F00203002BF8D000BF0B4B4E
:104180001B899BB203F08003002BF8D1084840F252
:10419000F9110CF063FE0548022101220CF0AEFF7C
:1041A000034801210CF020FE80BD00BF003C004010
:1041B0001C040240000C014080B586B000AF2048CE
:1041C0000CF0FEFE0820012105F0F0FB4FF400404A
:1041D000012105F009FC2823BB821823FB7503236A
:1041E000BB7507F114031748194601F07DFB4FF426
:1041F00040433B804FF482737B800023BB800023CD
:10420000FB8000233B814FF400737B810023BB8143
:104210000023FB813B460A4819460CF00BFF084877
:1042200001210CF04BFF06484FF480710CF098FF11
:104230000348022100220CF061FF1837BD4680BD03
:10424000003C0040000C014080B582B000AF034646
:10425000FB80FB88074819460CF074FF00BF054837
:1042600002210CF09FFF0346002BF8D00837BD4613
:1042700080BD00BF003C004080B483B000AF034667
:10428000FB71044BFA791A600C37BD465DF8047B6C
:10429000704700BF20000E4280B584B000AF0346D7
:1042A000FB71FB79012B0ED0022B0ED0002B0ED10F
:1042B000FDF72EFB0346FB73FB7B2A2B01D100236A
:1042C00006E0012304E0012302E0012300E00123D2
:1042D00018461037BD4680BD80B483B000AF03469A
:1042E000FB71FB79012B08D0022B08D0002B02D0E8
:1042F00000BF012304E0002302E0002300E00023CC
:1043000018460C37BD465DF8047B704780B586B013
:1043100000AFB9607A600246FA73BB73BB7B002BB7
:1043200001D104232BE0FB7B012B24D0022B24D0D2
:10433000002B00D022E0BB7B012B0AD17B685B0203
:10434000B86819464FF40072FEF774F80346FB751F
:104350000AE07B685A02BB7BB86811464FF40072D2
:10436000FEF700FA0346FB75FB7D2A2B01D10023E3
:1043700005E0012303E000BF00E000BF0123184671
:104380001837BD4680BD00BF80B586B000AFB960AC
:104390007A600246FA73BB73BB7B002B01D1042306
:1043A00027E0FB7B002B02D0022B20D020E0BB7B40
:1043B000012B0AD17B685B02B86819464FF4007282
:1043C000FEF7B6FB0346FB750AE07B685A02BB7B2F
:1043D000B86811464FF40072FEF702FE0346FB7503
:1043E000FB7D2A2B01D1002303E0012301E000BF64
:1043F000012318461837BD4680BD00BF80B483B086
:1044000000AF0B463A600246FA71BB71FB79002B94
:1044100001D0042338E0BB790E2B34D801A252F826
:1044200023F000BF61440008654400088744000889
:10443000794400088744000887440008874400083E
:104440008744000887440008874400088744000820
:104450008744000887440008874400088744000810
:10446000002311E00B4B5A6C0A4B9B6CB2FBF3F22E
:104470003B681A60002307E0064B9B6C9AB23B68CE
:104480001A80002300E0042318460C37BD465DF86F
:10449000047B70470CCC002080B400AF002318468A
:1044A000BD465DF8047B704780B584B000AF03461D
:1044B0003960FB803B689B787B733B68DB783B73A0
:1044C0003B681B78FB72797BFB7ADA4313469B00CF
:1044D00013448033994209DC3A7BFB7AC3F10F0322
:1044E000DB009A4202DCFB881F2B01D8FF23D8E0B7
:1044F000FB88203BFB80FB881A4692001344FB801C
:10450000FB7A012B3ED0022B7AD0002B40F0BA80F0
:104510007B7B0533DAB23B7B0733DBB2787B397BBD
:1045200001F044FC0023BB7328E00023FB731FE071
:10453000FB7B042B13D8FA88FB7B13445B4AD35CC8
:104540001A46BB7B42FA03F303F00103002B06D0AB
:104550003B68DB881846002101F006FC05E03B685B
:104560001B891846002101F0FFFBFB7B0133FB7325
:10457000FB7B052BDCD9BB7B0133BB73BB7B072BE0
:10458000D3D97FE07B7B0A33DAB23B7B0F33DBB2DC
:10459000787B397B01F00AFC0023BB732CE00023FD
:1045A000FB7323E0FB7B092B17D8FA88FB7B5B08A6
:1045B000DBB213443D4AD35C1A46BB7B5B08DBB2DB
:1045C00042FA03F303F00103002B06D03B68DB88BB
:1045D0001846002101F0C8FB05E03B681B8918461E
:1045E000002101F0C1FBFB7B0133FB73FB7B0A2B3A
:1045F000D8D9BB7B0133BB73BB7B0F2BCFD941E039
:104600007B7B0F33DAB23B7B1733DBB2787B397BB2
:1046100001F0CCFB0023BB7330E00023FB7327E0E9
:10462000FB7B0E2B1BD8FA88FB7B562101FB03F387
:104630001B1213441D4AD35C1A46BB7B562101FB57
:1046400003F31B1242FA03F303F00103002B06D01D
:104650003B68DB881846002101F086FB05E03B68DB
:104660001B891846002101F07FFBFB7B0133FB73A4
:10467000FB7B0F2BD4D9BB7B0133BB73BB7B172BCD
:10468000CBD900BFFB7A0133DBB21A469200134448
:10469000DAB27B7B1344DBB20133DAB23B689A7047
:1046A00000235BB218461037BD4680BD0C2A0108B6
:1046B00080B584B000AF786039603B689B78BB738D
:1046C0003B68DB787B733B681B783B7378680EF044
:1046D00007F90346FB723B7B012B24D0022B43D00E
:1046E000002B5FD1B97BFA7A134692009B1A5B00CC
:1046F0008033994202DC7B7B782B01D9FF2352E087
:104700000023FB730AE0FB7B7A6813441B7818468E
:104710003968FFF7C9FEFB7B0133FB73FA7BFB7A39
:104720009A42F0D33EE0BA7BFB7A6FF00A0101FBBC
:1047300003F380339A4202DC7B7B702B01D9FF2389
:1047400031E00023FB730AE0FB7B7A6813441B789B
:1047500018463968FFF7A8FEFB7B0133FB73FA7B31
:10476000FB7A9A42F0D31DE0BA7BFB7AC3F10803CF
:104770001B019A4202DC7B7B682B01D9FF2312E0EC
:104780000023FB730AE0FB7B7A6813441B7818460E
:104790003968FFF789FEFB7B0133FB73FA7BFB7AF9
:1047A0009A42F0D300235BB218461037BD4680BD55
:1047B00080B588B000AF786039600023BB773B6874
:1047C0009B78FB763B68DB78BB763B681B787B7617
:1047D0003B681B793B770023FB7709E0FB7F07F100
:1047E00020010B44002203F8142CFB7F0133FB77DC
:1047F000FB7F092BF2D97B68002B05DA7B685B42D3
:104800007B6001237B7704E07B68002B01DD0023C4
:104810007B777B68092B03DD3B7F013BDBB23B777A
:104820007B68632B03DD3B7F023BDBB23B777B681E
:10483000B3F57A7F03DB3B7F033BDBB23B777A68E0
:1048400042F20F739A4203DD3B7F043BDBB23B77BE
:104850007A689A4B9A4203DD3B7F053BDBB23B779C
:104860007A68974B9A4203DD3B7F063BDBB23B778E
:104870007A68944B9A4203DD3B7F073BDBB23B7780
:1048800097F91C30002B01DA00233B777B68092B5A
:1048900007DC7B68DBB23033DBB23B730123BB77D1
:1048A00099E37B68632B1DDC7B68874A82FB0312DC
:1048B0009210DB17D31ADBB23033DBB23B7379686B
:1048C000814B83FB01239A10CB17D21A13469B000E
:1048D00013445B00CA1AD3B23033DBB27B730223BA
:1048E000BB7778E37B68B3F57A7F33DA7B68774A06
:1048F00082FB03125211DB17D31ADBB23033DBB267
:104900003B737B68704A82FB03129210DB17D11A4B
:104910006D4B83FB01239A10CB17D21A13469B00D1
:1049200013445B00CA1AD3B23033DBB27B737968AD
:10493000654B83FB01239A10CB17D21A13469B00B9
:1049400013445B00CA1AD3B23033DBB2BB73032308
:10495000BB7740E37A6842F20F739A4249DC7B6886
:104960005B4A82FB03129211DB17D31ADBB230339E
:10497000DBB23B737B68554A82FB03125211DB1793
:10498000D11A514B83FB01239A10CB17D21A13462D
:104990009B0013445B00CA1AD3B23033DBB27B7383
:1049A0007B68494A82FB03129210DB17D11A464BEF
:1049B00083FB01239A10CB17D21A13469B00134492
:1049C0005B00CA1AD3B23033DBB2BB7379683E4B9B
:1049D00083FB01239A10CB17D21A13469B00134472
:1049E0005B00CA1AD3B23033DBB2FB730423BB774C
:1049F000F1E27A68314B9A426EDC7B68354A82FB81
:104A000003121213DB17D31ADBB23033DBB23B7362
:104A10007B682F4A82FB03129211DB17D11A2A4BB3
:104A200083FB01239A10CB17D21A13469B00134421
:104A30005B00CA1AD3B23033DBB27B737B68234A84
:104A400082FB03125211DB17D11A1F4B83FB012388
:104A50009A10CB17D21A13469B0013445B00CA1A54
:104A6000D3B23033DBB2BB737B68174A82FB0312CD
:104A70009210DB17D11A144B83FB01239A10CB172A
:104A8000D21A13469B0013445B00CA1AD3B23033C8
:104A9000DBB2FB7379680C4B83FB01239A10CB17B5
:104AA000D21A13469B0013445B00CA1AD3B23033A8
:104AB000DBB23B740523BB778DE200BF9F8601000C
:104AC0003F420F007F969800676666661F85EB5130
:104AD000D34D6210AD8BDB687A68854B9A4275DCEA
:104AE0007B68844A82FB03125213DB17D31ADBB2B2
:104AF0003033DBB23B737B687F4A82FB03121213B5
:104B0000DB17D11A7D4B83FB01239A10CB17D21AE6
:104B100013469B0013445B00CA1AD3B23033DBB296
:104B20007B737B68764A82FB03129211DB17D11AE2
:104B3000724B83FB01239A10CB17D21A13469B00AA
:104B400013445B00CA1AD3B23033DBB2BB737B6849
:104B50006C4A82FB03125211DB17D11A674B83FB9D
:104B600001239A10CB17D21A13469B0013445B0003
:104B7000CA1AD3B23033DBB2FB737B685F4A82FB65
:104B800003129210DB17D11A5C4B83FB01239A109E
:104B9000CB17D21A13469B0013445B00CA1AD3B238
:104BA0003033DBB23B747968544B83FB01239A109A
:104BB000CB17D21A13469B0013445B00CA1AD3B218
:104BC0003033DBB27B740623BB7704E27A684E4B4A
:104BD0009A4200F39D807B684C4A82FB0312921438
:104BE000DB17D31ADBB23033DBB23B737B68414A4D
:104BF00082FB03125213DB17D11A404B83FB0123B4
:104C00009A10CB17D21A13469B0013445B00CA1AA2
:104C1000D3B23033DBB27B737B68374A82FB03123B
:104C20001213DB17D11A354B83FB01239A10CB17D4
:104C3000D21A13469B0013445B00CA1AD3B2303316
:104C4000DBB2BB737B682E4A82FB03129211DB1727
:104C5000D11A2A4B83FB01239A10CB17D21A134681
:104C60009B0013445B00CA1AD3B23033DBB2FB7330
:104C70007B68244A82FB03125211DB17D11A1F4BA7
:104C800083FB01239A10CB17D21A13469B001344BF
:104C90005B00CA1AD3B23033DBB23B747B68174A6D
:104CA00082FB03129210DB17D11A144B83FB0123F2
:104CB0009A10CB17D21A13469B0013445B00CA1AF2
:104CC000D3B23033DBB27B7479680C4B83FB0123A6
:104CD0009A10CB17D21A13469B0013445B00CA1AD2
:104CE000D3B23033DBB2BB740723BB7773E100BFB1
:104CF0003F420F0089B5F814AD8BDB6867666666C6
:104D0000D34D62101F85EB517F96980083DE1B43C5
:104D10007A68C34B9A4200F3A2807B68C14A82FB47
:104D200003129215DB17D31ADBB23033DBB23B73BD
:104D30007B68BD4A82FB03129214DB17D11ABB4B6E
:104D400083FB01239A10CB17D21A13469B001344FE
:104D50005B00CA1AD3B23033DBB27B737B68B44AD0
:104D600082FB03125213DB17D11AB04B83FB0123D2
:104D70009A10CB17D21A13469B0013445B00CA1A31
:104D8000D3B23033DBB2BB737B68AA4A82FB031217
:104D90001213DB17D11AA54B83FB01239A10CB17F3
:104DA000D21A13469B0013445B00CA1AD3B23033A5
:104DB000DBB2FB737B68A04A82FB03129211DB1704
:104DC000D11A9A4B83FB01239A10CB17D21A1346A0
:104DD0009B0013445B00CA1AD3B23033DBB23B747E
:104DE0007B68964A82FB03125211DB17D11A8F4B54
:104DF00083FB01239A10CB17D21A13469B0013444E
:104E00005B00CA1AD3B23033DBB27B747B68874A4B
:104E100082FB03129210DB17D11A844B83FB012310
:104E20009A10CB17D21A13469B0013445B00CA1A80
:104E3000D3B23033DBB2BB7479687C4B83FB012384
:104E40009A10CB17D21A13469B0013445B00CA1A60
:104E5000D3B23033DBB2FB740823BB77BBE07A6894
:104E6000774B9A4200F3B7807B68764A82FB031245
:104E70005216DB17D31ADBB23033DBB23B737B68DD
:104E8000684A82FB03129215DB17D11A674B83FB2A
:104E900001239A10CB17D21A13469B0013445B00D0
:104EA000CA1AD3B23033DBB27B737B685E4A82FBB3
:104EB00003129214DB17D11A5C4B83FB01239A1067
:104EC000CB17D21A13469B0013445B00CA1AD3B205
:104ED0003033DBB2BB737B68554A82FB031252133B
:104EE000DB17D11A514B83FB01239A10CB17D21A2F
:104EF00013469B0013445B00CA1AD3B23033DBB2B3
:104F0000FB737B684B4A82FB03121213DB17D11A27
:104F1000464B83FB01239A10CB17D21A13469B00F2
:104F200013445B00CA1AD3B23033DBB23B747B68E4
:104F3000414A82FB03129211DB17D11A3B4B83FBD0
:104F400001239A10CB17D21A13469B0013445B001F
:104F5000CA1AD3B23033DBB27B747B68374A82FB28
:104F600003125211DB17D11A304B83FB01239A1025
:104F7000CB17D21A13469B0013445B00CA1AD3B254
:104F80003033DBB2BB747B68284A82FB0312921079
:104F9000DB17D11A254B83FB01239A10CB17D21AAA
:104FA00013469B0013445B00CA1AD3B23033DBB202
:104FB000FB7479681D4B83FB01239A10CB17D21A1F
:104FC00013469B0013445B00CA1AD3B23033DBB2E2
:104FD0003B750923BB777B7E012B12D0022B34D08B
:104FE000002B3FD1F97EBA7F134692009B1A5B00DB
:104FF0008033994202DCBB7E782B01D9FF2360E02D
:1050000030E0FA7EBB7F6FF00A0101FB03F38033CF
:105010009A4202DCBB7E702B16D9FF2351E000BF01
:10502000FFE0F5056BCA5F6B83DE1B436766666650
:1050300089B5F814AD8BDB68D34D62101F85EB5139
:10504000FFC99A3B893BE6550CE0FA7EBB7FC3F172
:1050500008031B019A4202DCBB7E682B01D9FF23A7
:105060002FE000BF7B7F012B03D12D203968FFF794
:105070001BFA97F91C30002B0EDD0023FB7706E0AE
:1050800030203968FFF710FAFB7F0133FB77FA7F96
:1050900097F91C309A42F3DB0023FB770CE0FB7F8F
:1050A00007F120010B4413F8143C18463968FFF748
:1050B000FBF9FB7F0133FB77FA7FBB7F9A42EED38C
:1050C00000235BB218462037BD4680BD80B584B052
:1050D00000AF786013460A467A803B80FF23FB725C
:1050E00000BF2F4B1B899BB203F00203002BF8D0AB
:1050F00000BF2B4B1B899BB203F08003002BF8D120
:10510000FFF75AF83620012100F010FEC8200021D8
:1051100000F00CFE7B88DBB2013BDAB23B88DBB2ED
:10512000013BDBB20020002100F040FE00BF1C4B21
:105130001B899BB203F00203002BF8D000BF184B71
:105140001B899BB203F08003002BF8D11448022185
:1051500000220BF0D3FF134800210BF045FE01F0B5
:1051600069F81148802100F0C3FC0023FB600AE0CD
:10517000FB685B007A6813441B881846FFF764F8E5
:10518000FB680133FB60FA687B88398801FB03F315
:105190009A42EDD3FB7A5BB218461037BD4680BD0C
:1051A000003C00401C040240000C014080B584B06B
:1051B00000AF7860F970BA703B80FF23FB734A48F8
:1051C000022100220BF09AFF484800210BF00CFE50
:1051D00000BF454B1B899BB203F00203002BF8D0A4
:1051E00000BF414B1B899BB203F08003002BF8D119
:1051F000FEF7E2FF3620012100F098FD3B7F032BF4
:1052000040D801A252F823F0195200084752000872
:105210008552000885520008C820002100F086FD54
:105220003B88DAB2FB781344DBB2013BDAB23B8B4A
:10523000D9B2BB780B44DBB2013BDBB2F878B9786A
:1052400000F0B4FD1EE0A820002100F06FFD3B8BB4
:10525000DAB2FB781344DAB26FF07E039B1AD9B24C
:105260003B88DAB2BB781344DBB2013BDAB2FB789D
:10527000C3F1FF2303F57F038033DBB2B87800F07E
:10528000D3FD00BF00F0D6FF1948802100F030FCAC
:105290003B883A8B02FB03F37868194600F04EFF17
:1052A000144B1B68184600210022002308F092FED0
:1052B0003B883A8B02FB03F39BB2184600F080FF59
:1052C0000C4B1B68184600214FF41672002308F09F
:1052D00081FE0346012B01D10123FB73FB7B5BB2F3
:1052E00018461037BD4680BD003C00401C040240FB
:1052F000000C0140A8D9002080B586B002AF03465B
:10530000FB80FA88624BA3FB02139B099BB2FB73E1
:10531000FA88FB7B5F4901FB03F313445E4A82FB7F
:1053200003125211DB17D31ABB73FA88FB7B59495E
:1053300001FB03F31A44BB7B6FF0630101FB03F332
:105340001344564A82FB03129210DB17D31A7B7365
:10535000534BB3F870319BB21A46514BB3F87231CC
:105360009BB2D31A4D4A82FB03125210DB17D31A99
:105370007B81FA884A4BB3F872319BB2D21A7B898F
:1053800092FBF3F33B81B7F90830002B04DA454B6D
:105390001A68454B1A6010E0B7F90830042B08DC96
:1053A000B7F908305A1C3F4B53F822203E4B1A6085
:1053B00003E03C4B5A693C4B1A603C4B1B68184657
:1053C00000214FF41672002308F004FE0346012B5F
:1053D0005AD1374B00221A70354B00225A70344B89
:1053E00050229A70324B1522DA70314B4FF4FC6226
:1053F000DA802F4B00221A812D4B02225A7100BFF6
:105400002C4B1B899BB203F00203002BF8D000BF8A
:10541000284B1B899BB203F08003002BF8D1FEF7C9
:10542000CBFE3620012100F081FCC820002100F0D5
:105430007DFCFB7B18461E49FFF7BAF91E481C4944
:10544000FFF736F9BB7B18461949FFF7B1F97B7BAB
:1054500018461749FFF7ACF918481549FFF728F91E
:10546000114B1B68402200920122019218464121F3
:1054700000221423FFF79AFE0C4B1B6818460021EC
:105480000022002308F0E0FC1037BD4680BD00BFBD
:10549000D34D621018FCFFFF1F85EB5167666666EF
:1054A00018D700205000002058010020B0D900205B
:1054B0005C010020003C0040382C01083C2C010815
:1054C00080B500AF274B1B68184600214FF41672B9
:1054D000002308F07FFD0346012B41D100BF224B82
:1054E0001B899BB203F00203002BF8D000BF1E4BB8
:1054F0001B899BB203F08003002BF8D1FEF75CFE02
:105500003620012100F012FCC820002100F00EFC22
:10551000164B02221A70154B00225A70134B0022B0
:105520009A70124B6422DA70104B4FF6FF72DA80D9
:105530000E4B00221A810D4B02225A710B4B022294
:105540001A710B4B9B78DBB218460849FFF730F90C
:10555000044B1B68184600210022002308F074FC4D
:1055600080BD00BFB0D90020003C00406801002091
:1055700018D7002080B500AF274B1B6818460021C4
:105580004FF41672002308F025FD0346012B41D18C
:10559000224B01221A70214B00225A701F4B3722D6
:1055A0009A701E4B6B22DA701C4B4FF4FC62DA804F
:1055B0001A4B00221A81194B02225A71174B0222F0
:1055C0001A7100BF164B1B899BB203F00203002B1C
:1055D000F8D000BF124B1B899BB203F08003002B55
:1055E000F8D1FEF7E9FD3620012100F09FFBC8202D
:1055F000002100F09BFB0B4B5B899BB218460749CF
:10560000FFF7D6F8044B1B68184600210022002340
:1056100008F01AFC80BD00BFB0D900207401002042
:10562000003C004018D7002080B500AF274B1B6816
:10563000184600214FF41672002308F0CBFC0346F5
:10564000012B41D1224B01221A70214B00225A70AA
:105650001F4B5F229A701E4B6B22DA701C4B4FF669
:10566000FF72DA801A4B00221A81194B02225A71FA
:10567000174B02221A7100BF164B1B899BB203F015
:105680000203002BF8D000BF124B1B899BB203F022
:105690008003002BF8D1FEF78FFD3620012100F0AA
:1056A00045FBC820002100F041FB0B4BDB899BB27E
:1056B00018460749FFF77CF8044B1B681846002181
:1056C0000022002308F0C0FB80BD00BFB0D900203D
:1056D00080010020003C004018D7002080B500AFBA
:1056E000444B1B68184600214FF41672002308F043
:1056F00071FC0346012B7CD100BF3F4B1B899BB241
:1057000003F00203002BF8D000BF3B4B1B899BB278
:1057100003F08003002BF8D1FEF74EFD3620012167
:1057200000F004FBC820002100F000FB334B0022F6
:105730001A70324B00225A70304B14229A702F4B41
:105740000022DA702D4B4FF6FF72DA802B4B0022CD
:105750001A812A4B01225A71284B01221A71284BB7
:105760009B78DBB2002B0FD0254B9B78DBB20C2B48
:105770000AD8234B9B78DBB25A1E224B53F82230B7
:1057800018461E49FEF794FF1D4B9B78DBB2042B95
:1057900008D91B4B9B78DBB2072B03D81A48174953
:1057A000FEF786FF164BDB78DBB218461349FEF78F
:1057B000FFFF124B18229A70104B0922DA70104B1F
:1057C0001B79DBB218460D49FEF7F2FF0F480B4973
:1057D000FEF76EFF0A4B5B79DBB218460749FEF70E
:1057E000E7FF044B1B68184600210022002308F045
:1057F0002BFB80BDB0D90020003C00408C01002074
:1058000024DA0020200000209C2C0108A02C010894
:1058100080B582B000AF0346FB712D4B1B68184664
:1058200000214FF41672002308F0D4FB0346012B2D
:105830004BD100BF274B1B899BB203F00203002B07
:10584000F8D000BF234B1B899BB203F08003002BD1
:10585000F8D1FEF7B1FC3620012100F067FAC8202C
:10586000002100F063FA1C4B00221A701A4B002230
:105870005A70194B1C229A70174B1922DA70164B6A
:105880004FF6FF72DA80144B00221A81FB79012B4C
:1058900009D0022B0CD0002B00D00EE00F480E498F
:1058A000FEF706FF09E00E480B49FEF701FF04E092
:1058B0000C480949FEF7FCFE00BF054B1B68184663
:1058C00000210022002308F0BFFA0837BD4680BD42
:1058D000B0D90020003C004098010020A42C010811
:1058E000AC2C0108B42C010880B489B000AF7860FA
:1058F00039600023FB6100233B610023BB6100236F
:10590000FB6000237B610023BB603B68DB7803F016
:105910000F03FB613B68DB7803F01003002B04D01E
:105920003B689B78FA691343FB613B681B88DBB2D9
:10593000002B44D07B681B687B610023BB6138E08F
:10594000BB69012202FA03F3FB603B681B881A461D
:10595000FB6813403B613A69FB689A4226D1BB69F8
:105960009B00FB60FB680F2202FA03F3BB60BB687D
:10597000DB437A6913407B61FB68FA6902FA03F33F
:105980007A6913437B613B68DB78282B05D1BB69BF
:1059900001229A407B685A6108E03B68DB78482B1B
:1059A00004D1BB6901229A407B681A61BB6901334B
:1059B000BB61BB69072BC3D97B687A691A603B68F6
:1059C0001B88FF2B46D97B685B687B610023BB612A
:1059D0003AE0BB690833012202FA03F3FB603B683B
:1059E0001B881A46FB6813403B613A69FB689A4280
:1059F00027D1BB699B00FB60FB680F2202FA03F30F
:105A0000BB60BB68DB437A6913407B61FB68FA6962
:105A100002FA03F37A6913437B613B68DB78282B36
:105A200005D1BB69083301229A407B685A613B6803
:105A3000DB78482B05D1BB69083301229A407B688B
:105A40001A61BB690133BB61BB69072BC1D97B6894
:105A50007A695A602437BD465DF8047B704700BF01
:105A600080B483B000AF78607B684FF6FF721A8015
:105A70007B6802229A707B680422DA700C37BD467C
:105A80005DF8047B704700BF80B485B000AF7860DC
:105A90000B467B800023FB737B689A687B881340EE
:105AA000002B02D00123FB7301E00023FB73FB7B7F
:105AB00018461437BD465DF8047B704780B485B046
:105AC00000AF78600B467B800023FB737B68DA684D
:105AD0007B881340002B02D00123FB7301E00023DD
